{
	"Wormhole/destination.sol": {
		"Destination": {
			"abi": [
				{
					"inputs": [
						{
							"internalType": "address",
							"name": "_wormholeRelayer",
							"type": "address"
						}
					],
					"stateMutability": "nonpayable",
					"type": "constructor"
				},
				{
					"anonymous": false,
					"inputs": [
						{
							"indexed": false,
							"internalType": "uint256[]",
							"name": "numbers",
							"type": "uint256[]"
						},
						{
							"indexed": false,
							"internalType": "uint16",
							"name": "senderChain",
							"type": "uint16"
						},
						{
							"indexed": false,
							"internalType": "address",
							"name": "sender",
							"type": "address"
						},
						{
							"indexed": false,
							"internalType": "uint256",
							"name": "calculatedResult",
							"type": "uint256"
						}
					],
					"name": "GreetingReceived",
					"type": "event"
				},
				{
					"inputs": [],
					"name": "calculatedResult",
					"outputs": [
						{
							"internalType": "uint256",
							"name": "",
							"type": "uint256"
						}
					],
					"stateMutability": "view",
					"type": "function"
				},
				{
					"inputs": [],
					"name": "getNumbersArray",
					"outputs": [
						{
							"internalType": "uint256[]",
							"name": "",
							"type": "uint256[]"
						}
					],
					"stateMutability": "view",
					"type": "function"
				},
				{
					"inputs": [
						{
							"internalType": "uint256",
							"name": "",
							"type": "uint256"
						}
					],
					"name": "numbersArray",
					"outputs": [
						{
							"internalType": "uint256",
							"name": "",
							"type": "uint256"
						}
					],
					"stateMutability": "view",
					"type": "function"
				},
				{
					"inputs": [
						{
							"internalType": "uint256[]",
							"name": "_array",
							"type": "uint256[]"
						}
					],
					"name": "performOperations",
					"outputs": [
						{
							"internalType": "uint256",
							"name": "sum",
							"type": "uint256"
						}
					],
					"stateMutability": "view",
					"type": "function"
				},
				{
					"inputs": [
						{
							"internalType": "uint16",
							"name": "targetChain",
							"type": "uint16"
						}
					],
					"name": "quoteCrossChainGreeting",
					"outputs": [
						{
							"internalType": "uint256",
							"name": "cost",
							"type": "uint256"
						}
					],
					"stateMutability": "view",
					"type": "function"
				},
				{
					"inputs": [
						{
							"internalType": "uint16",
							"name": "targetChain",
							"type": "uint16"
						}
					],
					"name": "quoteCrossChainGreetingRefundPerUnitGasUnused",
					"outputs": [
						{
							"internalType": "uint256",
							"name": "refundPerUnitGasUnused",
							"type": "uint256"
						}
					],
					"stateMutability": "view",
					"type": "function"
				},
				{
					"inputs": [
						{
							"internalType": "bytes",
							"name": "payload",
							"type": "bytes"
						},
						{
							"internalType": "bytes[]",
							"name": "",
							"type": "bytes[]"
						},
						{
							"internalType": "bytes32",
							"name": "",
							"type": "bytes32"
						},
						{
							"internalType": "uint16",
							"name": "sourceChain",
							"type": "uint16"
						},
						{
							"internalType": "bytes32",
							"name": "",
							"type": "bytes32"
						}
					],
					"name": "receiveWormholeMessages",
					"outputs": [],
					"stateMutability": "payable",
					"type": "function"
				},
				{
					"inputs": [
						{
							"internalType": "uint16",
							"name": "targetChain",
							"type": "uint16"
						},
						{
							"internalType": "address",
							"name": "targetAddress",
							"type": "address"
						},
						{
							"internalType": "uint16",
							"name": "refundChain",
							"type": "uint16"
						}
					],
					"name": "sendCrossChainGreeting",
					"outputs": [],
					"stateMutability": "payable",
					"type": "function"
				},
				{
					"inputs": [],
					"name": "wormholeRelayer",
					"outputs": [
						{
							"internalType": "contract IWormholeRelayer",
							"name": "",
							"type": "address"
						}
					],
					"stateMutability": "view",
					"type": "function"
				}
			],
			"devdoc": {
				"kind": "dev",
				"methods": {},
				"version": 1
			},
			"evm": {
				"assembly": "    /* \"Wormhole/destination.sol\":152:2935  contract Destination is IWormholeReceiver {... */\n  mstore(0x40, 0xa0)\n    /* \"Wormhole/destination.sol\":626:735  constructor(address _wormholeRelayer) {... */\n  callvalue\n  dup1\n  iszero\n  tag_1\n  jumpi\n  0x00\n  dup1\n  revert\ntag_1:\n  pop\n  mload(0x40)\n  sub(codesize, bytecodeSize)\n  dup1\n  bytecodeSize\n  dup4\n  codecopy\n  dup2\n  dup2\n  add\n  0x40\n  mstore\n  dup2\n  add\n  swap1\n  tag_2\n  swap2\n  swap1\n  tag_3\n  jump\t// in\ntag_2:\n    /* \"Wormhole/destination.sol\":710:726  _wormholeRelayer */\n  dup1\n    /* \"Wormhole/destination.sol\":675:727  wormholeRelayer = IWormholeRelayer(_wormholeRelayer) */\n  0xffffffffffffffffffffffffffffffffffffffff\n  and\n  0x80\n  dup2\n  0xffffffffffffffffffffffffffffffffffffffff\n  and\n  dup2\n  mstore\n  pop\n  pop\n    /* \"Wormhole/destination.sol\":626:735  constructor(address _wormholeRelayer) {... */\n  pop\n    /* \"Wormhole/destination.sol\":152:2935  contract Destination is IWormholeReceiver {... */\n  jump(tag_6)\n    /* \"#utility.yul\":88:205   */\ntag_8:\n    /* \"#utility.yul\":197:198   */\n  0x00\n    /* \"#utility.yul\":194:195   */\n  dup1\n    /* \"#utility.yul\":187:199   */\n  revert\n    /* \"#utility.yul\":334:460   */\ntag_10:\n    /* \"#utility.yul\":371:378   */\n  0x00\n    /* \"#utility.yul\":411:453   */\n  0xffffffffffffffffffffffffffffffffffffffff\n    /* \"#utility.yul\":404:409   */\n  dup3\n    /* \"#utility.yul\":400:454   */\n  and\n    /* \"#utility.yul\":389:454   */\n  swap1\n  pop\n    /* \"#utility.yul\":334:460   */\n  swap2\n  swap1\n  pop\n  jump\t// out\n    /* \"#utility.yul\":466:562   */\ntag_11:\n    /* \"#utility.yul\":503:510   */\n  0x00\n    /* \"#utility.yul\":532:556   */\n  tag_20\n    /* \"#utility.yul\":550:555   */\n  dup3\n    /* \"#utility.yul\":532:556   */\n  tag_10\n  jump\t// in\ntag_20:\n    /* \"#utility.yul\":521:556   */\n  swap1\n  pop\n    /* \"#utility.yul\":466:562   */\n  swap2\n  swap1\n  pop\n  jump\t// out\n    /* \"#utility.yul\":568:690   */\ntag_12:\n    /* \"#utility.yul\":641:665   */\n  tag_22\n    /* \"#utility.yul\":659:664   */\n  dup2\n    /* \"#utility.yul\":641:665   */\n  tag_11\n  jump\t// in\ntag_22:\n    /* \"#utility.yul\":634:639   */\n  dup2\n    /* \"#utility.yul\":631:666   */\n  eq\n    /* \"#utility.yul\":621:684   */\n  tag_23\n  jumpi\n    /* \"#utility.yul\":680:681   */\n  0x00\n    /* \"#utility.yul\":677:678   */\n  dup1\n    /* \"#utility.yul\":670:682   */\n  revert\n    /* \"#utility.yul\":621:684   */\ntag_23:\n    /* \"#utility.yul\":568:690   */\n  pop\n  jump\t// out\n    /* \"#utility.yul\":696:839   */\ntag_13:\n    /* \"#utility.yul\":753:758   */\n  0x00\n    /* \"#utility.yul\":784:790   */\n  dup2\n    /* \"#utility.yul\":778:791   */\n  mload\n    /* \"#utility.yul\":769:791   */\n  swap1\n  pop\n    /* \"#utility.yul\":800:833   */\n  tag_25\n    /* \"#utility.yul\":827:832   */\n  dup2\n    /* \"#utility.yul\":800:833   */\n  tag_12\n  jump\t// in\ntag_25:\n    /* \"#utility.yul\":696:839   */\n  swap3\n  swap2\n  pop\n  pop\n  jump\t// out\n    /* \"#utility.yul\":845:1196   */\ntag_3:\n    /* \"#utility.yul\":915:921   */\n  0x00\n    /* \"#utility.yul\":964:966   */\n  0x20\n    /* \"#utility.yul\":952:961   */\n  dup3\n    /* \"#utility.yul\":943:950   */\n  dup5\n    /* \"#utility.yul\":939:962   */\n  sub\n    /* \"#utility.yul\":935:967   */\n  slt\n    /* \"#utility.yul\":932:1051   */\n  iszero\n  tag_27\n  jumpi\n    /* \"#utility.yul\":970:1049   */\n  tag_28\n  tag_8\n  jump\t// in\ntag_28:\n    /* \"#utility.yul\":932:1051   */\ntag_27:\n    /* \"#utility.yul\":1090:1091   */\n  0x00\n    /* \"#utility.yul\":1115:1179   */\n  tag_29\n    /* \"#utility.yul\":1171:1178   */\n  dup5\n    /* \"#utility.yul\":1162:1168   */\n  dup3\n    /* \"#utility.yul\":1151:1160   */\n  dup6\n    /* \"#utility.yul\":1147:1169   */\n  add\n    /* \"#utility.yul\":1115:1179   */\n  tag_13\n  jump\t// in\ntag_29:\n    /* \"#utility.yul\":1105:1179   */\n  swap2\n  pop\n    /* \"#utility.yul\":1061:1189   */\n  pop\n    /* \"#utility.yul\":845:1196   */\n  swap3\n  swap2\n  pop\n  pop\n  jump\t// out\n    /* \"Wormhole/destination.sol\":152:2935  contract Destination is IWormholeReceiver {... */\ntag_6:\n  mload(0x80)\n  codecopy(0x00, dataOffset(sub_0), dataSize(sub_0))\n  0x00\n  assignImmutable(\"0x742923de7bc50464937906bfe030fa4efb91e6a4573564a32c624c34f00beca2\")\n  return(0x00, dataSize(sub_0))\nstop\n\nsub_0: assembly {\n        /* \"Wormhole/destination.sol\":152:2935  contract Destination is IWormholeReceiver {... */\n      mstore(0x40, 0x80)\n      jumpi(tag_1, lt(calldatasize, 0x04))\n      shr(0xe0, calldataload(0x00))\n      dup1\n      0x75cccbb1\n      gt\n      tag_11\n      jumpi\n      dup1\n      0x75cccbb1\n      eq\n      tag_6\n      jumpi\n      dup1\n      0x8a4bcced\n      eq\n      tag_7\n      jumpi\n      dup1\n      0xda25b725\n      eq\n      tag_8\n      jumpi\n      dup1\n      0xe5ad2984\n      eq\n      tag_9\n      jumpi\n      dup1\n      0xf6ff2460\n      eq\n      tag_10\n      jumpi\n      jump(tag_1)\n    tag_11:\n      dup1\n      0x28bd75ce\n      eq\n      tag_2\n      jumpi\n      dup1\n      0x4d5575b4\n      eq\n      tag_3\n      jumpi\n      dup1\n      0x529dca32\n      eq\n      tag_4\n      jumpi\n      dup1\n      0x70602a1f\n      eq\n      tag_5\n      jumpi\n    tag_1:\n      0x00\n      dup1\n      revert\n        /* \"Wormhole/destination.sol\":743:924  function quoteCrossChainGreeting(uint16 targetChain) public view returns (uint256 cost) {... */\n    tag_2:\n      callvalue\n      dup1\n      iszero\n      tag_12\n      jumpi\n      0x00\n      dup1\n      revert\n    tag_12:\n      pop\n      tag_13\n      0x04\n      dup1\n      calldatasize\n      sub\n      dup2\n      add\n      swap1\n      tag_14\n      swap2\n      swap1\n      tag_15\n      jump\t// in\n    tag_14:\n      tag_16\n      jump\t// in\n    tag_13:\n      mload(0x40)\n      tag_17\n      swap2\n      swap1\n      tag_18\n      jump\t// in\n    tag_17:\n      mload(0x40)\n      dup1\n      swap2\n      sub\n      swap1\n      return\n        /* \"Wormhole/destination.sol\":1972:2296  function performOperations(uint256[] memory _array) public view returns (uint sum) {... */\n    tag_3:\n      callvalue\n      dup1\n      iszero\n      tag_19\n      jumpi\n      0x00\n      dup1\n      revert\n    tag_19:\n      pop\n      tag_20\n      0x04\n      dup1\n      calldatasize\n      sub\n      dup2\n      add\n      swap1\n      tag_21\n      swap2\n      swap1\n      tag_22\n      jump\t// in\n    tag_21:\n      tag_23\n      jump\t// in\n    tag_20:\n      mload(0x40)\n      tag_24\n      swap2\n      swap1\n      tag_18\n      jump\t// in\n    tag_24:\n      mload(0x40)\n      dup1\n      swap2\n      sub\n      swap1\n      return\n        /* \"Wormhole/destination.sol\":1186:1852  function receiveWormholeMessages(... */\n    tag_4:\n      tag_25\n      0x04\n      dup1\n      calldatasize\n      sub\n      dup2\n      add\n      swap1\n      tag_26\n      swap2\n      swap1\n      tag_27\n      jump\t// in\n    tag_26:\n      tag_28\n      jump\t// in\n    tag_25:\n      stop\n        /* \"Wormhole/destination.sol\":932:1172  function quoteCrossChainGreetingRefundPerUnitGasUnused(uint16 targetChain) public view returns (uint256 refundPerUnitGasUnused) {... */\n    tag_5:\n      callvalue\n      dup1\n      iszero\n      tag_29\n      jumpi\n      0x00\n      dup1\n      revert\n    tag_29:\n      pop\n      tag_30\n      0x04\n      dup1\n      calldatasize\n      sub\n      dup2\n      add\n      swap1\n      tag_31\n      swap2\n      swap1\n      tag_15\n      jump\t// in\n    tag_31:\n      tag_32\n      jump\t// in\n    tag_30:\n      mload(0x40)\n      tag_33\n      swap2\n      swap1\n      tag_18\n      jump\t// in\n    tag_33:\n      mload(0x40)\n      dup1\n      swap2\n      sub\n      swap1\n      return\n        /* \"Wormhole/destination.sol\":2304:2932  function sendCrossChainGreeting(... */\n    tag_6:\n      tag_34\n      0x04\n      dup1\n      calldatasize\n      sub\n      dup2\n      add\n      swap1\n      tag_35\n      swap2\n      swap1\n      tag_36\n      jump\t// in\n    tag_35:\n      tag_37\n      jump\t// in\n    tag_34:\n      stop\n        /* \"Wormhole/destination.sol\":585:616  uint256 public calculatedResult */\n    tag_7:\n      callvalue\n      dup1\n      iszero\n      tag_38\n      jumpi\n      0x00\n      dup1\n      revert\n    tag_38:\n      pop\n      tag_39\n      tag_40\n      jump\t// in\n    tag_39:\n      mload(0x40)\n      tag_41\n      swap2\n      swap1\n      tag_18\n      jump\t// in\n    tag_41:\n      mload(0x40)\n      dup1\n      swap2\n      sub\n      swap1\n      return\n        /* \"Wormhole/destination.sol\":421:470  IWormholeRelayer public immutable wormholeRelayer */\n    tag_8:\n      callvalue\n      dup1\n      iszero\n      tag_42\n      jumpi\n      0x00\n      dup1\n      revert\n    tag_42:\n      pop\n      tag_43\n      tag_44\n      jump\t// in\n    tag_43:\n      mload(0x40)\n      tag_45\n      swap2\n      swap1\n      tag_46\n      jump\t// in\n    tag_45:\n      mload(0x40)\n      dup1\n      swap2\n      sub\n      swap1\n      return\n        /* \"Wormhole/destination.sol\":547:576  uint256[] public numbersArray */\n    tag_9:\n      callvalue\n      dup1\n      iszero\n      tag_47\n      jumpi\n      0x00\n      dup1\n      revert\n    tag_47:\n      pop\n      tag_48\n      0x04\n      dup1\n      calldatasize\n      sub\n      dup2\n      add\n      swap1\n      tag_49\n      swap2\n      swap1\n      tag_50\n      jump\t// in\n    tag_49:\n      tag_51\n      jump\t// in\n    tag_48:\n      mload(0x40)\n      tag_52\n      swap2\n      swap1\n      tag_18\n      jump\t// in\n    tag_52:\n      mload(0x40)\n      dup1\n      swap2\n      sub\n      swap1\n      return\n        /* \"Wormhole/destination.sol\":1860:1964  function getNumbersArray() public view returns (uint256[] memory) {... */\n    tag_10:\n      callvalue\n      dup1\n      iszero\n      tag_53\n      jumpi\n      0x00\n      dup1\n      revert\n    tag_53:\n      pop\n      tag_54\n      tag_55\n      jump\t// in\n    tag_54:\n      mload(0x40)\n      tag_56\n      swap2\n      swap1\n      tag_57\n      jump\t// in\n    tag_56:\n      mload(0x40)\n      dup1\n      swap2\n      sub\n      swap1\n      return\n        /* \"Wormhole/destination.sol\":743:924  function quoteCrossChainGreeting(uint16 targetChain) public view returns (uint256 cost) {... */\n    tag_16:\n        /* \"Wormhole/destination.sol\":817:829  uint256 cost */\n      0x00\n        /* \"Wormhole/destination.sol\":852:867  wormholeRelayer */\n      immutable(\"0x742923de7bc50464937906bfe030fa4efb91e6a4573564a32c624c34f00beca2\")\n        /* \"Wormhole/destination.sol\":852:889  wormholeRelayer.quoteEVMDeliveryPrice */\n      0xffffffffffffffffffffffffffffffffffffffff\n      and\n      0xc23ee3c3\n        /* \"Wormhole/destination.sol\":890:901  targetChain */\n      dup4\n        /* \"Wormhole/destination.sol\":903:904  0 */\n      0x00\n        /* \"Wormhole/destination.sol\":403:412  3_000_000 */\n      0x2dc6c0\n        /* \"Wormhole/destination.sol\":852:916  wormholeRelayer.quoteEVMDeliveryPrice(targetChain, 0, GAS_LIMIT) */\n      mload(0x40)\n      dup5\n      0xffffffff\n      and\n      0xe0\n      shl\n      dup2\n      mstore\n      0x04\n      add\n      tag_59\n      swap4\n      swap3\n      swap2\n      swap1\n      tag_60\n      jump\t// in\n    tag_59:\n      0x40\n      dup1\n      mload\n      dup1\n      dup4\n      sub\n      dup2\n      dup7\n      gas\n      staticcall\n      iszero\n      dup1\n      iszero\n      tag_62\n      jumpi\n      returndatasize\n      0x00\n      dup1\n      returndatacopy\n      revert(0x00, returndatasize)\n    tag_62:\n      pop\n      pop\n      pop\n      pop\n      mload(0x40)\n      returndatasize\n      not(0x1f)\n      0x1f\n      dup3\n      add\n      and\n      dup3\n      add\n      dup1\n      0x40\n      mstore\n      pop\n      dup2\n      add\n      swap1\n      tag_63\n      swap2\n      swap1\n      tag_64\n      jump\t// in\n    tag_63:\n        /* \"Wormhole/destination.sol\":842:916  (cost,) = wormholeRelayer.quoteEVMDeliveryPrice(targetChain, 0, GAS_LIMIT) */\n      pop\n      dup1\n      swap2\n      pop\n      pop\n        /* \"Wormhole/destination.sol\":743:924  function quoteCrossChainGreeting(uint16 targetChain) public view returns (uint256 cost) {... */\n      swap2\n      swap1\n      pop\n      jump\t// out\n        /* \"Wormhole/destination.sol\":1972:2296  function performOperations(uint256[] memory _array) public view returns (uint sum) {... */\n    tag_23:\n        /* \"Wormhole/destination.sol\":2045:2053  uint sum */\n      0x00\n        /* \"Wormhole/destination.sol\":2096:2097  0 */\n      dup1\n        /* \"Wormhole/destination.sol\":2074:2086  numbersArray */\n      0x00\n        /* \"Wormhole/destination.sol\":2074:2093  numbersArray.length */\n      dup1\n      sload\n      swap1\n      pop\n        /* \"Wormhole/destination.sol\":2074:2097  numbersArray.length > 0 */\n      gt\n        /* \"Wormhole/destination.sol\":2066:2141  require(numbersArray.length > 0, \"Array must contain at least one element\") */\n      tag_66\n      jumpi\n      mload(0x40)\n      0x08c379a000000000000000000000000000000000000000000000000000000000\n      dup2\n      mstore\n      0x04\n      add\n      tag_67\n      swap1\n      tag_68\n      jump\t// in\n    tag_67:\n      mload(0x40)\n      dup1\n      swap2\n      sub\n      swap1\n      revert\n    tag_66:\n        /* \"Wormhole/destination.sol\":2185:2191  uint i */\n      0x00\n        /* \"Wormhole/destination.sol\":2180:2264  for (uint i = 0; i < _array.length; i++) {... */\n    tag_69:\n        /* \"Wormhole/destination.sol\":2201:2207  _array */\n      dup3\n        /* \"Wormhole/destination.sol\":2201:2214  _array.length */\n      mload\n        /* \"Wormhole/destination.sol\":2197:2198  i */\n      dup2\n        /* \"Wormhole/destination.sol\":2197:2214  i < _array.length */\n      lt\n        /* \"Wormhole/destination.sol\":2180:2264  for (uint i = 0; i < _array.length; i++) {... */\n      iszero\n      tag_70\n      jumpi\n        /* \"Wormhole/destination.sol\":2243:2249  _array */\n      dup3\n        /* \"Wormhole/destination.sol\":2250:2251  i */\n      dup2\n        /* \"Wormhole/destination.sol\":2243:2252  _array[i] */\n      dup2\n      mload\n      dup2\n      lt\n      tag_72\n      jumpi\n      tag_73\n      tag_74\n      jump\t// in\n    tag_73:\n    tag_72:\n      0x20\n      mul\n      0x20\n      add\n      add\n      mload\n        /* \"Wormhole/destination.sol\":2236:2252  sum += _array[i] */\n      dup3\n      tag_75\n      swap2\n      swap1\n      tag_76\n      jump\t// in\n    tag_75:\n      swap2\n      pop\n        /* \"Wormhole/destination.sol\":2216:2219  i++ */\n      dup1\n      dup1\n      0x01\n      add\n      swap2\n      pop\n      pop\n        /* \"Wormhole/destination.sol\":2180:2264  for (uint i = 0; i < _array.length; i++) {... */\n      jump(tag_69)\n    tag_70:\n      pop\n        /* \"Wormhole/destination.sol\":1972:2296  function performOperations(uint256[] memory _array) public view returns (uint sum) {... */\n      swap2\n      swap1\n      pop\n      jump\t// out\n        /* \"Wormhole/destination.sol\":1186:1852  function receiveWormholeMessages(... */\n    tag_28:\n        /* \"Wormhole/destination.sol\":1527:1542  wormholeRelayer */\n      immutable(\"0x742923de7bc50464937906bfe030fa4efb91e6a4573564a32c624c34f00beca2\")\n        /* \"Wormhole/destination.sol\":1505:1543  msg.sender == address(wormholeRelayer) */\n      0xffffffffffffffffffffffffffffffffffffffff\n      and\n        /* \"Wormhole/destination.sol\":1505:1515  msg.sender */\n      caller\n        /* \"Wormhole/destination.sol\":1505:1543  msg.sender == address(wormholeRelayer) */\n      0xffffffffffffffffffffffffffffffffffffffff\n      and\n      eq\n        /* \"Wormhole/destination.sol\":1497:1568  require(msg.sender == address(wormholeRelayer), \"Only relayer allowed\") */\n      tag_78\n      jumpi\n      mload(0x40)\n      0x08c379a000000000000000000000000000000000000000000000000000000000\n      dup2\n      mstore\n      0x04\n      add\n      tag_79\n      swap1\n      tag_80\n      jump\t// in\n    tag_79:\n      mload(0x40)\n      dup1\n      swap2\n      sub\n      swap1\n      revert\n    tag_78:\n        /* \"Wormhole/destination.sol\":1584:1608  uint256[] memory numbers */\n      0x00\n        /* \"Wormhole/destination.sol\":1610:1624  address sender */\n      dup1\n        /* \"Wormhole/destination.sol\":1639:1646  payload */\n      dup7\n        /* \"Wormhole/destination.sol\":1628:1669  abi.decode(payload, (uint256[], address)) */\n      dup1\n      0x20\n      add\n      swap1\n      mload\n      dup2\n      add\n      swap1\n      tag_81\n      swap2\n      swap1\n      tag_82\n      jump\t// in\n    tag_81:\n        /* \"Wormhole/destination.sol\":1583:1669  (uint256[] memory numbers, address sender) = abi.decode(payload, (uint256[], address)) */\n      swap2\n      pop\n      swap2\n      pop\n        /* \"Wormhole/destination.sol\":1695:1702  numbers */\n      dup2\n        /* \"Wormhole/destination.sol\":1680:1692  numbersArray */\n      0x00\n        /* \"Wormhole/destination.sol\":1680:1702  numbersArray = numbers */\n      swap1\n      dup1\n      mload\n      swap1\n      0x20\n      add\n      swap1\n      tag_83\n      swap3\n      swap2\n      swap1\n      tag_84\n      jump\t// in\n    tag_83:\n      pop\n        /* \"Wormhole/destination.sol\":1732:1758  performOperations(numbers) */\n      tag_85\n        /* \"Wormhole/destination.sol\":1750:1757  numbers */\n      dup3\n        /* \"Wormhole/destination.sol\":1732:1749  performOperations */\n      tag_23\n        /* \"Wormhole/destination.sol\":1732:1758  performOperations(numbers) */\n      jump\t// in\n    tag_85:\n        /* \"Wormhole/destination.sol\":1713:1729  calculatedResult */\n      0x01\n        /* \"Wormhole/destination.sol\":1713:1758  calculatedResult = performOperations(numbers) */\n      dup2\n      swap1\n      sstore\n      pop\n        /* \"Wormhole/destination.sol\":1776:1844  GreetingReceived(numbersArray, sourceChain, sender,calculatedResult) */\n      0xe75db9e57d7c6c88542e0b44318ac61ff3b6266d300924e997786ef5e9db64dd\n        /* \"Wormhole/destination.sol\":1793:1805  numbersArray */\n      0x00\n        /* \"Wormhole/destination.sol\":1807:1818  sourceChain */\n      dup6\n        /* \"Wormhole/destination.sol\":1820:1826  sender */\n      dup4\n        /* \"Wormhole/destination.sol\":1827:1843  calculatedResult */\n      sload(0x01)\n        /* \"Wormhole/destination.sol\":1776:1844  GreetingReceived(numbersArray, sourceChain, sender,calculatedResult) */\n      mload(0x40)\n      tag_86\n      swap5\n      swap4\n      swap3\n      swap2\n      swap1\n      tag_87\n      jump\t// in\n    tag_86:\n      mload(0x40)\n      dup1\n      swap2\n      sub\n      swap1\n      log1\n        /* \"Wormhole/destination.sol\":1486:1852  {... */\n      pop\n      pop\n        /* \"Wormhole/destination.sol\":1186:1852  function receiveWormholeMessages(... */\n      pop\n      pop\n      pop\n      pop\n      pop\n      jump\t// out\n        /* \"Wormhole/destination.sol\":932:1172  function quoteCrossChainGreetingRefundPerUnitGasUnused(uint16 targetChain) public view returns (uint256 refundPerUnitGasUnused) {... */\n    tag_32:\n        /* \"Wormhole/destination.sol\":1028:1058  uint256 refundPerUnitGasUnused */\n      0x00\n        /* \"Wormhole/destination.sol\":1100:1115  wormholeRelayer */\n      immutable(\"0x742923de7bc50464937906bfe030fa4efb91e6a4573564a32c624c34f00beca2\")\n        /* \"Wormhole/destination.sol\":1100:1137  wormholeRelayer.quoteEVMDeliveryPrice */\n      0xffffffffffffffffffffffffffffffffffffffff\n      and\n      0xc23ee3c3\n        /* \"Wormhole/destination.sol\":1138:1149  targetChain */\n      dup4\n        /* \"Wormhole/destination.sol\":1151:1152  0 */\n      0x00\n        /* \"Wormhole/destination.sol\":403:412  3_000_000 */\n      0x2dc6c0\n        /* \"Wormhole/destination.sol\":1100:1164  wormholeRelayer.quoteEVMDeliveryPrice(targetChain, 0, GAS_LIMIT) */\n      mload(0x40)\n      dup5\n      0xffffffff\n      and\n      0xe0\n      shl\n      dup2\n      mstore\n      0x04\n      add\n      tag_89\n      swap4\n      swap3\n      swap2\n      swap1\n      tag_60\n      jump\t// in\n    tag_89:\n      0x40\n      dup1\n      mload\n      dup1\n      dup4\n      sub\n      dup2\n      dup7\n      gas\n      staticcall\n      iszero\n      dup1\n      iszero\n      tag_91\n      jumpi\n      returndatasize\n      0x00\n      dup1\n      returndatacopy\n      revert(0x00, returndatasize)\n    tag_91:\n      pop\n      pop\n      pop\n      pop\n      mload(0x40)\n      returndatasize\n      not(0x1f)\n      0x1f\n      dup3\n      add\n      and\n      dup3\n      add\n      dup1\n      0x40\n      mstore\n      pop\n      dup2\n      add\n      swap1\n      tag_92\n      swap2\n      swap1\n      tag_64\n      jump\t// in\n    tag_92:\n        /* \"Wormhole/destination.sol\":1071:1164  (, refundPerUnitGasUnused) = wormholeRelayer.quoteEVMDeliveryPrice(targetChain, 0, GAS_LIMIT) */\n      swap1\n      pop\n      dup1\n      swap2\n      pop\n      pop\n        /* \"Wormhole/destination.sol\":932:1172  function quoteCrossChainGreetingRefundPerUnitGasUnused(uint16 targetChain) public view returns (uint256 refundPerUnitGasUnused) {... */\n      swap2\n      swap1\n      pop\n      jump\t// out\n        /* \"Wormhole/destination.sol\":2304:2932  function sendCrossChainGreeting(... */\n    tag_37:\n        /* \"Wormhole/destination.sol\":2493:2505  uint256 cost */\n      0x00\n        /* \"Wormhole/destination.sol\":2508:2544  quoteCrossChainGreeting(targetChain) */\n      tag_94\n        /* \"Wormhole/destination.sol\":2532:2543  targetChain */\n      dup5\n        /* \"Wormhole/destination.sol\":2508:2531  quoteCrossChainGreeting */\n      tag_16\n        /* \"Wormhole/destination.sol\":2508:2544  quoteCrossChainGreeting(targetChain) */\n      jump\t// in\n    tag_94:\n        /* \"Wormhole/destination.sol\":2493:2544  uint256 cost = quoteCrossChainGreeting(targetChain) */\n      swap1\n      pop\n        /* \"Wormhole/destination.sol\":2576:2580  cost */\n      dup1\n        /* \"Wormhole/destination.sol\":2563:2572  msg.value */\n      callvalue\n        /* \"Wormhole/destination.sol\":2563:2580  msg.value >= cost */\n      lt\n      iszero\n        /* \"Wormhole/destination.sol\":2555:2581  require(msg.value >= cost) */\n      tag_95\n      jumpi\n      0x00\n      dup1\n      revert\n    tag_95:\n        /* \"Wormhole/destination.sol\":2592:2607  wormholeRelayer */\n      immutable(\"0x742923de7bc50464937906bfe030fa4efb91e6a4573564a32c624c34f00beca2\")\n        /* \"Wormhole/destination.sol\":2592:2624  wormholeRelayer.sendPayloadToEvm */\n      0xffffffffffffffffffffffffffffffffffffffff\n      and\n      0x4b5ca6f4\n        /* \"Wormhole/destination.sol\":2632:2636  cost */\n      dup3\n        /* \"Wormhole/destination.sol\":2652:2663  targetChain */\n      dup7\n        /* \"Wormhole/destination.sol\":2678:2691  targetAddress */\n      dup7\n        /* \"Wormhole/destination.sol\":2717:2733  calculatedResult */\n      sload(0x01)\n        /* \"Wormhole/destination.sol\":2735:2745  msg.sender */\n      caller\n        /* \"Wormhole/destination.sol\":2706:2746  abi.encode(calculatedResult, msg.sender) */\n      add(0x20, mload(0x40))\n      tag_96\n      swap3\n      swap2\n      swap1\n      tag_97\n      jump\t// in\n    tag_96:\n      mload(0x40)\n      0x20\n      dup2\n      dup4\n      sub\n      sub\n      dup2\n      mstore\n      swap1\n      0x40\n      mstore\n        /* \"Wormhole/destination.sol\":2772:2773  0 */\n      0x00\n        /* \"Wormhole/destination.sol\":403:412  3_000_000 */\n      0x2dc6c0\n        /* \"Wormhole/destination.sol\":2875:2886  refundChain */\n      dup10\n        /* \"Wormhole/destination.sol\":2902:2912  msg.sender */\n      caller\n        /* \"Wormhole/destination.sol\":2592:2924  wormholeRelayer.sendPayloadToEvm{value: cost}(... */\n      mload(0x40)\n      dup10\n      0xffffffff\n      and\n      0xe0\n      shl\n      dup2\n      mstore\n      0x04\n      add\n      tag_98\n      swap8\n      swap7\n      swap6\n      swap5\n      swap4\n      swap3\n      swap2\n      swap1\n      tag_99\n      jump\t// in\n    tag_98:\n      0x20\n      mload(0x40)\n      dup1\n      dup4\n      sub\n      dup2\n      dup6\n      dup9\n      gas\n      call\n      iszero\n      dup1\n      iszero\n      tag_101\n      jumpi\n      returndatasize\n      0x00\n      dup1\n      returndatacopy\n      revert(0x00, returndatasize)\n    tag_101:\n      pop\n      pop\n      pop\n      pop\n      pop\n      mload(0x40)\n      returndatasize\n      not(0x1f)\n      0x1f\n      dup3\n      add\n      and\n      dup3\n      add\n      dup1\n      0x40\n      mstore\n      pop\n      dup2\n      add\n      swap1\n      tag_102\n      swap2\n      swap1\n      tag_103\n      jump\t// in\n    tag_102:\n      pop\n        /* \"Wormhole/destination.sol\":2482:2932  {... */\n      pop\n        /* \"Wormhole/destination.sol\":2304:2932  function sendCrossChainGreeting(... */\n      pop\n      pop\n      pop\n      jump\t// out\n        /* \"Wormhole/destination.sol\":585:616  uint256 public calculatedResult */\n    tag_40:\n      sload(0x01)\n      dup2\n      jump\t// out\n        /* \"Wormhole/destination.sol\":421:470  IWormholeRelayer public immutable wormholeRelayer */\n    tag_44:\n      immutable(\"0x742923de7bc50464937906bfe030fa4efb91e6a4573564a32c624c34f00beca2\")\n      dup2\n      jump\t// out\n        /* \"Wormhole/destination.sol\":547:576  uint256[] public numbersArray */\n    tag_51:\n      0x00\n      dup2\n      dup2\n      sload\n      dup2\n      lt\n      tag_104\n      jumpi\n      0x00\n      dup1\n      revert\n    tag_104:\n      swap1\n      0x00\n      mstore\n      keccak256(0x00, 0x20)\n      add\n      0x00\n      swap2\n      pop\n      swap1\n      pop\n      sload\n      dup2\n      jump\t// out\n        /* \"Wormhole/destination.sol\":1860:1964  function getNumbersArray() public view returns (uint256[] memory) {... */\n    tag_55:\n        /* \"Wormhole/destination.sol\":1908:1924  uint256[] memory */\n      0x60\n        /* \"Wormhole/destination.sol\":1944:1956  numbersArray */\n      0x00\n        /* \"Wormhole/destination.sol\":1937:1956  return numbersArray */\n      dup1\n      sload\n      dup1\n      0x20\n      mul\n      0x20\n      add\n      mload(0x40)\n      swap1\n      dup2\n      add\n      0x40\n      mstore\n      dup1\n      swap3\n      swap2\n      swap1\n      dup2\n      dup2\n      mstore\n      0x20\n      add\n      dup3\n      dup1\n      sload\n      dup1\n      iszero\n      tag_107\n      jumpi\n      0x20\n      mul\n      dup3\n      add\n      swap2\n      swap1\n      0x00\n      mstore\n      keccak256(0x00, 0x20)\n      swap1\n    tag_108:\n      dup2\n      sload\n      dup2\n      mstore\n      0x20\n      add\n      swap1\n      0x01\n      add\n      swap1\n      dup1\n      dup4\n      gt\n      tag_108\n      jumpi\n    tag_107:\n      pop\n      pop\n      pop\n      pop\n      pop\n      swap1\n      pop\n        /* \"Wormhole/destination.sol\":1860:1964  function getNumbersArray() public view returns (uint256[] memory) {... */\n      swap1\n      jump\t// out\n    tag_84:\n      dup3\n      dup1\n      sload\n      dup3\n      dup3\n      sstore\n      swap1\n      0x00\n      mstore\n      keccak256(0x00, 0x20)\n      swap1\n      dup2\n      add\n      swap3\n      dup3\n      iszero\n      tag_109\n      jumpi\n      swap2\n      0x20\n      mul\n      dup3\n      add\n    tag_110:\n      dup3\n      dup2\n      gt\n      iszero\n      tag_111\n      jumpi\n      dup3\n      mload\n      dup3\n      sstore\n      swap2\n      0x20\n      add\n      swap2\n      swap1\n      0x01\n      add\n      swap1\n      jump(tag_110)\n    tag_111:\n    tag_109:\n      pop\n      swap1\n      pop\n      tag_112\n      swap2\n      swap1\n      tag_113\n      jump\t// in\n    tag_112:\n      pop\n      swap1\n      jump\t// out\n    tag_113:\n    tag_114:\n      dup1\n      dup3\n      gt\n      iszero\n      tag_115\n      jumpi\n      0x00\n      dup2\n      0x00\n      swap1\n      sstore\n      pop\n      0x01\n      add\n      jump(tag_114)\n    tag_115:\n      pop\n      swap1\n      jump\t// out\n        /* \"#utility.yul\":7:82   */\n    tag_116:\n        /* \"#utility.yul\":40:46   */\n      0x00\n        /* \"#utility.yul\":73:75   */\n      0x40\n        /* \"#utility.yul\":67:76   */\n      mload\n        /* \"#utility.yul\":57:76   */\n      swap1\n      pop\n        /* \"#utility.yul\":7:82   */\n      swap1\n      jump\t// out\n        /* \"#utility.yul\":88:205   */\n    tag_117:\n        /* \"#utility.yul\":197:198   */\n      0x00\n        /* \"#utility.yul\":194:195   */\n      dup1\n        /* \"#utility.yul\":187:199   */\n      revert\n        /* \"#utility.yul\":211:328   */\n    tag_118:\n        /* \"#utility.yul\":320:321   */\n      0x00\n        /* \"#utility.yul\":317:318   */\n      dup1\n        /* \"#utility.yul\":310:322   */\n      revert\n        /* \"#utility.yul\":334:423   */\n    tag_119:\n        /* \"#utility.yul\":370:377   */\n      0x00\n        /* \"#utility.yul\":410:416   */\n      0xffff\n        /* \"#utility.yul\":403:408   */\n      dup3\n        /* \"#utility.yul\":399:417   */\n      and\n        /* \"#utility.yul\":388:417   */\n      swap1\n      pop\n        /* \"#utility.yul\":334:423   */\n      swap2\n      swap1\n      pop\n      jump\t// out\n        /* \"#utility.yul\":429:549   */\n    tag_120:\n        /* \"#utility.yul\":501:524   */\n      tag_200\n        /* \"#utility.yul\":518:523   */\n      dup2\n        /* \"#utility.yul\":501:524   */\n      tag_119\n      jump\t// in\n    tag_200:\n        /* \"#utility.yul\":494:499   */\n      dup2\n        /* \"#utility.yul\":491:525   */\n      eq\n        /* \"#utility.yul\":481:543   */\n      tag_201\n      jumpi\n        /* \"#utility.yul\":539:540   */\n      0x00\n        /* \"#utility.yul\":536:537   */\n      dup1\n        /* \"#utility.yul\":529:541   */\n      revert\n        /* \"#utility.yul\":481:543   */\n    tag_201:\n        /* \"#utility.yul\":429:549   */\n      pop\n      jump\t// out\n        /* \"#utility.yul\":555:692   */\n    tag_121:\n        /* \"#utility.yul\":600:605   */\n      0x00\n        /* \"#utility.yul\":638:644   */\n      dup2\n        /* \"#utility.yul\":625:645   */\n      calldataload\n        /* \"#utility.yul\":616:645   */\n      swap1\n      pop\n        /* \"#utility.yul\":654:686   */\n      tag_203\n        /* \"#utility.yul\":680:685   */\n      dup2\n        /* \"#utility.yul\":654:686   */\n      tag_120\n      jump\t// in\n    tag_203:\n        /* \"#utility.yul\":555:692   */\n      swap3\n      swap2\n      pop\n      pop\n      jump\t// out\n        /* \"#utility.yul\":698:1025   */\n    tag_15:\n        /* \"#utility.yul\":756:762   */\n      0x00\n        /* \"#utility.yul\":805:807   */\n      0x20\n        /* \"#utility.yul\":793:802   */\n      dup3\n        /* \"#utility.yul\":784:791   */\n      dup5\n        /* \"#utility.yul\":780:803   */\n      sub\n        /* \"#utility.yul\":776:808   */\n      slt\n        /* \"#utility.yul\":773:892   */\n      iszero\n      tag_205\n      jumpi\n        /* \"#utility.yul\":811:890   */\n      tag_206\n      tag_117\n      jump\t// in\n    tag_206:\n        /* \"#utility.yul\":773:892   */\n    tag_205:\n        /* \"#utility.yul\":931:932   */\n      0x00\n        /* \"#utility.yul\":956:1008   */\n      tag_207\n        /* \"#utility.yul\":1000:1007   */\n      dup5\n        /* \"#utility.yul\":991:997   */\n      dup3\n        /* \"#utility.yul\":980:989   */\n      dup6\n        /* \"#utility.yul\":976:998   */\n      add\n        /* \"#utility.yul\":956:1008   */\n      tag_121\n      jump\t// in\n    tag_207:\n        /* \"#utility.yul\":946:1008   */\n      swap2\n      pop\n        /* \"#utility.yul\":902:1018   */\n      pop\n        /* \"#utility.yul\":698:1025   */\n      swap3\n      swap2\n      pop\n      pop\n      jump\t// out\n        /* \"#utility.yul\":1031:1108   */\n    tag_122:\n        /* \"#utility.yul\":1068:1075   */\n      0x00\n        /* \"#utility.yul\":1097:1102   */\n      dup2\n        /* \"#utility.yul\":1086:1102   */\n      swap1\n      pop\n        /* \"#utility.yul\":1031:1108   */\n      swap2\n      swap1\n      pop\n      jump\t// out\n        /* \"#utility.yul\":1114:1232   */\n    tag_123:\n        /* \"#utility.yul\":1201:1225   */\n      tag_210\n        /* \"#utility.yul\":1219:1224   */\n      dup2\n        /* \"#utility.yul\":1201:1225   */\n      tag_122\n      jump\t// in\n    tag_210:\n        /* \"#utility.yul\":1196:1199   */\n      dup3\n        /* \"#utility.yul\":1189:1226   */\n      mstore\n        /* \"#utility.yul\":1114:1232   */\n      pop\n      pop\n      jump\t// out\n        /* \"#utility.yul\":1238:1460   */\n    tag_18:\n        /* \"#utility.yul\":1331:1335   */\n      0x00\n        /* \"#utility.yul\":1369:1371   */\n      0x20\n        /* \"#utility.yul\":1358:1367   */\n      dup3\n        /* \"#utility.yul\":1354:1372   */\n      add\n        /* \"#utility.yul\":1346:1372   */\n      swap1\n      pop\n        /* \"#utility.yul\":1382:1453   */\n      tag_212\n        /* \"#utility.yul\":1450:1451   */\n      0x00\n        /* \"#utility.yul\":1439:1448   */\n      dup4\n        /* \"#utility.yul\":1435:1452   */\n      add\n        /* \"#utility.yul\":1426:1432   */\n      dup5\n        /* \"#utility.yul\":1382:1453   */\n      tag_123\n      jump\t// in\n    tag_212:\n        /* \"#utility.yul\":1238:1460   */\n      swap3\n      swap2\n      pop\n      pop\n      jump\t// out\n        /* \"#utility.yul\":1466:1583   */\n    tag_124:\n        /* \"#utility.yul\":1575:1576   */\n      0x00\n        /* \"#utility.yul\":1572:1573   */\n      dup1\n        /* \"#utility.yul\":1565:1577   */\n      revert\n        /* \"#utility.yul\":1589:1691   */\n    tag_125:\n        /* \"#utility.yul\":1630:1636   */\n      0x00\n        /* \"#utility.yul\":1681:1683   */\n      0x1f\n        /* \"#utility.yul\":1677:1684   */\n      not\n        /* \"#utility.yul\":1672:1674   */\n      0x1f\n        /* \"#utility.yul\":1665:1670   */\n      dup4\n        /* \"#utility.yul\":1661:1675   */\n      add\n        /* \"#utility.yul\":1657:1685   */\n      and\n        /* \"#utility.yul\":1647:1685   */\n      swap1\n      pop\n        /* \"#utility.yul\":1589:1691   */\n      swap2\n      swap1\n      pop\n      jump\t// out\n        /* \"#utility.yul\":1697:1877   */\n    tag_126:\n        /* \"#utility.yul\":1745:1822   */\n      0x4e487b7100000000000000000000000000000000000000000000000000000000\n        /* \"#utility.yul\":1742:1743   */\n      0x00\n        /* \"#utility.yul\":1735:1823   */\n      mstore\n        /* \"#utility.yul\":1842:1846   */\n      0x41\n        /* \"#utility.yul\":1839:1840   */\n      0x04\n        /* \"#utility.yul\":1832:1847   */\n      mstore\n        /* \"#utility.yul\":1866:1870   */\n      0x24\n        /* \"#utility.yul\":1863:1864   */\n      0x00\n        /* \"#utility.yul\":1856:1871   */\n      revert\n        /* \"#utility.yul\":1883:2164   */\n    tag_127:\n        /* \"#utility.yul\":1966:1993   */\n      tag_217\n        /* \"#utility.yul\":1988:1992   */\n      dup3\n        /* \"#utility.yul\":1966:1993   */\n      tag_125\n      jump\t// in\n    tag_217:\n        /* \"#utility.yul\":1958:1964   */\n      dup2\n        /* \"#utility.yul\":1954:1994   */\n      add\n        /* \"#utility.yul\":2096:2102   */\n      dup2\n        /* \"#utility.yul\":2084:2094   */\n      dup2\n        /* \"#utility.yul\":2081:2103   */\n      lt\n        /* \"#utility.yul\":2060:2078   */\n      0xffffffffffffffff\n        /* \"#utility.yul\":2048:2058   */\n      dup3\n        /* \"#utility.yul\":2045:2079   */\n      gt\n        /* \"#utility.yul\":2042:2104   */\n      or\n        /* \"#utility.yul\":2039:2127   */\n      iszero\n      tag_218\n      jumpi\n        /* \"#utility.yul\":2107:2125   */\n      tag_219\n      tag_126\n      jump\t// in\n    tag_219:\n        /* \"#utility.yul\":2039:2127   */\n    tag_218:\n        /* \"#utility.yul\":2147:2157   */\n      dup1\n        /* \"#utility.yul\":2143:2145   */\n      0x40\n        /* \"#utility.yul\":2136:2158   */\n      mstore\n        /* \"#utility.yul\":1926:2164   */\n      pop\n        /* \"#utility.yul\":1883:2164   */\n      pop\n      pop\n      jump\t// out\n        /* \"#utility.yul\":2170:2299   */\n    tag_128:\n        /* \"#utility.yul\":2204:2210   */\n      0x00\n        /* \"#utility.yul\":2231:2251   */\n      tag_221\n      tag_116\n      jump\t// in\n    tag_221:\n        /* \"#utility.yul\":2221:2251   */\n      swap1\n      pop\n        /* \"#utility.yul\":2260:2293   */\n      tag_222\n        /* \"#utility.yul\":2288:2292   */\n      dup3\n        /* \"#utility.yul\":2280:2286   */\n      dup3\n        /* \"#utility.yul\":2260:2293   */\n      tag_127\n      jump\t// in\n    tag_222:\n        /* \"#utility.yul\":2170:2299   */\n      swap2\n      swap1\n      pop\n      jump\t// out\n        /* \"#utility.yul\":2305:2616   */\n    tag_129:\n        /* \"#utility.yul\":2382:2386   */\n      0x00\n        /* \"#utility.yul\":2472:2490   */\n      0xffffffffffffffff\n        /* \"#utility.yul\":2464:2470   */\n      dup3\n        /* \"#utility.yul\":2461:2491   */\n      gt\n        /* \"#utility.yul\":2458:2514   */\n      iszero\n      tag_224\n      jumpi\n        /* \"#utility.yul\":2494:2512   */\n      tag_225\n      tag_126\n      jump\t// in\n    tag_225:\n        /* \"#utility.yul\":2458:2514   */\n    tag_224:\n        /* \"#utility.yul\":2544:2548   */\n      0x20\n        /* \"#utility.yul\":2536:2542   */\n      dup3\n        /* \"#utility.yul\":2532:2549   */\n      mul\n        /* \"#utility.yul\":2524:2549   */\n      swap1\n      pop\n        /* \"#utility.yul\":2604:2608   */\n      0x20\n        /* \"#utility.yul\":2598:2602   */\n      dup2\n        /* \"#utility.yul\":2594:2609   */\n      add\n        /* \"#utility.yul\":2586:2609   */\n      swap1\n      pop\n        /* \"#utility.yul\":2305:2616   */\n      swap2\n      swap1\n      pop\n      jump\t// out\n        /* \"#utility.yul\":2622:2739   */\n    tag_130:\n        /* \"#utility.yul\":2731:2732   */\n      0x00\n        /* \"#utility.yul\":2728:2729   */\n      dup1\n        /* \"#utility.yul\":2721:2733   */\n      revert\n        /* \"#utility.yul\":2745:2867   */\n    tag_131:\n        /* \"#utility.yul\":2818:2842   */\n      tag_228\n        /* \"#utility.yul\":2836:2841   */\n      dup2\n        /* \"#utility.yul\":2818:2842   */\n      tag_122\n      jump\t// in\n    tag_228:\n        /* \"#utility.yul\":2811:2816   */\n      dup2\n        /* \"#utility.yul\":2808:2843   */\n      eq\n        /* \"#utility.yul\":2798:2861   */\n      tag_229\n      jumpi\n        /* \"#utility.yul\":2857:2858   */\n      0x00\n        /* \"#utility.yul\":2854:2855   */\n      dup1\n        /* \"#utility.yul\":2847:2859   */\n      revert\n        /* \"#utility.yul\":2798:2861   */\n    tag_229:\n        /* \"#utility.yul\":2745:2867   */\n      pop\n      jump\t// out\n        /* \"#utility.yul\":2873:3012   */\n    tag_132:\n        /* \"#utility.yul\":2919:2924   */\n      0x00\n        /* \"#utility.yul\":2957:2963   */\n      dup2\n        /* \"#utility.yul\":2944:2964   */\n      calldataload\n        /* \"#utility.yul\":2935:2964   */\n      swap1\n      pop\n        /* \"#utility.yul\":2973:3006   */\n      tag_231\n        /* \"#utility.yul\":3000:3005   */\n      dup2\n        /* \"#utility.yul\":2973:3006   */\n      tag_131\n      jump\t// in\n    tag_231:\n        /* \"#utility.yul\":2873:3012   */\n      swap3\n      swap2\n      pop\n      pop\n      jump\t// out\n        /* \"#utility.yul\":3035:3745   */\n    tag_133:\n        /* \"#utility.yul\":3131:3136   */\n      0x00\n        /* \"#utility.yul\":3156:3237   */\n      tag_233\n        /* \"#utility.yul\":3172:3236   */\n      tag_234\n        /* \"#utility.yul\":3229:3235   */\n      dup5\n        /* \"#utility.yul\":3172:3236   */\n      tag_129\n      jump\t// in\n    tag_234:\n        /* \"#utility.yul\":3156:3237   */\n      tag_128\n      jump\t// in\n    tag_233:\n        /* \"#utility.yul\":3147:3237   */\n      swap1\n      pop\n        /* \"#utility.yul\":3257:3262   */\n      dup1\n        /* \"#utility.yul\":3286:3292   */\n      dup4\n        /* \"#utility.yul\":3279:3284   */\n      dup3\n        /* \"#utility.yul\":3272:3293   */\n      mstore\n        /* \"#utility.yul\":3320:3324   */\n      0x20\n        /* \"#utility.yul\":3313:3318   */\n      dup3\n        /* \"#utility.yul\":3309:3325   */\n      add\n        /* \"#utility.yul\":3302:3325   */\n      swap1\n      pop\n        /* \"#utility.yul\":3373:3377   */\n      0x20\n        /* \"#utility.yul\":3365:3371   */\n      dup5\n        /* \"#utility.yul\":3361:3378   */\n      mul\n        /* \"#utility.yul\":3353:3359   */\n      dup4\n        /* \"#utility.yul\":3349:3379   */\n      add\n        /* \"#utility.yul\":3402:3405   */\n      dup6\n        /* \"#utility.yul\":3394:3400   */\n      dup2\n        /* \"#utility.yul\":3391:3406   */\n      gt\n        /* \"#utility.yul\":3388:3510   */\n      iszero\n      tag_235\n      jumpi\n        /* \"#utility.yul\":3421:3500   */\n      tag_236\n      tag_130\n      jump\t// in\n    tag_236:\n        /* \"#utility.yul\":3388:3510   */\n    tag_235:\n        /* \"#utility.yul\":3536:3542   */\n      dup4\n        /* \"#utility.yul\":3519:3739   */\n    tag_237:\n        /* \"#utility.yul\":3553:3559   */\n      dup2\n        /* \"#utility.yul\":3548:3551   */\n      dup2\n        /* \"#utility.yul\":3545:3560   */\n      lt\n        /* \"#utility.yul\":3519:3739   */\n      iszero\n      tag_239\n      jumpi\n        /* \"#utility.yul\":3628:3631   */\n      dup1\n        /* \"#utility.yul\":3657:3694   */\n      tag_240\n        /* \"#utility.yul\":3690:3693   */\n      dup9\n        /* \"#utility.yul\":3678:3688   */\n      dup3\n        /* \"#utility.yul\":3657:3694   */\n      tag_132\n      jump\t// in\n    tag_240:\n        /* \"#utility.yul\":3652:3655   */\n      dup5\n        /* \"#utility.yul\":3645:3695   */\n      mstore\n        /* \"#utility.yul\":3724:3728   */\n      0x20\n        /* \"#utility.yul\":3719:3722   */\n      dup5\n        /* \"#utility.yul\":3715:3729   */\n      add\n        /* \"#utility.yul\":3708:3729   */\n      swap4\n      pop\n        /* \"#utility.yul\":3595:3739   */\n      pop\n        /* \"#utility.yul\":3579:3583   */\n      0x20\n        /* \"#utility.yul\":3574:3577   */\n      dup2\n        /* \"#utility.yul\":3570:3584   */\n      add\n        /* \"#utility.yul\":3563:3584   */\n      swap1\n      pop\n        /* \"#utility.yul\":3519:3739   */\n      jump(tag_237)\n    tag_239:\n        /* \"#utility.yul\":3523:3544   */\n      pop\n        /* \"#utility.yul\":3137:3745   */\n      pop\n      pop\n        /* \"#utility.yul\":3035:3745   */\n      swap4\n      swap3\n      pop\n      pop\n      pop\n      jump\t// out\n        /* \"#utility.yul\":3768:4138   */\n    tag_134:\n        /* \"#utility.yul\":3839:3844   */\n      0x00\n        /* \"#utility.yul\":3888:3891   */\n      dup3\n        /* \"#utility.yul\":3881:3885   */\n      0x1f\n        /* \"#utility.yul\":3873:3879   */\n      dup4\n        /* \"#utility.yul\":3869:3886   */\n      add\n        /* \"#utility.yul\":3865:3892   */\n      slt\n        /* \"#utility.yul\":3855:3977   */\n      tag_242\n      jumpi\n        /* \"#utility.yul\":3896:3975   */\n      tag_243\n      tag_124\n      jump\t// in\n    tag_243:\n        /* \"#utility.yul\":3855:3977   */\n    tag_242:\n        /* \"#utility.yul\":4013:4019   */\n      dup2\n        /* \"#utility.yul\":4000:4020   */\n      calldataload\n        /* \"#utility.yul\":4038:4132   */\n      tag_244\n        /* \"#utility.yul\":4128:4131   */\n      dup5\n        /* \"#utility.yul\":4120:4126   */\n      dup3\n        /* \"#utility.yul\":4113:4117   */\n      0x20\n        /* \"#utility.yul\":4105:4111   */\n      dup7\n        /* \"#utility.yul\":4101:4118   */\n      add\n        /* \"#utility.yul\":4038:4132   */\n      tag_133\n      jump\t// in\n    tag_244:\n        /* \"#utility.yul\":4029:4132   */\n      swap2\n      pop\n        /* \"#utility.yul\":3845:4138   */\n      pop\n        /* \"#utility.yul\":3768:4138   */\n      swap3\n      swap2\n      pop\n      pop\n      jump\t// out\n        /* \"#utility.yul\":4144:4683   */\n    tag_22:\n        /* \"#utility.yul\":4228:4234   */\n      0x00\n        /* \"#utility.yul\":4277:4279   */\n      0x20\n        /* \"#utility.yul\":4265:4274   */\n      dup3\n        /* \"#utility.yul\":4256:4263   */\n      dup5\n        /* \"#utility.yul\":4252:4275   */\n      sub\n        /* \"#utility.yul\":4248:4280   */\n      slt\n        /* \"#utility.yul\":4245:4364   */\n      iszero\n      tag_246\n      jumpi\n        /* \"#utility.yul\":4283:4362   */\n      tag_247\n      tag_117\n      jump\t// in\n    tag_247:\n        /* \"#utility.yul\":4245:4364   */\n    tag_246:\n        /* \"#utility.yul\":4431:4432   */\n      0x00\n        /* \"#utility.yul\":4420:4429   */\n      dup3\n        /* \"#utility.yul\":4416:4433   */\n      add\n        /* \"#utility.yul\":4403:4434   */\n      calldataload\n        /* \"#utility.yul\":4461:4479   */\n      0xffffffffffffffff\n        /* \"#utility.yul\":4453:4459   */\n      dup2\n        /* \"#utility.yul\":4450:4480   */\n      gt\n        /* \"#utility.yul\":4447:4564   */\n      iszero\n      tag_248\n      jumpi\n        /* \"#utility.yul\":4483:4562   */\n      tag_249\n      tag_118\n      jump\t// in\n    tag_249:\n        /* \"#utility.yul\":4447:4564   */\n    tag_248:\n        /* \"#utility.yul\":4588:4666   */\n      tag_250\n        /* \"#utility.yul\":4658:4665   */\n      dup5\n        /* \"#utility.yul\":4649:4655   */\n      dup3\n        /* \"#utility.yul\":4638:4647   */\n      dup6\n        /* \"#utility.yul\":4634:4656   */\n      add\n        /* \"#utility.yul\":4588:4666   */\n      tag_134\n      jump\t// in\n    tag_250:\n        /* \"#utility.yul\":4578:4666   */\n      swap2\n      pop\n        /* \"#utility.yul\":4374:4676   */\n      pop\n        /* \"#utility.yul\":4144:4683   */\n      swap3\n      swap2\n      pop\n      pop\n      jump\t// out\n        /* \"#utility.yul\":4689:4806   */\n    tag_135:\n        /* \"#utility.yul\":4798:4799   */\n      0x00\n        /* \"#utility.yul\":4795:4796   */\n      dup1\n        /* \"#utility.yul\":4788:4800   */\n      revert\n        /* \"#utility.yul\":4812:5119   */\n    tag_136:\n        /* \"#utility.yul\":4873:4877   */\n      0x00\n        /* \"#utility.yul\":4963:4981   */\n      0xffffffffffffffff\n        /* \"#utility.yul\":4955:4961   */\n      dup3\n        /* \"#utility.yul\":4952:4982   */\n      gt\n        /* \"#utility.yul\":4949:5005   */\n      iszero\n      tag_253\n      jumpi\n        /* \"#utility.yul\":4985:5003   */\n      tag_254\n      tag_126\n      jump\t// in\n    tag_254:\n        /* \"#utility.yul\":4949:5005   */\n    tag_253:\n        /* \"#utility.yul\":5023:5052   */\n      tag_255\n        /* \"#utility.yul\":5045:5051   */\n      dup3\n        /* \"#utility.yul\":5023:5052   */\n      tag_125\n      jump\t// in\n    tag_255:\n        /* \"#utility.yul\":5015:5052   */\n      swap1\n      pop\n        /* \"#utility.yul\":5107:5111   */\n      0x20\n        /* \"#utility.yul\":5101:5105   */\n      dup2\n        /* \"#utility.yul\":5097:5112   */\n      add\n        /* \"#utility.yul\":5089:5112   */\n      swap1\n      pop\n        /* \"#utility.yul\":4812:5119   */\n      swap2\n      swap1\n      pop\n      jump\t// out\n        /* \"#utility.yul\":5125:5271   */\n    tag_137:\n        /* \"#utility.yul\":5222:5228   */\n      dup3\n        /* \"#utility.yul\":5217:5220   */\n      dup2\n        /* \"#utility.yul\":5212:5215   */\n      dup4\n        /* \"#utility.yul\":5199:5229   */\n      calldatacopy\n        /* \"#utility.yul\":5263:5264   */\n      0x00\n        /* \"#utility.yul\":5254:5260   */\n      dup4\n        /* \"#utility.yul\":5249:5252   */\n      dup4\n        /* \"#utility.yul\":5245:5261   */\n      add\n        /* \"#utility.yul\":5238:5265   */\n      mstore\n        /* \"#utility.yul\":5125:5271   */\n      pop\n      pop\n      pop\n      jump\t// out\n        /* \"#utility.yul\":5277:5700   */\n    tag_138:\n        /* \"#utility.yul\":5354:5359   */\n      0x00\n        /* \"#utility.yul\":5379:5444   */\n      tag_258\n        /* \"#utility.yul\":5395:5443   */\n      tag_259\n        /* \"#utility.yul\":5436:5442   */\n      dup5\n        /* \"#utility.yul\":5395:5443   */\n      tag_136\n      jump\t// in\n    tag_259:\n        /* \"#utility.yul\":5379:5444   */\n      tag_128\n      jump\t// in\n    tag_258:\n        /* \"#utility.yul\":5370:5444   */\n      swap1\n      pop\n        /* \"#utility.yul\":5467:5473   */\n      dup3\n        /* \"#utility.yul\":5460:5465   */\n      dup2\n        /* \"#utility.yul\":5453:5474   */\n      mstore\n        /* \"#utility.yul\":5505:5509   */\n      0x20\n        /* \"#utility.yul\":5498:5503   */\n      dup2\n        /* \"#utility.yul\":5494:5510   */\n      add\n        /* \"#utility.yul\":5543:5546   */\n      dup5\n        /* \"#utility.yul\":5534:5540   */\n      dup5\n        /* \"#utility.yul\":5529:5532   */\n      dup5\n        /* \"#utility.yul\":5525:5541   */\n      add\n        /* \"#utility.yul\":5522:5547   */\n      gt\n        /* \"#utility.yul\":5519:5631   */\n      iszero\n      tag_260\n      jumpi\n        /* \"#utility.yul\":5550:5629   */\n      tag_261\n      tag_135\n      jump\t// in\n    tag_261:\n        /* \"#utility.yul\":5519:5631   */\n    tag_260:\n        /* \"#utility.yul\":5640:5694   */\n      tag_262\n        /* \"#utility.yul\":5687:5693   */\n      dup5\n        /* \"#utility.yul\":5682:5685   */\n      dup3\n        /* \"#utility.yul\":5677:5680   */\n      dup6\n        /* \"#utility.yul\":5640:5694   */\n      tag_137\n      jump\t// in\n    tag_262:\n        /* \"#utility.yul\":5360:5700   */\n      pop\n        /* \"#utility.yul\":5277:5700   */\n      swap4\n      swap3\n      pop\n      pop\n      pop\n      jump\t// out\n        /* \"#utility.yul\":5719:6057   */\n    tag_139:\n        /* \"#utility.yul\":5774:5779   */\n      0x00\n        /* \"#utility.yul\":5823:5826   */\n      dup3\n        /* \"#utility.yul\":5816:5820   */\n      0x1f\n        /* \"#utility.yul\":5808:5814   */\n      dup4\n        /* \"#utility.yul\":5804:5821   */\n      add\n        /* \"#utility.yul\":5800:5827   */\n      slt\n        /* \"#utility.yul\":5790:5912   */\n      tag_264\n      jumpi\n        /* \"#utility.yul\":5831:5910   */\n      tag_265\n      tag_124\n      jump\t// in\n    tag_265:\n        /* \"#utility.yul\":5790:5912   */\n    tag_264:\n        /* \"#utility.yul\":5948:5954   */\n      dup2\n        /* \"#utility.yul\":5935:5955   */\n      calldataload\n        /* \"#utility.yul\":5973:6051   */\n      tag_266\n        /* \"#utility.yul\":6047:6050   */\n      dup5\n        /* \"#utility.yul\":6039:6045   */\n      dup3\n        /* \"#utility.yul\":6032:6036   */\n      0x20\n        /* \"#utility.yul\":6024:6030   */\n      dup7\n        /* \"#utility.yul\":6020:6037   */\n      add\n        /* \"#utility.yul\":5973:6051   */\n      tag_138\n      jump\t// in\n    tag_266:\n        /* \"#utility.yul\":5964:6051   */\n      swap2\n      pop\n        /* \"#utility.yul\":5780:6057   */\n      pop\n        /* \"#utility.yul\":5719:6057   */\n      swap3\n      swap2\n      pop\n      pop\n      jump\t// out\n        /* \"#utility.yul\":6063:6383   */\n    tag_140:\n        /* \"#utility.yul\":6149:6153   */\n      0x00\n        /* \"#utility.yul\":6239:6257   */\n      0xffffffffffffffff\n        /* \"#utility.yul\":6231:6237   */\n      dup3\n        /* \"#utility.yul\":6228:6258   */\n      gt\n        /* \"#utility.yul\":6225:6281   */\n      iszero\n      tag_268\n      jumpi\n        /* \"#utility.yul\":6261:6279   */\n      tag_269\n      tag_126\n      jump\t// in\n    tag_269:\n        /* \"#utility.yul\":6225:6281   */\n    tag_268:\n        /* \"#utility.yul\":6311:6315   */\n      0x20\n        /* \"#utility.yul\":6303:6309   */\n      dup3\n        /* \"#utility.yul\":6299:6316   */\n      mul\n        /* \"#utility.yul\":6291:6316   */\n      swap1\n      pop\n        /* \"#utility.yul\":6371:6375   */\n      0x20\n        /* \"#utility.yul\":6365:6369   */\n      dup2\n        /* \"#utility.yul\":6361:6376   */\n      add\n        /* \"#utility.yul\":6353:6376   */\n      swap1\n      pop\n        /* \"#utility.yul\":6063:6383   */\n      swap2\n      swap1\n      pop\n      jump\t// out\n        /* \"#utility.yul\":6404:7346   */\n    tag_141:\n        /* \"#utility.yul\":6509:6514   */\n      0x00\n        /* \"#utility.yul\":6534:6624   */\n      tag_271\n        /* \"#utility.yul\":6550:6623   */\n      tag_272\n        /* \"#utility.yul\":6616:6622   */\n      dup5\n        /* \"#utility.yul\":6550:6623   */\n      tag_140\n      jump\t// in\n    tag_272:\n        /* \"#utility.yul\":6534:6624   */\n      tag_128\n      jump\t// in\n    tag_271:\n        /* \"#utility.yul\":6525:6624   */\n      swap1\n      pop\n        /* \"#utility.yul\":6644:6649   */\n      dup1\n        /* \"#utility.yul\":6673:6679   */\n      dup4\n        /* \"#utility.yul\":6666:6671   */\n      dup3\n        /* \"#utility.yul\":6659:6680   */\n      mstore\n        /* \"#utility.yul\":6707:6711   */\n      0x20\n        /* \"#utility.yul\":6700:6705   */\n      dup3\n        /* \"#utility.yul\":6696:6712   */\n      add\n        /* \"#utility.yul\":6689:6712   */\n      swap1\n      pop\n        /* \"#utility.yul\":6760:6764   */\n      0x20\n        /* \"#utility.yul\":6752:6758   */\n      dup5\n        /* \"#utility.yul\":6748:6765   */\n      mul\n        /* \"#utility.yul\":6740:6746   */\n      dup4\n        /* \"#utility.yul\":6736:6766   */\n      add\n        /* \"#utility.yul\":6789:6792   */\n      dup6\n        /* \"#utility.yul\":6781:6787   */\n      dup2\n        /* \"#utility.yul\":6778:6793   */\n      gt\n        /* \"#utility.yul\":6775:6897   */\n      iszero\n      tag_273\n      jumpi\n        /* \"#utility.yul\":6808:6887   */\n      tag_274\n      tag_130\n      jump\t// in\n    tag_274:\n        /* \"#utility.yul\":6775:6897   */\n    tag_273:\n        /* \"#utility.yul\":6923:6929   */\n      dup4\n        /* \"#utility.yul\":6906:7340   */\n    tag_275:\n        /* \"#utility.yul\":6940:6946   */\n      dup2\n        /* \"#utility.yul\":6935:6938   */\n      dup2\n        /* \"#utility.yul\":6932:6947   */\n      lt\n        /* \"#utility.yul\":6906:7340   */\n      iszero\n      tag_277\n      jumpi\n        /* \"#utility.yul\":7029:7032   */\n      dup1\n        /* \"#utility.yul\":7016:7033   */\n      calldataload\n        /* \"#utility.yul\":7065:7083   */\n      0xffffffffffffffff\n        /* \"#utility.yul\":7052:7063   */\n      dup2\n        /* \"#utility.yul\":7049:7084   */\n      gt\n        /* \"#utility.yul\":7046:7168   */\n      iszero\n      tag_278\n      jumpi\n        /* \"#utility.yul\":7087:7166   */\n      tag_279\n      tag_124\n      jump\t// in\n    tag_279:\n        /* \"#utility.yul\":7046:7168   */\n    tag_278:\n        /* \"#utility.yul\":7211:7222   */\n      dup1\n        /* \"#utility.yul\":7203:7209   */\n      dup7\n        /* \"#utility.yul\":7199:7223   */\n      add\n        /* \"#utility.yul\":7249:7295   */\n      tag_280\n        /* \"#utility.yul\":7291:7294   */\n      dup10\n        /* \"#utility.yul\":7279:7289   */\n      dup3\n        /* \"#utility.yul\":7249:7295   */\n      tag_139\n      jump\t// in\n    tag_280:\n        /* \"#utility.yul\":7244:7247   */\n      dup6\n        /* \"#utility.yul\":7237:7296   */\n      mstore\n        /* \"#utility.yul\":7325:7329   */\n      0x20\n        /* \"#utility.yul\":7320:7323   */\n      dup6\n        /* \"#utility.yul\":7316:7330   */\n      add\n        /* \"#utility.yul\":7309:7330   */\n      swap5\n      pop\n        /* \"#utility.yul\":6982:7340   */\n      pop\n      pop\n        /* \"#utility.yul\":6966:6970   */\n      0x20\n        /* \"#utility.yul\":6961:6964   */\n      dup2\n        /* \"#utility.yul\":6957:6971   */\n      add\n        /* \"#utility.yul\":6950:6971   */\n      swap1\n      pop\n        /* \"#utility.yul\":6906:7340   */\n      jump(tag_275)\n    tag_277:\n        /* \"#utility.yul\":6910:6931   */\n      pop\n        /* \"#utility.yul\":6515:7346   */\n      pop\n      pop\n        /* \"#utility.yul\":6404:7346   */\n      swap4\n      swap3\n      pop\n      pop\n      pop\n      jump\t// out\n        /* \"#utility.yul\":7367:7755   */\n    tag_142:\n        /* \"#utility.yul\":7447:7452   */\n      0x00\n        /* \"#utility.yul\":7496:7499   */\n      dup3\n        /* \"#utility.yul\":7489:7493   */\n      0x1f\n        /* \"#utility.yul\":7481:7487   */\n      dup4\n        /* \"#utility.yul\":7477:7494   */\n      add\n        /* \"#utility.yul\":7473:7500   */\n      slt\n        /* \"#utility.yul\":7463:7585   */\n      tag_282\n      jumpi\n        /* \"#utility.yul\":7504:7583   */\n      tag_283\n      tag_124\n      jump\t// in\n    tag_283:\n        /* \"#utility.yul\":7463:7585   */\n    tag_282:\n        /* \"#utility.yul\":7621:7627   */\n      dup2\n        /* \"#utility.yul\":7608:7628   */\n      calldataload\n        /* \"#utility.yul\":7646:7749   */\n      tag_284\n        /* \"#utility.yul\":7745:7748   */\n      dup5\n        /* \"#utility.yul\":7737:7743   */\n      dup3\n        /* \"#utility.yul\":7730:7734   */\n      0x20\n        /* \"#utility.yul\":7722:7728   */\n      dup7\n        /* \"#utility.yul\":7718:7735   */\n      add\n        /* \"#utility.yul\":7646:7749   */\n      tag_141\n      jump\t// in\n    tag_284:\n        /* \"#utility.yul\":7637:7749   */\n      swap2\n      pop\n        /* \"#utility.yul\":7453:7755   */\n      pop\n        /* \"#utility.yul\":7367:7755   */\n      swap3\n      swap2\n      pop\n      pop\n      jump\t// out\n        /* \"#utility.yul\":7761:7838   */\n    tag_143:\n        /* \"#utility.yul\":7798:7805   */\n      0x00\n        /* \"#utility.yul\":7827:7832   */\n      dup2\n        /* \"#utility.yul\":7816:7832   */\n      swap1\n      pop\n        /* \"#utility.yul\":7761:7838   */\n      swap2\n      swap1\n      pop\n      jump\t// out\n        /* \"#utility.yul\":7844:7966   */\n    tag_144:\n        /* \"#utility.yul\":7917:7941   */\n      tag_287\n        /* \"#utility.yul\":7935:7940   */\n      dup2\n        /* \"#utility.yul\":7917:7941   */\n      tag_143\n      jump\t// in\n    tag_287:\n        /* \"#utility.yul\":7910:7915   */\n      dup2\n        /* \"#utility.yul\":7907:7942   */\n      eq\n        /* \"#utility.yul\":7897:7960   */\n      tag_288\n      jumpi\n        /* \"#utility.yul\":7956:7957   */\n      0x00\n        /* \"#utility.yul\":7953:7954   */\n      dup1\n        /* \"#utility.yul\":7946:7958   */\n      revert\n        /* \"#utility.yul\":7897:7960   */\n    tag_288:\n        /* \"#utility.yul\":7844:7966   */\n      pop\n      jump\t// out\n        /* \"#utility.yul\":7972:8111   */\n    tag_145:\n        /* \"#utility.yul\":8018:8023   */\n      0x00\n        /* \"#utility.yul\":8056:8062   */\n      dup2\n        /* \"#utility.yul\":8043:8063   */\n      calldataload\n        /* \"#utility.yul\":8034:8063   */\n      swap1\n      pop\n        /* \"#utility.yul\":8072:8105   */\n      tag_290\n        /* \"#utility.yul\":8099:8104   */\n      dup2\n        /* \"#utility.yul\":8072:8105   */\n      tag_144\n      jump\t// in\n    tag_290:\n        /* \"#utility.yul\":7972:8111   */\n      swap3\n      swap2\n      pop\n      pop\n      jump\t// out\n        /* \"#utility.yul\":8117:9432   */\n    tag_27:\n        /* \"#utility.yul\":8254:8260   */\n      0x00\n        /* \"#utility.yul\":8262:8268   */\n      dup1\n        /* \"#utility.yul\":8270:8276   */\n      0x00\n        /* \"#utility.yul\":8278:8284   */\n      dup1\n        /* \"#utility.yul\":8286:8292   */\n      0x00\n        /* \"#utility.yul\":8335:8338   */\n      0xa0\n        /* \"#utility.yul\":8323:8332   */\n      dup7\n        /* \"#utility.yul\":8314:8321   */\n      dup9\n        /* \"#utility.yul\":8310:8333   */\n      sub\n        /* \"#utility.yul\":8306:8339   */\n      slt\n        /* \"#utility.yul\":8303:8423   */\n      iszero\n      tag_292\n      jumpi\n        /* \"#utility.yul\":8342:8421   */\n      tag_293\n      tag_117\n      jump\t// in\n    tag_293:\n        /* \"#utility.yul\":8303:8423   */\n    tag_292:\n        /* \"#utility.yul\":8490:8491   */\n      0x00\n        /* \"#utility.yul\":8479:8488   */\n      dup7\n        /* \"#utility.yul\":8475:8492   */\n      add\n        /* \"#utility.yul\":8462:8493   */\n      calldataload\n        /* \"#utility.yul\":8520:8538   */\n      0xffffffffffffffff\n        /* \"#utility.yul\":8512:8518   */\n      dup2\n        /* \"#utility.yul\":8509:8539   */\n      gt\n        /* \"#utility.yul\":8506:8623   */\n      iszero\n      tag_294\n      jumpi\n        /* \"#utility.yul\":8542:8621   */\n      tag_295\n      tag_118\n      jump\t// in\n    tag_295:\n        /* \"#utility.yul\":8506:8623   */\n    tag_294:\n        /* \"#utility.yul\":8647:8709   */\n      tag_296\n        /* \"#utility.yul\":8701:8708   */\n      dup9\n        /* \"#utility.yul\":8692:8698   */\n      dup3\n        /* \"#utility.yul\":8681:8690   */\n      dup10\n        /* \"#utility.yul\":8677:8699   */\n      add\n        /* \"#utility.yul\":8647:8709   */\n      tag_139\n      jump\t// in\n    tag_296:\n        /* \"#utility.yul\":8637:8709   */\n      swap6\n      pop\n        /* \"#utility.yul\":8433:8719   */\n      pop\n        /* \"#utility.yul\":8786:8788   */\n      0x20\n        /* \"#utility.yul\":8775:8784   */\n      dup7\n        /* \"#utility.yul\":8771:8789   */\n      add\n        /* \"#utility.yul\":8758:8790   */\n      calldataload\n        /* \"#utility.yul\":8817:8835   */\n      0xffffffffffffffff\n        /* \"#utility.yul\":8809:8815   */\n      dup2\n        /* \"#utility.yul\":8806:8836   */\n      gt\n        /* \"#utility.yul\":8803:8920   */\n      iszero\n      tag_297\n      jumpi\n        /* \"#utility.yul\":8839:8918   */\n      tag_298\n      tag_118\n      jump\t// in\n    tag_298:\n        /* \"#utility.yul\":8803:8920   */\n    tag_297:\n        /* \"#utility.yul\":8944:9031   */\n      tag_299\n        /* \"#utility.yul\":9023:9030   */\n      dup9\n        /* \"#utility.yul\":9014:9020   */\n      dup3\n        /* \"#utility.yul\":9003:9012   */\n      dup10\n        /* \"#utility.yul\":8999:9021   */\n      add\n        /* \"#utility.yul\":8944:9031   */\n      tag_142\n      jump\t// in\n    tag_299:\n        /* \"#utility.yul\":8934:9031   */\n      swap5\n      pop\n        /* \"#utility.yul\":8729:9041   */\n      pop\n        /* \"#utility.yul\":9080:9082   */\n      0x40\n        /* \"#utility.yul\":9106:9159   */\n      tag_300\n        /* \"#utility.yul\":9151:9158   */\n      dup9\n        /* \"#utility.yul\":9142:9148   */\n      dup3\n        /* \"#utility.yul\":9131:9140   */\n      dup10\n        /* \"#utility.yul\":9127:9149   */\n      add\n        /* \"#utility.yul\":9106:9159   */\n      tag_145\n      jump\t// in\n    tag_300:\n        /* \"#utility.yul\":9096:9159   */\n      swap4\n      pop\n        /* \"#utility.yul\":9051:9169   */\n      pop\n        /* \"#utility.yul\":9208:9210   */\n      0x60\n        /* \"#utility.yul\":9234:9286   */\n      tag_301\n        /* \"#utility.yul\":9278:9285   */\n      dup9\n        /* \"#utility.yul\":9269:9275   */\n      dup3\n        /* \"#utility.yul\":9258:9267   */\n      dup10\n        /* \"#utility.yul\":9254:9276   */\n      add\n        /* \"#utility.yul\":9234:9286   */\n      tag_121\n      jump\t// in\n    tag_301:\n        /* \"#utility.yul\":9224:9286   */\n      swap3\n      pop\n        /* \"#utility.yul\":9179:9296   */\n      pop\n        /* \"#utility.yul\":9335:9338   */\n      0x80\n        /* \"#utility.yul\":9362:9415   */\n      tag_302\n        /* \"#utility.yul\":9407:9414   */\n      dup9\n        /* \"#utility.yul\":9398:9404   */\n      dup3\n        /* \"#utility.yul\":9387:9396   */\n      dup10\n        /* \"#utility.yul\":9383:9405   */\n      add\n        /* \"#utility.yul\":9362:9415   */\n      tag_145\n      jump\t// in\n    tag_302:\n        /* \"#utility.yul\":9352:9415   */\n      swap2\n      pop\n        /* \"#utility.yul\":9306:9425   */\n      pop\n        /* \"#utility.yul\":8117:9432   */\n      swap3\n      swap6\n      pop\n      swap3\n      swap6\n      swap1\n      swap4\n      pop\n      jump\t// out\n        /* \"#utility.yul\":9438:9564   */\n    tag_146:\n        /* \"#utility.yul\":9475:9482   */\n      0x00\n        /* \"#utility.yul\":9515:9557   */\n      0xffffffffffffffffffffffffffffffffffffffff\n        /* \"#utility.yul\":9508:9513   */\n      dup3\n        /* \"#utility.yul\":9504:9558   */\n      and\n        /* \"#utility.yul\":9493:9558   */\n      swap1\n      pop\n        /* \"#utility.yul\":9438:9564   */\n      swap2\n      swap1\n      pop\n      jump\t// out\n        /* \"#utility.yul\":9570:9666   */\n    tag_147:\n        /* \"#utility.yul\":9607:9614   */\n      0x00\n        /* \"#utility.yul\":9636:9660   */\n      tag_305\n        /* \"#utility.yul\":9654:9659   */\n      dup3\n        /* \"#utility.yul\":9636:9660   */\n      tag_146\n      jump\t// in\n    tag_305:\n        /* \"#utility.yul\":9625:9660   */\n      swap1\n      pop\n        /* \"#utility.yul\":9570:9666   */\n      swap2\n      swap1\n      pop\n      jump\t// out\n        /* \"#utility.yul\":9672:9794   */\n    tag_148:\n        /* \"#utility.yul\":9745:9769   */\n      tag_307\n        /* \"#utility.yul\":9763:9768   */\n      dup2\n        /* \"#utility.yul\":9745:9769   */\n      tag_147\n      jump\t// in\n    tag_307:\n        /* \"#utility.yul\":9738:9743   */\n      dup2\n        /* \"#utility.yul\":9735:9770   */\n      eq\n        /* \"#utility.yul\":9725:9788   */\n      tag_308\n      jumpi\n        /* \"#utility.yul\":9784:9785   */\n      0x00\n        /* \"#utility.yul\":9781:9782   */\n      dup1\n        /* \"#utility.yul\":9774:9786   */\n      revert\n        /* \"#utility.yul\":9725:9788   */\n    tag_308:\n        /* \"#utility.yul\":9672:9794   */\n      pop\n      jump\t// out\n        /* \"#utility.yul\":9800:9939   */\n    tag_149:\n        /* \"#utility.yul\":9846:9851   */\n      0x00\n        /* \"#utility.yul\":9884:9890   */\n      dup2\n        /* \"#utility.yul\":9871:9891   */\n      calldataload\n        /* \"#utility.yul\":9862:9891   */\n      swap1\n      pop\n        /* \"#utility.yul\":9900:9933   */\n      tag_310\n        /* \"#utility.yul\":9927:9932   */\n      dup2\n        /* \"#utility.yul\":9900:9933   */\n      tag_148\n      jump\t// in\n    tag_310:\n        /* \"#utility.yul\":9800:9939   */\n      swap3\n      swap2\n      pop\n      pop\n      jump\t// out\n        /* \"#utility.yul\":9945:10560   */\n    tag_36:\n        /* \"#utility.yul\":10020:10026   */\n      0x00\n        /* \"#utility.yul\":10028:10034   */\n      dup1\n        /* \"#utility.yul\":10036:10042   */\n      0x00\n        /* \"#utility.yul\":10085:10087   */\n      0x60\n        /* \"#utility.yul\":10073:10082   */\n      dup5\n        /* \"#utility.yul\":10064:10071   */\n      dup7\n        /* \"#utility.yul\":10060:10083   */\n      sub\n        /* \"#utility.yul\":10056:10088   */\n      slt\n        /* \"#utility.yul\":10053:10172   */\n      iszero\n      tag_312\n      jumpi\n        /* \"#utility.yul\":10091:10170   */\n      tag_313\n      tag_117\n      jump\t// in\n    tag_313:\n        /* \"#utility.yul\":10053:10172   */\n    tag_312:\n        /* \"#utility.yul\":10211:10212   */\n      0x00\n        /* \"#utility.yul\":10236:10288   */\n      tag_314\n        /* \"#utility.yul\":10280:10287   */\n      dup7\n        /* \"#utility.yul\":10271:10277   */\n      dup3\n        /* \"#utility.yul\":10260:10269   */\n      dup8\n        /* \"#utility.yul\":10256:10278   */\n      add\n        /* \"#utility.yul\":10236:10288   */\n      tag_121\n      jump\t// in\n    tag_314:\n        /* \"#utility.yul\":10226:10288   */\n      swap4\n      pop\n        /* \"#utility.yul\":10182:10298   */\n      pop\n        /* \"#utility.yul\":10337:10339   */\n      0x20\n        /* \"#utility.yul\":10363:10416   */\n      tag_315\n        /* \"#utility.yul\":10408:10415   */\n      dup7\n        /* \"#utility.yul\":10399:10405   */\n      dup3\n        /* \"#utility.yul\":10388:10397   */\n      dup8\n        /* \"#utility.yul\":10384:10406   */\n      add\n        /* \"#utility.yul\":10363:10416   */\n      tag_149\n      jump\t// in\n    tag_315:\n        /* \"#utility.yul\":10353:10416   */\n      swap3\n      pop\n        /* \"#utility.yul\":10308:10426   */\n      pop\n        /* \"#utility.yul\":10465:10467   */\n      0x40\n        /* \"#utility.yul\":10491:10543   */\n      tag_316\n        /* \"#utility.yul\":10535:10542   */\n      dup7\n        /* \"#utility.yul\":10526:10532   */\n      dup3\n        /* \"#utility.yul\":10515:10524   */\n      dup8\n        /* \"#utility.yul\":10511:10533   */\n      add\n        /* \"#utility.yul\":10491:10543   */\n      tag_121\n      jump\t// in\n    tag_316:\n        /* \"#utility.yul\":10481:10543   */\n      swap2\n      pop\n        /* \"#utility.yul\":10436:10553   */\n      pop\n        /* \"#utility.yul\":9945:10560   */\n      swap3\n      pop\n      swap3\n      pop\n      swap3\n      jump\t// out\n        /* \"#utility.yul\":10566:10626   */\n    tag_150:\n        /* \"#utility.yul\":10594:10597   */\n      0x00\n        /* \"#utility.yul\":10615:10620   */\n      dup2\n        /* \"#utility.yul\":10608:10620   */\n      swap1\n      pop\n        /* \"#utility.yul\":10566:10626   */\n      swap2\n      swap1\n      pop\n      jump\t// out\n        /* \"#utility.yul\":10632:10774   */\n    tag_151:\n        /* \"#utility.yul\":10682:10691   */\n      0x00\n        /* \"#utility.yul\":10715:10768   */\n      tag_319\n        /* \"#utility.yul\":10733:10767   */\n      tag_320\n        /* \"#utility.yul\":10742:10766   */\n      tag_321\n        /* \"#utility.yul\":10760:10765   */\n      dup5\n        /* \"#utility.yul\":10742:10766   */\n      tag_146\n      jump\t// in\n    tag_321:\n        /* \"#utility.yul\":10733:10767   */\n      tag_150\n      jump\t// in\n    tag_320:\n        /* \"#utility.yul\":10715:10768   */\n      tag_146\n      jump\t// in\n    tag_319:\n        /* \"#utility.yul\":10702:10768   */\n      swap1\n      pop\n        /* \"#utility.yul\":10632:10774   */\n      swap2\n      swap1\n      pop\n      jump\t// out\n        /* \"#utility.yul\":10780:10906   */\n    tag_152:\n        /* \"#utility.yul\":10830:10839   */\n      0x00\n        /* \"#utility.yul\":10863:10900   */\n      tag_323\n        /* \"#utility.yul\":10894:10899   */\n      dup3\n        /* \"#utility.yul\":10863:10900   */\n      tag_151\n      jump\t// in\n    tag_323:\n        /* \"#utility.yul\":10850:10900   */\n      swap1\n      pop\n        /* \"#utility.yul\":10780:10906   */\n      swap2\n      swap1\n      pop\n      jump\t// out\n        /* \"#utility.yul\":10912:11062   */\n    tag_153:\n        /* \"#utility.yul\":10986:10995   */\n      0x00\n        /* \"#utility.yul\":11019:11056   */\n      tag_325\n        /* \"#utility.yul\":11050:11055   */\n      dup3\n        /* \"#utility.yul\":11019:11056   */\n      tag_152\n      jump\t// in\n    tag_325:\n        /* \"#utility.yul\":11006:11056   */\n      swap1\n      pop\n        /* \"#utility.yul\":10912:11062   */\n      swap2\n      swap1\n      pop\n      jump\t// out\n        /* \"#utility.yul\":11068:11247   */\n    tag_154:\n        /* \"#utility.yul\":11179:11240   */\n      tag_327\n        /* \"#utility.yul\":11234:11239   */\n      dup2\n        /* \"#utility.yul\":11179:11240   */\n      tag_153\n      jump\t// in\n    tag_327:\n        /* \"#utility.yul\":11174:11177   */\n      dup3\n        /* \"#utility.yul\":11167:11241   */\n      mstore\n        /* \"#utility.yul\":11068:11247   */\n      pop\n      pop\n      jump\t// out\n        /* \"#utility.yul\":11253:11523   */\n    tag_46:\n        /* \"#utility.yul\":11370:11374   */\n      0x00\n        /* \"#utility.yul\":11408:11410   */\n      0x20\n        /* \"#utility.yul\":11397:11406   */\n      dup3\n        /* \"#utility.yul\":11393:11411   */\n      add\n        /* \"#utility.yul\":11385:11411   */\n      swap1\n      pop\n        /* \"#utility.yul\":11421:11516   */\n      tag_329\n        /* \"#utility.yul\":11513:11514   */\n      0x00\n        /* \"#utility.yul\":11502:11511   */\n      dup4\n        /* \"#utility.yul\":11498:11515   */\n      add\n        /* \"#utility.yul\":11489:11495   */\n      dup5\n        /* \"#utility.yul\":11421:11516   */\n      tag_154\n      jump\t// in\n    tag_329:\n        /* \"#utility.yul\":11253:11523   */\n      swap3\n      swap2\n      pop\n      pop\n      jump\t// out\n        /* \"#utility.yul\":11529:11858   */\n    tag_50:\n        /* \"#utility.yul\":11588:11594   */\n      0x00\n        /* \"#utility.yul\":11637:11639   */\n      0x20\n        /* \"#utility.yul\":11625:11634   */\n      dup3\n        /* \"#utility.yul\":11616:11623   */\n      dup5\n        /* \"#utility.yul\":11612:11635   */\n      sub\n        /* \"#utility.yul\":11608:11640   */\n      slt\n        /* \"#utility.yul\":11605:11724   */\n      iszero\n      tag_331\n      jumpi\n        /* \"#utility.yul\":11643:11722   */\n      tag_332\n      tag_117\n      jump\t// in\n    tag_332:\n        /* \"#utility.yul\":11605:11724   */\n    tag_331:\n        /* \"#utility.yul\":11763:11764   */\n      0x00\n        /* \"#utility.yul\":11788:11841   */\n      tag_333\n        /* \"#utility.yul\":11833:11840   */\n      dup5\n        /* \"#utility.yul\":11824:11830   */\n      dup3\n        /* \"#utility.yul\":11813:11822   */\n      dup6\n        /* \"#utility.yul\":11809:11831   */\n      add\n        /* \"#utility.yul\":11788:11841   */\n      tag_132\n      jump\t// in\n    tag_333:\n        /* \"#utility.yul\":11778:11841   */\n      swap2\n      pop\n        /* \"#utility.yul\":11734:11851   */\n      pop\n        /* \"#utility.yul\":11529:11858   */\n      swap3\n      swap2\n      pop\n      pop\n      jump\t// out\n        /* \"#utility.yul\":11864:11978   */\n    tag_155:\n        /* \"#utility.yul\":11931:11937   */\n      0x00\n        /* \"#utility.yul\":11965:11970   */\n      dup2\n        /* \"#utility.yul\":11959:11971   */\n      mload\n        /* \"#utility.yul\":11949:11971   */\n      swap1\n      pop\n        /* \"#utility.yul\":11864:11978   */\n      swap2\n      swap1\n      pop\n      jump\t// out\n        /* \"#utility.yul\":11984:12168   */\n    tag_156:\n        /* \"#utility.yul\":12083:12094   */\n      0x00\n        /* \"#utility.yul\":12117:12123   */\n      dup3\n        /* \"#utility.yul\":12112:12115   */\n      dup3\n        /* \"#utility.yul\":12105:12124   */\n      mstore\n        /* \"#utility.yul\":12157:12161   */\n      0x20\n        /* \"#utility.yul\":12152:12155   */\n      dup3\n        /* \"#utility.yul\":12148:12162   */\n      add\n        /* \"#utility.yul\":12133:12162   */\n      swap1\n      pop\n        /* \"#utility.yul\":11984:12168   */\n      swap3\n      swap2\n      pop\n      pop\n      jump\t// out\n        /* \"#utility.yul\":12174:12306   */\n    tag_157:\n        /* \"#utility.yul\":12241:12245   */\n      0x00\n        /* \"#utility.yul\":12264:12267   */\n      dup2\n        /* \"#utility.yul\":12256:12267   */\n      swap1\n      pop\n        /* \"#utility.yul\":12294:12298   */\n      0x20\n        /* \"#utility.yul\":12289:12292   */\n      dup3\n        /* \"#utility.yul\":12285:12299   */\n      add\n        /* \"#utility.yul\":12277:12299   */\n      swap1\n      pop\n        /* \"#utility.yul\":12174:12306   */\n      swap2\n      swap1\n      pop\n      jump\t// out\n        /* \"#utility.yul\":12312:12420   */\n    tag_158:\n        /* \"#utility.yul\":12389:12413   */\n      tag_338\n        /* \"#utility.yul\":12407:12412   */\n      dup2\n        /* \"#utility.yul\":12389:12413   */\n      tag_122\n      jump\t// in\n    tag_338:\n        /* \"#utility.yul\":12384:12387   */\n      dup3\n        /* \"#utility.yul\":12377:12414   */\n      mstore\n        /* \"#utility.yul\":12312:12420   */\n      pop\n      pop\n      jump\t// out\n        /* \"#utility.yul\":12426:12605   */\n    tag_159:\n        /* \"#utility.yul\":12495:12505   */\n      0x00\n        /* \"#utility.yul\":12516:12562   */\n      tag_340\n        /* \"#utility.yul\":12558:12561   */\n      dup4\n        /* \"#utility.yul\":12550:12556   */\n      dup4\n        /* \"#utility.yul\":12516:12562   */\n      tag_158\n      jump\t// in\n    tag_340:\n        /* \"#utility.yul\":12594:12598   */\n      0x20\n        /* \"#utility.yul\":12589:12592   */\n      dup4\n        /* \"#utility.yul\":12585:12599   */\n      add\n        /* \"#utility.yul\":12571:12599   */\n      swap1\n      pop\n        /* \"#utility.yul\":12426:12605   */\n      swap3\n      swap2\n      pop\n      pop\n      jump\t// out\n        /* \"#utility.yul\":12611:12724   */\n    tag_160:\n        /* \"#utility.yul\":12681:12685   */\n      0x00\n        /* \"#utility.yul\":12713:12717   */\n      0x20\n        /* \"#utility.yul\":12708:12711   */\n      dup3\n        /* \"#utility.yul\":12704:12718   */\n      add\n        /* \"#utility.yul\":12696:12718   */\n      swap1\n      pop\n        /* \"#utility.yul\":12611:12724   */\n      swap2\n      swap1\n      pop\n      jump\t// out\n        /* \"#utility.yul\":12760:13492   */\n    tag_161:\n        /* \"#utility.yul\":12879:12882   */\n      0x00\n        /* \"#utility.yul\":12908:12962   */\n      tag_343\n        /* \"#utility.yul\":12956:12961   */\n      dup3\n        /* \"#utility.yul\":12908:12962   */\n      tag_155\n      jump\t// in\n    tag_343:\n        /* \"#utility.yul\":12978:13064   */\n      tag_344\n        /* \"#utility.yul\":13057:13063   */\n      dup2\n        /* \"#utility.yul\":13052:13055   */\n      dup6\n        /* \"#utility.yul\":12978:13064   */\n      tag_156\n      jump\t// in\n    tag_344:\n        /* \"#utility.yul\":12971:13064   */\n      swap4\n      pop\n        /* \"#utility.yul\":13088:13144   */\n      tag_345\n        /* \"#utility.yul\":13138:13143   */\n      dup4\n        /* \"#utility.yul\":13088:13144   */\n      tag_157\n      jump\t// in\n    tag_345:\n        /* \"#utility.yul\":13167:13174   */\n      dup1\n        /* \"#utility.yul\":13198:13199   */\n      0x00\n        /* \"#utility.yul\":13183:13467   */\n    tag_346:\n        /* \"#utility.yul\":13208:13214   */\n      dup4\n        /* \"#utility.yul\":13205:13206   */\n      dup2\n        /* \"#utility.yul\":13202:13215   */\n      lt\n        /* \"#utility.yul\":13183:13467   */\n      iszero\n      tag_348\n      jumpi\n        /* \"#utility.yul\":13284:13290   */\n      dup2\n        /* \"#utility.yul\":13278:13291   */\n      mload\n        /* \"#utility.yul\":13311:13374   */\n      tag_349\n        /* \"#utility.yul\":13370:13373   */\n      dup9\n        /* \"#utility.yul\":13355:13368   */\n      dup3\n        /* \"#utility.yul\":13311:13374   */\n      tag_159\n      jump\t// in\n    tag_349:\n        /* \"#utility.yul\":13304:13374   */\n      swap8\n      pop\n        /* \"#utility.yul\":13397:13457   */\n      tag_350\n        /* \"#utility.yul\":13450:13456   */\n      dup4\n        /* \"#utility.yul\":13397:13457   */\n      tag_160\n      jump\t// in\n    tag_350:\n        /* \"#utility.yul\":13387:13457   */\n      swap3\n      pop\n        /* \"#utility.yul\":13243:13467   */\n      pop\n        /* \"#utility.yul\":13230:13231   */\n      0x01\n        /* \"#utility.yul\":13227:13228   */\n      dup2\n        /* \"#utility.yul\":13223:13232   */\n      add\n        /* \"#utility.yul\":13218:13232   */\n      swap1\n      pop\n        /* \"#utility.yul\":13183:13467   */\n      jump(tag_346)\n    tag_348:\n        /* \"#utility.yul\":13187:13201   */\n      pop\n        /* \"#utility.yul\":13483:13486   */\n      dup6\n        /* \"#utility.yul\":13476:13486   */\n      swap4\n      pop\n        /* \"#utility.yul\":12884:13492   */\n      pop\n      pop\n      pop\n        /* \"#utility.yul\":12760:13492   */\n      swap3\n      swap2\n      pop\n      pop\n      jump\t// out\n        /* \"#utility.yul\":13498:13871   */\n    tag_57:\n        /* \"#utility.yul\":13641:13645   */\n      0x00\n        /* \"#utility.yul\":13679:13681   */\n      0x20\n        /* \"#utility.yul\":13668:13677   */\n      dup3\n        /* \"#utility.yul\":13664:13682   */\n      add\n        /* \"#utility.yul\":13656:13682   */\n      swap1\n      pop\n        /* \"#utility.yul\":13728:13737   */\n      dup2\n        /* \"#utility.yul\":13722:13726   */\n      dup2\n        /* \"#utility.yul\":13718:13738   */\n      sub\n        /* \"#utility.yul\":13714:13715   */\n      0x00\n        /* \"#utility.yul\":13703:13712   */\n      dup4\n        /* \"#utility.yul\":13699:13716   */\n      add\n        /* \"#utility.yul\":13692:13739   */\n      mstore\n        /* \"#utility.yul\":13756:13864   */\n      tag_352\n        /* \"#utility.yul\":13859:13863   */\n      dup2\n        /* \"#utility.yul\":13850:13856   */\n      dup5\n        /* \"#utility.yul\":13756:13864   */\n      tag_161\n      jump\t// in\n    tag_352:\n        /* \"#utility.yul\":13748:13864   */\n      swap1\n      pop\n        /* \"#utility.yul\":13498:13871   */\n      swap3\n      swap2\n      pop\n      pop\n      jump\t// out\n        /* \"#utility.yul\":13877:13992   */\n    tag_162:\n        /* \"#utility.yul\":13962:13985   */\n      tag_354\n        /* \"#utility.yul\":13979:13984   */\n      dup2\n        /* \"#utility.yul\":13962:13985   */\n      tag_119\n      jump\t// in\n    tag_354:\n        /* \"#utility.yul\":13957:13960   */\n      dup3\n        /* \"#utility.yul\":13950:13986   */\n      mstore\n        /* \"#utility.yul\":13877:13992   */\n      pop\n      pop\n      jump\t// out\n        /* \"#utility.yul\":13998:14083   */\n    tag_163:\n        /* \"#utility.yul\":14043:14050   */\n      0x00\n        /* \"#utility.yul\":14072:14077   */\n      dup2\n        /* \"#utility.yul\":14061:14077   */\n      swap1\n      pop\n        /* \"#utility.yul\":13998:14083   */\n      swap2\n      swap1\n      pop\n      jump\t// out\n        /* \"#utility.yul\":14089:14247   */\n    tag_164:\n        /* \"#utility.yul\":14147:14156   */\n      0x00\n        /* \"#utility.yul\":14180:14241   */\n      tag_357\n        /* \"#utility.yul\":14198:14240   */\n      tag_358\n        /* \"#utility.yul\":14207:14239   */\n      tag_359\n        /* \"#utility.yul\":14233:14238   */\n      dup5\n        /* \"#utility.yul\":14207:14239   */\n      tag_163\n      jump\t// in\n    tag_359:\n        /* \"#utility.yul\":14198:14240   */\n      tag_150\n      jump\t// in\n    tag_358:\n        /* \"#utility.yul\":14180:14241   */\n      tag_122\n      jump\t// in\n    tag_357:\n        /* \"#utility.yul\":14167:14241   */\n      swap1\n      pop\n        /* \"#utility.yul\":14089:14247   */\n      swap2\n      swap1\n      pop\n      jump\t// out\n        /* \"#utility.yul\":14253:14400   */\n    tag_165:\n        /* \"#utility.yul\":14348:14393   */\n      tag_361\n        /* \"#utility.yul\":14387:14392   */\n      dup2\n        /* \"#utility.yul\":14348:14393   */\n      tag_164\n      jump\t// in\n    tag_361:\n        /* \"#utility.yul\":14343:14346   */\n      dup3\n        /* \"#utility.yul\":14336:14394   */\n      mstore\n        /* \"#utility.yul\":14253:14400   */\n      pop\n      pop\n      jump\t// out\n        /* \"#utility.yul\":14406:14860   */\n    tag_60:\n        /* \"#utility.yul\":14561:14565   */\n      0x00\n        /* \"#utility.yul\":14599:14601   */\n      0x60\n        /* \"#utility.yul\":14588:14597   */\n      dup3\n        /* \"#utility.yul\":14584:14602   */\n      add\n        /* \"#utility.yul\":14576:14602   */\n      swap1\n      pop\n        /* \"#utility.yul\":14612:14681   */\n      tag_363\n        /* \"#utility.yul\":14678:14679   */\n      0x00\n        /* \"#utility.yul\":14667:14676   */\n      dup4\n        /* \"#utility.yul\":14663:14680   */\n      add\n        /* \"#utility.yul\":14654:14660   */\n      dup7\n        /* \"#utility.yul\":14612:14681   */\n      tag_162\n      jump\t// in\n    tag_363:\n        /* \"#utility.yul\":14691:14771   */\n      tag_364\n        /* \"#utility.yul\":14767:14769   */\n      0x20\n        /* \"#utility.yul\":14756:14765   */\n      dup4\n        /* \"#utility.yul\":14752:14770   */\n      add\n        /* \"#utility.yul\":14743:14749   */\n      dup6\n        /* \"#utility.yul\":14691:14771   */\n      tag_165\n      jump\t// in\n    tag_364:\n        /* \"#utility.yul\":14781:14853   */\n      tag_365\n        /* \"#utility.yul\":14849:14851   */\n      0x40\n        /* \"#utility.yul\":14838:14847   */\n      dup4\n        /* \"#utility.yul\":14834:14852   */\n      add\n        /* \"#utility.yul\":14825:14831   */\n      dup5\n        /* \"#utility.yul\":14781:14853   */\n      tag_123\n      jump\t// in\n    tag_365:\n        /* \"#utility.yul\":14406:14860   */\n      swap5\n      swap4\n      pop\n      pop\n      pop\n      pop\n      jump\t// out\n        /* \"#utility.yul\":14866:15009   */\n    tag_166:\n        /* \"#utility.yul\":14923:14928   */\n      0x00\n        /* \"#utility.yul\":14954:14960   */\n      dup2\n        /* \"#utility.yul\":14948:14961   */\n      mload\n        /* \"#utility.yul\":14939:14961   */\n      swap1\n      pop\n        /* \"#utility.yul\":14970:15003   */\n      tag_367\n        /* \"#utility.yul\":14997:15002   */\n      dup2\n        /* \"#utility.yul\":14970:15003   */\n      tag_131\n      jump\t// in\n    tag_367:\n        /* \"#utility.yul\":14866:15009   */\n      swap3\n      swap2\n      pop\n      pop\n      jump\t// out\n        /* \"#utility.yul\":15015:15522   */\n    tag_64:\n        /* \"#utility.yul\":15094:15100   */\n      0x00\n        /* \"#utility.yul\":15102:15108   */\n      dup1\n        /* \"#utility.yul\":15151:15153   */\n      0x40\n        /* \"#utility.yul\":15139:15148   */\n      dup4\n        /* \"#utility.yul\":15130:15137   */\n      dup6\n        /* \"#utility.yul\":15126:15149   */\n      sub\n        /* \"#utility.yul\":15122:15154   */\n      slt\n        /* \"#utility.yul\":15119:15238   */\n      iszero\n      tag_369\n      jumpi\n        /* \"#utility.yul\":15157:15236   */\n      tag_370\n      tag_117\n      jump\t// in\n    tag_370:\n        /* \"#utility.yul\":15119:15238   */\n    tag_369:\n        /* \"#utility.yul\":15277:15278   */\n      0x00\n        /* \"#utility.yul\":15302:15366   */\n      tag_371\n        /* \"#utility.yul\":15358:15365   */\n      dup6\n        /* \"#utility.yul\":15349:15355   */\n      dup3\n        /* \"#utility.yul\":15338:15347   */\n      dup7\n        /* \"#utility.yul\":15334:15356   */\n      add\n        /* \"#utility.yul\":15302:15366   */\n      tag_166\n      jump\t// in\n    tag_371:\n        /* \"#utility.yul\":15292:15366   */\n      swap3\n      pop\n        /* \"#utility.yul\":15248:15376   */\n      pop\n        /* \"#utility.yul\":15415:15417   */\n      0x20\n        /* \"#utility.yul\":15441:15505   */\n      tag_372\n        /* \"#utility.yul\":15497:15504   */\n      dup6\n        /* \"#utility.yul\":15488:15494   */\n      dup3\n        /* \"#utility.yul\":15477:15486   */\n      dup7\n        /* \"#utility.yul\":15473:15495   */\n      add\n        /* \"#utility.yul\":15441:15505   */\n      tag_166\n      jump\t// in\n    tag_372:\n        /* \"#utility.yul\":15431:15505   */\n      swap2\n      pop\n        /* \"#utility.yul\":15386:15515   */\n      pop\n        /* \"#utility.yul\":15015:15522   */\n      swap3\n      pop\n      swap3\n      swap1\n      pop\n      jump\t// out\n        /* \"#utility.yul\":15528:15697   */\n    tag_167:\n        /* \"#utility.yul\":15612:15623   */\n      0x00\n        /* \"#utility.yul\":15646:15652   */\n      dup3\n        /* \"#utility.yul\":15641:15644   */\n      dup3\n        /* \"#utility.yul\":15634:15653   */\n      mstore\n        /* \"#utility.yul\":15686:15690   */\n      0x20\n        /* \"#utility.yul\":15681:15684   */\n      dup3\n        /* \"#utility.yul\":15677:15691   */\n      add\n        /* \"#utility.yul\":15662:15691   */\n      swap1\n      pop\n        /* \"#utility.yul\":15528:15697   */\n      swap3\n      swap2\n      pop\n      pop\n      jump\t// out\n        /* \"#utility.yul\":15703:15929   */\n    tag_168:\n        /* \"#utility.yul\":15843:15877   */\n      0x4172726179206d75737420636f6e7461696e206174206c65617374206f6e6520\n        /* \"#utility.yul\":15839:15840   */\n      0x00\n        /* \"#utility.yul\":15831:15837   */\n      dup3\n        /* \"#utility.yul\":15827:15841   */\n      add\n        /* \"#utility.yul\":15820:15878   */\n      mstore\n        /* \"#utility.yul\":15912:15921   */\n      0x656c656d656e7400000000000000000000000000000000000000000000000000\n        /* \"#utility.yul\":15907:15909   */\n      0x20\n        /* \"#utility.yul\":15899:15905   */\n      dup3\n        /* \"#utility.yul\":15895:15910   */\n      add\n        /* \"#utility.yul\":15888:15922   */\n      mstore\n        /* \"#utility.yul\":15703:15929   */\n      pop\n      jump\t// out\n        /* \"#utility.yul\":15935:16301   */\n    tag_169:\n        /* \"#utility.yul\":16077:16080   */\n      0x00\n        /* \"#utility.yul\":16098:16165   */\n      tag_376\n        /* \"#utility.yul\":16162:16164   */\n      0x27\n        /* \"#utility.yul\":16157:16160   */\n      dup4\n        /* \"#utility.yul\":16098:16165   */\n      tag_167\n      jump\t// in\n    tag_376:\n        /* \"#utility.yul\":16091:16165   */\n      swap2\n      pop\n        /* \"#utility.yul\":16174:16267   */\n      tag_377\n        /* \"#utility.yul\":16263:16266   */\n      dup3\n        /* \"#utility.yul\":16174:16267   */\n      tag_168\n      jump\t// in\n    tag_377:\n        /* \"#utility.yul\":16292:16294   */\n      0x40\n        /* \"#utility.yul\":16287:16290   */\n      dup3\n        /* \"#utility.yul\":16283:16295   */\n      add\n        /* \"#utility.yul\":16276:16295   */\n      swap1\n      pop\n        /* \"#utility.yul\":15935:16301   */\n      swap2\n      swap1\n      pop\n      jump\t// out\n        /* \"#utility.yul\":16307:16726   */\n    tag_68:\n        /* \"#utility.yul\":16473:16477   */\n      0x00\n        /* \"#utility.yul\":16511:16513   */\n      0x20\n        /* \"#utility.yul\":16500:16509   */\n      dup3\n        /* \"#utility.yul\":16496:16514   */\n      add\n        /* \"#utility.yul\":16488:16514   */\n      swap1\n      pop\n        /* \"#utility.yul\":16560:16569   */\n      dup2\n        /* \"#utility.yul\":16554:16558   */\n      dup2\n        /* \"#utility.yul\":16550:16570   */\n      sub\n        /* \"#utility.yul\":16546:16547   */\n      0x00\n        /* \"#utility.yul\":16535:16544   */\n      dup4\n        /* \"#utility.yul\":16531:16548   */\n      add\n        /* \"#utility.yul\":16524:16571   */\n      mstore\n        /* \"#utility.yul\":16588:16719   */\n      tag_379\n        /* \"#utility.yul\":16714:16718   */\n      dup2\n        /* \"#utility.yul\":16588:16719   */\n      tag_169\n      jump\t// in\n    tag_379:\n        /* \"#utility.yul\":16580:16719   */\n      swap1\n      pop\n        /* \"#utility.yul\":16307:16726   */\n      swap2\n      swap1\n      pop\n      jump\t// out\n        /* \"#utility.yul\":16732:16912   */\n    tag_74:\n        /* \"#utility.yul\":16780:16857   */\n      0x4e487b7100000000000000000000000000000000000000000000000000000000\n        /* \"#utility.yul\":16777:16778   */\n      0x00\n        /* \"#utility.yul\":16770:16858   */\n      mstore\n        /* \"#utility.yul\":16877:16881   */\n      0x32\n        /* \"#utility.yul\":16874:16875   */\n      0x04\n        /* \"#utility.yul\":16867:16882   */\n      mstore\n        /* \"#utility.yul\":16901:16905   */\n      0x24\n        /* \"#utility.yul\":16898:16899   */\n      0x00\n        /* \"#utility.yul\":16891:16906   */\n      revert\n        /* \"#utility.yul\":16918:17098   */\n    tag_170:\n        /* \"#utility.yul\":16966:17043   */\n      0x4e487b7100000000000000000000000000000000000000000000000000000000\n        /* \"#utility.yul\":16963:16964   */\n      0x00\n        /* \"#utility.yul\":16956:17044   */\n      mstore\n        /* \"#utility.yul\":17063:17067   */\n      0x11\n        /* \"#utility.yul\":17060:17061   */\n      0x04\n        /* \"#utility.yul\":17053:17068   */\n      mstore\n        /* \"#utility.yul\":17087:17091   */\n      0x24\n        /* \"#utility.yul\":17084:17085   */\n      0x00\n        /* \"#utility.yul\":17077:17092   */\n      revert\n        /* \"#utility.yul\":17104:17295   */\n    tag_76:\n        /* \"#utility.yul\":17144:17147   */\n      0x00\n        /* \"#utility.yul\":17163:17183   */\n      tag_383\n        /* \"#utility.yul\":17181:17182   */\n      dup3\n        /* \"#utility.yul\":17163:17183   */\n      tag_122\n      jump\t// in\n    tag_383:\n        /* \"#utility.yul\":17158:17183   */\n      swap2\n      pop\n        /* \"#utility.yul\":17197:17217   */\n      tag_384\n        /* \"#utility.yul\":17215:17216   */\n      dup4\n        /* \"#utility.yul\":17197:17217   */\n      tag_122\n      jump\t// in\n    tag_384:\n        /* \"#utility.yul\":17192:17217   */\n      swap3\n      pop\n        /* \"#utility.yul\":17240:17241   */\n      dup3\n        /* \"#utility.yul\":17237:17238   */\n      dup3\n        /* \"#utility.yul\":17233:17242   */\n      add\n        /* \"#utility.yul\":17226:17242   */\n      swap1\n      pop\n        /* \"#utility.yul\":17261:17264   */\n      dup1\n        /* \"#utility.yul\":17258:17259   */\n      dup3\n        /* \"#utility.yul\":17255:17265   */\n      gt\n        /* \"#utility.yul\":17252:17288   */\n      iszero\n      tag_385\n      jumpi\n        /* \"#utility.yul\":17268:17286   */\n      tag_386\n      tag_170\n      jump\t// in\n    tag_386:\n        /* \"#utility.yul\":17252:17288   */\n    tag_385:\n        /* \"#utility.yul\":17104:17295   */\n      swap3\n      swap2\n      pop\n      pop\n      jump\t// out\n        /* \"#utility.yul\":17301:17471   */\n    tag_171:\n        /* \"#utility.yul\":17441:17463   */\n      0x4f6e6c792072656c6179657220616c6c6f776564000000000000000000000000\n        /* \"#utility.yul\":17437:17438   */\n      0x00\n        /* \"#utility.yul\":17429:17435   */\n      dup3\n        /* \"#utility.yul\":17425:17439   */\n      add\n        /* \"#utility.yul\":17418:17464   */\n      mstore\n        /* \"#utility.yul\":17301:17471   */\n      pop\n      jump\t// out\n        /* \"#utility.yul\":17477:17843   */\n    tag_172:\n        /* \"#utility.yul\":17619:17622   */\n      0x00\n        /* \"#utility.yul\":17640:17707   */\n      tag_389\n        /* \"#utility.yul\":17704:17706   */\n      0x14\n        /* \"#utility.yul\":17699:17702   */\n      dup4\n        /* \"#utility.yul\":17640:17707   */\n      tag_167\n      jump\t// in\n    tag_389:\n        /* \"#utility.yul\":17633:17707   */\n      swap2\n      pop\n        /* \"#utility.yul\":17716:17809   */\n      tag_390\n        /* \"#utility.yul\":17805:17808   */\n      dup3\n        /* \"#utility.yul\":17716:17809   */\n      tag_171\n      jump\t// in\n    tag_390:\n        /* \"#utility.yul\":17834:17836   */\n      0x20\n        /* \"#utility.yul\":17829:17832   */\n      dup3\n        /* \"#utility.yul\":17825:17837   */\n      add\n        /* \"#utility.yul\":17818:17837   */\n      swap1\n      pop\n        /* \"#utility.yul\":17477:17843   */\n      swap2\n      swap1\n      pop\n      jump\t// out\n        /* \"#utility.yul\":17849:18268   */\n    tag_80:\n        /* \"#utility.yul\":18015:18019   */\n      0x00\n        /* \"#utility.yul\":18053:18055   */\n      0x20\n        /* \"#utility.yul\":18042:18051   */\n      dup3\n        /* \"#utility.yul\":18038:18056   */\n      add\n        /* \"#utility.yul\":18030:18056   */\n      swap1\n      pop\n        /* \"#utility.yul\":18102:18111   */\n      dup2\n        /* \"#utility.yul\":18096:18100   */\n      dup2\n        /* \"#utility.yul\":18092:18112   */\n      sub\n        /* \"#utility.yul\":18088:18089   */\n      0x00\n        /* \"#utility.yul\":18077:18086   */\n      dup4\n        /* \"#utility.yul\":18073:18090   */\n      add\n        /* \"#utility.yul\":18066:18113   */\n      mstore\n        /* \"#utility.yul\":18130:18261   */\n      tag_392\n        /* \"#utility.yul\":18256:18260   */\n      dup2\n        /* \"#utility.yul\":18130:18261   */\n      tag_172\n      jump\t// in\n    tag_392:\n        /* \"#utility.yul\":18122:18261   */\n      swap1\n      pop\n        /* \"#utility.yul\":17849:18268   */\n      swap2\n      swap1\n      pop\n      jump\t// out\n        /* \"#utility.yul\":18291:19023   */\n    tag_173:\n        /* \"#utility.yul\":18398:18403   */\n      0x00\n        /* \"#utility.yul\":18423:18504   */\n      tag_394\n        /* \"#utility.yul\":18439:18503   */\n      tag_395\n        /* \"#utility.yul\":18496:18502   */\n      dup5\n        /* \"#utility.yul\":18439:18503   */\n      tag_129\n      jump\t// in\n    tag_395:\n        /* \"#utility.yul\":18423:18504   */\n      tag_128\n      jump\t// in\n    tag_394:\n        /* \"#utility.yul\":18414:18504   */\n      swap1\n      pop\n        /* \"#utility.yul\":18524:18529   */\n      dup1\n        /* \"#utility.yul\":18553:18559   */\n      dup4\n        /* \"#utility.yul\":18546:18551   */\n      dup3\n        /* \"#utility.yul\":18539:18560   */\n      mstore\n        /* \"#utility.yul\":18587:18591   */\n      0x20\n        /* \"#utility.yul\":18580:18585   */\n      dup3\n        /* \"#utility.yul\":18576:18592   */\n      add\n        /* \"#utility.yul\":18569:18592   */\n      swap1\n      pop\n        /* \"#utility.yul\":18640:18644   */\n      0x20\n        /* \"#utility.yul\":18632:18638   */\n      dup5\n        /* \"#utility.yul\":18628:18645   */\n      mul\n        /* \"#utility.yul\":18620:18626   */\n      dup4\n        /* \"#utility.yul\":18616:18646   */\n      add\n        /* \"#utility.yul\":18669:18672   */\n      dup6\n        /* \"#utility.yul\":18661:18667   */\n      dup2\n        /* \"#utility.yul\":18658:18673   */\n      gt\n        /* \"#utility.yul\":18655:18777   */\n      iszero\n      tag_396\n      jumpi\n        /* \"#utility.yul\":18688:18767   */\n      tag_397\n      tag_130\n      jump\t// in\n    tag_397:\n        /* \"#utility.yul\":18655:18777   */\n    tag_396:\n        /* \"#utility.yul\":18803:18809   */\n      dup4\n        /* \"#utility.yul\":18786:19017   */\n    tag_398:\n        /* \"#utility.yul\":18820:18826   */\n      dup2\n        /* \"#utility.yul\":18815:18818   */\n      dup2\n        /* \"#utility.yul\":18812:18827   */\n      lt\n        /* \"#utility.yul\":18786:19017   */\n      iszero\n      tag_400\n      jumpi\n        /* \"#utility.yul\":18895:18898   */\n      dup1\n        /* \"#utility.yul\":18924:18972   */\n      tag_401\n        /* \"#utility.yul\":18968:18971   */\n      dup9\n        /* \"#utility.yul\":18956:18966   */\n      dup3\n        /* \"#utility.yul\":18924:18972   */\n      tag_166\n      jump\t// in\n    tag_401:\n        /* \"#utility.yul\":18919:18922   */\n      dup5\n        /* \"#utility.yul\":18912:18973   */\n      mstore\n        /* \"#utility.yul\":19002:19006   */\n      0x20\n        /* \"#utility.yul\":18997:19000   */\n      dup5\n        /* \"#utility.yul\":18993:19007   */\n      add\n        /* \"#utility.yul\":18986:19007   */\n      swap4\n      pop\n        /* \"#utility.yul\":18862:19017   */\n      pop\n        /* \"#utility.yul\":18846:18850   */\n      0x20\n        /* \"#utility.yul\":18841:18844   */\n      dup2\n        /* \"#utility.yul\":18837:18851   */\n      add\n        /* \"#utility.yul\":18830:18851   */\n      swap1\n      pop\n        /* \"#utility.yul\":18786:19017   */\n      jump(tag_398)\n    tag_400:\n        /* \"#utility.yul\":18790:18811   */\n      pop\n        /* \"#utility.yul\":18404:19023   */\n      pop\n      pop\n        /* \"#utility.yul\":18291:19023   */\n      swap4\n      swap3\n      pop\n      pop\n      pop\n      jump\t// out\n        /* \"#utility.yul\":19046:19431   */\n    tag_174:\n        /* \"#utility.yul\":19128:19133   */\n      0x00\n        /* \"#utility.yul\":19177:19180   */\n      dup3\n        /* \"#utility.yul\":19170:19174   */\n      0x1f\n        /* \"#utility.yul\":19162:19168   */\n      dup4\n        /* \"#utility.yul\":19158:19175   */\n      add\n        /* \"#utility.yul\":19154:19181   */\n      slt\n        /* \"#utility.yul\":19144:19266   */\n      tag_403\n      jumpi\n        /* \"#utility.yul\":19185:19264   */\n      tag_404\n      tag_124\n      jump\t// in\n    tag_404:\n        /* \"#utility.yul\":19144:19266   */\n    tag_403:\n        /* \"#utility.yul\":19295:19301   */\n      dup2\n        /* \"#utility.yul\":19289:19302   */\n      mload\n        /* \"#utility.yul\":19320:19425   */\n      tag_405\n        /* \"#utility.yul\":19421:19424   */\n      dup5\n        /* \"#utility.yul\":19413:19419   */\n      dup3\n        /* \"#utility.yul\":19406:19410   */\n      0x20\n        /* \"#utility.yul\":19398:19404   */\n      dup7\n        /* \"#utility.yul\":19394:19411   */\n      add\n        /* \"#utility.yul\":19320:19425   */\n      tag_173\n      jump\t// in\n    tag_405:\n        /* \"#utility.yul\":19311:19425   */\n      swap2\n      pop\n        /* \"#utility.yul\":19134:19431   */\n      pop\n        /* \"#utility.yul\":19046:19431   */\n      swap3\n      swap2\n      pop\n      pop\n      jump\t// out\n        /* \"#utility.yul\":19437:19541   */\n    tag_175:\n        /* \"#utility.yul\":19482:19489   */\n      0x00\n        /* \"#utility.yul\":19511:19535   */\n      tag_407\n        /* \"#utility.yul\":19529:19534   */\n      dup3\n        /* \"#utility.yul\":19511:19535   */\n      tag_146\n      jump\t// in\n    tag_407:\n        /* \"#utility.yul\":19500:19535   */\n      swap1\n      pop\n        /* \"#utility.yul\":19437:19541   */\n      swap2\n      swap1\n      pop\n      jump\t// out\n        /* \"#utility.yul\":19547:19685   */\n    tag_176:\n        /* \"#utility.yul\":19628:19660   */\n      tag_409\n        /* \"#utility.yul\":19654:19659   */\n      dup2\n        /* \"#utility.yul\":19628:19660   */\n      tag_175\n      jump\t// in\n    tag_409:\n        /* \"#utility.yul\":19621:19626   */\n      dup2\n        /* \"#utility.yul\":19618:19661   */\n      eq\n        /* \"#utility.yul\":19608:19679   */\n      tag_410\n      jumpi\n        /* \"#utility.yul\":19675:19676   */\n      0x00\n        /* \"#utility.yul\":19672:19673   */\n      dup1\n        /* \"#utility.yul\":19665:19677   */\n      revert\n        /* \"#utility.yul\":19608:19679   */\n    tag_410:\n        /* \"#utility.yul\":19547:19685   */\n      pop\n      jump\t// out\n        /* \"#utility.yul\":19691:19850   */\n    tag_177:\n        /* \"#utility.yul\":19756:19761   */\n      0x00\n        /* \"#utility.yul\":19787:19793   */\n      dup2\n        /* \"#utility.yul\":19781:19794   */\n      mload\n        /* \"#utility.yul\":19772:19794   */\n      swap1\n      pop\n        /* \"#utility.yul\":19803:19844   */\n      tag_412\n        /* \"#utility.yul\":19838:19843   */\n      dup2\n        /* \"#utility.yul\":19803:19844   */\n      tag_176\n      jump\t// in\n    tag_412:\n        /* \"#utility.yul\":19691:19850   */\n      swap3\n      swap2\n      pop\n      pop\n      jump\t// out\n        /* \"#utility.yul\":19856:20582   */\n    tag_82:\n        /* \"#utility.yul\":19968:19974   */\n      0x00\n        /* \"#utility.yul\":19976:19982   */\n      dup1\n        /* \"#utility.yul\":20025:20027   */\n      0x40\n        /* \"#utility.yul\":20013:20022   */\n      dup4\n        /* \"#utility.yul\":20004:20011   */\n      dup6\n        /* \"#utility.yul\":20000:20023   */\n      sub\n        /* \"#utility.yul\":19996:20028   */\n      slt\n        /* \"#utility.yul\":19993:20112   */\n      iszero\n      tag_414\n      jumpi\n        /* \"#utility.yul\":20031:20110   */\n      tag_415\n      tag_117\n      jump\t// in\n    tag_415:\n        /* \"#utility.yul\":19993:20112   */\n    tag_414:\n        /* \"#utility.yul\":20172:20173   */\n      0x00\n        /* \"#utility.yul\":20161:20170   */\n      dup4\n        /* \"#utility.yul\":20157:20174   */\n      add\n        /* \"#utility.yul\":20151:20175   */\n      mload\n        /* \"#utility.yul\":20202:20220   */\n      0xffffffffffffffff\n        /* \"#utility.yul\":20194:20200   */\n      dup2\n        /* \"#utility.yul\":20191:20221   */\n      gt\n        /* \"#utility.yul\":20188:20305   */\n      iszero\n      tag_416\n      jumpi\n        /* \"#utility.yul\":20224:20303   */\n      tag_417\n      tag_118\n      jump\t// in\n    tag_417:\n        /* \"#utility.yul\":20188:20305   */\n    tag_416:\n        /* \"#utility.yul\":20329:20418   */\n      tag_418\n        /* \"#utility.yul\":20410:20417   */\n      dup6\n        /* \"#utility.yul\":20401:20407   */\n      dup3\n        /* \"#utility.yul\":20390:20399   */\n      dup7\n        /* \"#utility.yul\":20386:20408   */\n      add\n        /* \"#utility.yul\":20329:20418   */\n      tag_174\n      jump\t// in\n    tag_418:\n        /* \"#utility.yul\":20319:20418   */\n      swap3\n      pop\n        /* \"#utility.yul\":20122:20428   */\n      pop\n        /* \"#utility.yul\":20467:20469   */\n      0x20\n        /* \"#utility.yul\":20493:20565   */\n      tag_419\n        /* \"#utility.yul\":20557:20564   */\n      dup6\n        /* \"#utility.yul\":20548:20554   */\n      dup3\n        /* \"#utility.yul\":20537:20546   */\n      dup7\n        /* \"#utility.yul\":20533:20555   */\n      add\n        /* \"#utility.yul\":20493:20565   */\n      tag_177\n      jump\t// in\n    tag_419:\n        /* \"#utility.yul\":20483:20565   */\n      swap2\n      pop\n        /* \"#utility.yul\":20438:20575   */\n      pop\n        /* \"#utility.yul\":19856:20582   */\n      swap3\n      pop\n      swap3\n      swap1\n      pop\n      jump\t// out\n        /* \"#utility.yul\":20588:20699   */\n    tag_178:\n        /* \"#utility.yul\":20652:20658   */\n      0x00\n        /* \"#utility.yul\":20686:20691   */\n      dup2\n        /* \"#utility.yul\":20680:20692   */\n      sload\n        /* \"#utility.yul\":20670:20692   */\n      swap1\n      pop\n        /* \"#utility.yul\":20588:20699   */\n      swap2\n      swap1\n      pop\n      jump\t// out\n        /* \"#utility.yul\":20705:20861   */\n    tag_179:\n        /* \"#utility.yul\":20769:20773   */\n      0x00\n        /* \"#utility.yul\":20792:20795   */\n      dup2\n        /* \"#utility.yul\":20784:20795   */\n      swap1\n      pop\n        /* \"#utility.yul\":20815:20818   */\n      dup2\n        /* \"#utility.yul\":20812:20813   */\n      0x00\n        /* \"#utility.yul\":20805:20819   */\n      mstore\n        /* \"#utility.yul\":20849:20853   */\n      0x20\n        /* \"#utility.yul\":20846:20847   */\n      0x00\n        /* \"#utility.yul\":20836:20854   */\n      keccak256\n        /* \"#utility.yul\":20828:20854   */\n      swap1\n      pop\n        /* \"#utility.yul\":20705:20861   */\n      swap2\n      swap1\n      pop\n      jump\t// out\n        /* \"#utility.yul\":20867:20969   */\n    tag_180:\n        /* \"#utility.yul\":20909:20917   */\n      0x00\n        /* \"#utility.yul\":20956:20961   */\n      dup2\n        /* \"#utility.yul\":20953:20954   */\n      0x00\n        /* \"#utility.yul\":20949:20962   */\n      shr\n        /* \"#utility.yul\":20928:20962   */\n      swap1\n      pop\n        /* \"#utility.yul\":20867:20969   */\n      swap2\n      swap1\n      pop\n      jump\t// out\n        /* \"#utility.yul\":20975:21065   */\n    tag_181:\n        /* \"#utility.yul\":21025:21032   */\n      0x00\n        /* \"#utility.yul\":21054:21059   */\n      dup2\n        /* \"#utility.yul\":21043:21059   */\n      swap1\n      pop\n        /* \"#utility.yul\":20975:21065   */\n      swap2\n      swap1\n      pop\n      jump\t// out\n        /* \"#utility.yul\":21071:21237   */\n    tag_182:\n        /* \"#utility.yul\":21140:21145   */\n      0x00\n        /* \"#utility.yul\":21165:21231   */\n      tag_425\n        /* \"#utility.yul\":21196:21230   */\n      tag_426\n        /* \"#utility.yul\":21219:21229   */\n      dup4\n        /* \"#utility.yul\":21196:21230   */\n      tag_180\n      jump\t// in\n    tag_426:\n        /* \"#utility.yul\":21165:21231   */\n      tag_181\n      jump\t// in\n    tag_425:\n        /* \"#utility.yul\":21156:21231   */\n      swap1\n      pop\n        /* \"#utility.yul\":21071:21237   */\n      swap2\n      swap1\n      pop\n      jump\t// out\n        /* \"#utility.yul\":21243:21387   */\n    tag_183:\n        /* \"#utility.yul\":21298:21303   */\n      0x00\n        /* \"#utility.yul\":21323:21380   */\n      tag_428\n        /* \"#utility.yul\":21374:21378   */\n      dup3\n        /* \"#utility.yul\":21368:21379   */\n      sload\n        /* \"#utility.yul\":21323:21380   */\n      tag_182\n      jump\t// in\n    tag_428:\n        /* \"#utility.yul\":21314:21380   */\n      swap1\n      pop\n        /* \"#utility.yul\":21243:21387   */\n      swap2\n      swap1\n      pop\n      jump\t// out\n        /* \"#utility.yul\":21393:21503   */\n    tag_184:\n        /* \"#utility.yul\":21460:21464   */\n      0x00\n        /* \"#utility.yul\":21492:21496   */\n      0x01\n        /* \"#utility.yul\":21487:21490   */\n      dup3\n        /* \"#utility.yul\":21483:21497   */\n      add\n        /* \"#utility.yul\":21475:21497   */\n      swap1\n      pop\n        /* \"#utility.yul\":21393:21503   */\n      swap2\n      swap1\n      pop\n      jump\t// out\n        /* \"#utility.yul\":21539:22290   */\n    tag_185:\n        /* \"#utility.yul\":21655:21658   */\n      0x00\n        /* \"#utility.yul\":21684:21735   */\n      tag_431\n        /* \"#utility.yul\":21729:21734   */\n      dup3\n        /* \"#utility.yul\":21684:21735   */\n      tag_178\n      jump\t// in\n    tag_431:\n        /* \"#utility.yul\":21751:21837   */\n      tag_432\n        /* \"#utility.yul\":21830:21836   */\n      dup2\n        /* \"#utility.yul\":21825:21828   */\n      dup6\n        /* \"#utility.yul\":21751:21837   */\n      tag_156\n      jump\t// in\n    tag_432:\n        /* \"#utility.yul\":21744:21837   */\n      swap4\n      pop\n        /* \"#utility.yul\":21861:21914   */\n      tag_433\n        /* \"#utility.yul\":21908:21913   */\n      dup4\n        /* \"#utility.yul\":21861:21914   */\n      tag_179\n      jump\t// in\n    tag_433:\n        /* \"#utility.yul\":21937:21944   */\n      dup1\n        /* \"#utility.yul\":21968:21969   */\n      0x00\n        /* \"#utility.yul\":21953:22265   */\n    tag_434:\n        /* \"#utility.yul\":21978:21984   */\n      dup4\n        /* \"#utility.yul\":21975:21976   */\n      dup2\n        /* \"#utility.yul\":21972:21985   */\n      lt\n        /* \"#utility.yul\":21953:22265   */\n      iszero\n      tag_436\n      jumpi\n        /* \"#utility.yul\":22048:22092   */\n      tag_437\n        /* \"#utility.yul\":22085:22091   */\n      dup3\n        /* \"#utility.yul\":22048:22092   */\n      tag_183\n      jump\t// in\n    tag_437:\n        /* \"#utility.yul\":22112:22175   */\n      tag_438\n        /* \"#utility.yul\":22171:22174   */\n      dup9\n        /* \"#utility.yul\":22156:22169   */\n      dup3\n        /* \"#utility.yul\":22112:22175   */\n      tag_159\n      jump\t// in\n    tag_438:\n        /* \"#utility.yul\":22105:22175   */\n      swap8\n      pop\n        /* \"#utility.yul\":22198:22255   */\n      tag_439\n        /* \"#utility.yul\":22248:22254   */\n      dup4\n        /* \"#utility.yul\":22198:22255   */\n      tag_184\n      jump\t// in\n    tag_439:\n        /* \"#utility.yul\":22188:22255   */\n      swap3\n      pop\n        /* \"#utility.yul\":22013:22265   */\n      pop\n        /* \"#utility.yul\":22000:22001   */\n      0x01\n        /* \"#utility.yul\":21997:21998   */\n      dup2\n        /* \"#utility.yul\":21993:22002   */\n      add\n        /* \"#utility.yul\":21988:22002   */\n      swap1\n      pop\n        /* \"#utility.yul\":21953:22265   */\n      jump(tag_434)\n    tag_436:\n        /* \"#utility.yul\":21957:21971   */\n      pop\n        /* \"#utility.yul\":22281:22284   */\n      dup6\n        /* \"#utility.yul\":22274:22284   */\n      swap4\n      pop\n        /* \"#utility.yul\":21660:22290   */\n      pop\n      pop\n      pop\n        /* \"#utility.yul\":21539:22290   */\n      swap3\n      swap2\n      pop\n      pop\n      jump\t// out\n        /* \"#utility.yul\":22296:22414   */\n    tag_186:\n        /* \"#utility.yul\":22383:22407   */\n      tag_441\n        /* \"#utility.yul\":22401:22406   */\n      dup2\n        /* \"#utility.yul\":22383:22407   */\n      tag_147\n      jump\t// in\n    tag_441:\n        /* \"#utility.yul\":22378:22381   */\n      dup3\n        /* \"#utility.yul\":22371:22408   */\n      mstore\n        /* \"#utility.yul\":22296:22414   */\n      pop\n      pop\n      jump\t// out\n        /* \"#utility.yul\":22420:23114   */\n    tag_87:\n        /* \"#utility.yul\":22642:22646   */\n      0x00\n        /* \"#utility.yul\":22680:22683   */\n      0x80\n        /* \"#utility.yul\":22669:22678   */\n      dup3\n        /* \"#utility.yul\":22665:22684   */\n      add\n        /* \"#utility.yul\":22657:22684   */\n      swap1\n      pop\n        /* \"#utility.yul\":22730:22739   */\n      dup2\n        /* \"#utility.yul\":22724:22728   */\n      dup2\n        /* \"#utility.yul\":22720:22740   */\n      sub\n        /* \"#utility.yul\":22716:22717   */\n      0x00\n        /* \"#utility.yul\":22705:22714   */\n      dup4\n        /* \"#utility.yul\":22701:22718   */\n      add\n        /* \"#utility.yul\":22694:22741   */\n      mstore\n        /* \"#utility.yul\":22758:22863   */\n      tag_443\n        /* \"#utility.yul\":22858:22862   */\n      dup2\n        /* \"#utility.yul\":22849:22855   */\n      dup8\n        /* \"#utility.yul\":22758:22863   */\n      tag_185\n      jump\t// in\n    tag_443:\n        /* \"#utility.yul\":22750:22863   */\n      swap1\n      pop\n        /* \"#utility.yul\":22873:22943   */\n      tag_444\n        /* \"#utility.yul\":22939:22941   */\n      0x20\n        /* \"#utility.yul\":22928:22937   */\n      dup4\n        /* \"#utility.yul\":22924:22942   */\n      add\n        /* \"#utility.yul\":22915:22921   */\n      dup7\n        /* \"#utility.yul\":22873:22943   */\n      tag_162\n      jump\t// in\n    tag_444:\n        /* \"#utility.yul\":22953:23025   */\n      tag_445\n        /* \"#utility.yul\":23021:23023   */\n      0x40\n        /* \"#utility.yul\":23010:23019   */\n      dup4\n        /* \"#utility.yul\":23006:23024   */\n      add\n        /* \"#utility.yul\":22997:23003   */\n      dup6\n        /* \"#utility.yul\":22953:23025   */\n      tag_186\n      jump\t// in\n    tag_445:\n        /* \"#utility.yul\":23035:23107   */\n      tag_446\n        /* \"#utility.yul\":23103:23105   */\n      0x60\n        /* \"#utility.yul\":23092:23101   */\n      dup4\n        /* \"#utility.yul\":23088:23106   */\n      add\n        /* \"#utility.yul\":23079:23085   */\n      dup5\n        /* \"#utility.yul\":23035:23107   */\n      tag_123\n      jump\t// in\n    tag_446:\n        /* \"#utility.yul\":22420:23114   */\n      swap6\n      swap5\n      pop\n      pop\n      pop\n      pop\n      pop\n      jump\t// out\n        /* \"#utility.yul\":23120:23452   */\n    tag_97:\n        /* \"#utility.yul\":23241:23245   */\n      0x00\n        /* \"#utility.yul\":23279:23281   */\n      0x40\n        /* \"#utility.yul\":23268:23277   */\n      dup3\n        /* \"#utility.yul\":23264:23282   */\n      add\n        /* \"#utility.yul\":23256:23282   */\n      swap1\n      pop\n        /* \"#utility.yul\":23292:23363   */\n      tag_448\n        /* \"#utility.yul\":23360:23361   */\n      0x00\n        /* \"#utility.yul\":23349:23358   */\n      dup4\n        /* \"#utility.yul\":23345:23362   */\n      add\n        /* \"#utility.yul\":23336:23342   */\n      dup6\n        /* \"#utility.yul\":23292:23363   */\n      tag_123\n      jump\t// in\n    tag_448:\n        /* \"#utility.yul\":23373:23445   */\n      tag_449\n        /* \"#utility.yul\":23441:23443   */\n      0x20\n        /* \"#utility.yul\":23430:23439   */\n      dup4\n        /* \"#utility.yul\":23426:23444   */\n      add\n        /* \"#utility.yul\":23417:23423   */\n      dup5\n        /* \"#utility.yul\":23373:23445   */\n      tag_186\n      jump\t// in\n    tag_449:\n        /* \"#utility.yul\":23120:23452   */\n      swap4\n      swap3\n      pop\n      pop\n      pop\n      jump\t// out\n        /* \"#utility.yul\":23458:23556   */\n    tag_187:\n        /* \"#utility.yul\":23509:23515   */\n      0x00\n        /* \"#utility.yul\":23543:23548   */\n      dup2\n        /* \"#utility.yul\":23537:23549   */\n      mload\n        /* \"#utility.yul\":23527:23549   */\n      swap1\n      pop\n        /* \"#utility.yul\":23458:23556   */\n      swap2\n      swap1\n      pop\n      jump\t// out\n        /* \"#utility.yul\":23562:23730   */\n    tag_188:\n        /* \"#utility.yul\":23645:23656   */\n      0x00\n        /* \"#utility.yul\":23679:23685   */\n      dup3\n        /* \"#utility.yul\":23674:23677   */\n      dup3\n        /* \"#utility.yul\":23667:23686   */\n      mstore\n        /* \"#utility.yul\":23719:23723   */\n      0x20\n        /* \"#utility.yul\":23714:23717   */\n      dup3\n        /* \"#utility.yul\":23710:23724   */\n      add\n        /* \"#utility.yul\":23695:23724   */\n      swap1\n      pop\n        /* \"#utility.yul\":23562:23730   */\n      swap3\n      swap2\n      pop\n      pop\n      jump\t// out\n        /* \"#utility.yul\":23736:23982   */\n    tag_189:\n        /* \"#utility.yul\":23817:23818   */\n      0x00\n        /* \"#utility.yul\":23827:23940   */\n    tag_453:\n        /* \"#utility.yul\":23841:23847   */\n      dup4\n        /* \"#utility.yul\":23838:23839   */\n      dup2\n        /* \"#utility.yul\":23835:23848   */\n      lt\n        /* \"#utility.yul\":23827:23940   */\n      iszero\n      tag_455\n      jumpi\n        /* \"#utility.yul\":23926:23927   */\n      dup1\n        /* \"#utility.yul\":23921:23924   */\n      dup3\n        /* \"#utility.yul\":23917:23928   */\n      add\n        /* \"#utility.yul\":23911:23929   */\n      mload\n        /* \"#utility.yul\":23907:23908   */\n      dup2\n        /* \"#utility.yul\":23902:23905   */\n      dup5\n        /* \"#utility.yul\":23898:23909   */\n      add\n        /* \"#utility.yul\":23891:23930   */\n      mstore\n        /* \"#utility.yul\":23863:23865   */\n      0x20\n        /* \"#utility.yul\":23860:23861   */\n      dup2\n        /* \"#utility.yul\":23856:23866   */\n      add\n        /* \"#utility.yul\":23851:23866   */\n      swap1\n      pop\n        /* \"#utility.yul\":23827:23940   */\n      jump(tag_453)\n    tag_455:\n        /* \"#utility.yul\":23974:23975   */\n      0x00\n        /* \"#utility.yul\":23965:23971   */\n      dup5\n        /* \"#utility.yul\":23960:23963   */\n      dup5\n        /* \"#utility.yul\":23956:23972   */\n      add\n        /* \"#utility.yul\":23949:23976   */\n      mstore\n        /* \"#utility.yul\":23798:23982   */\n      pop\n        /* \"#utility.yul\":23736:23982   */\n      pop\n      pop\n      pop\n      jump\t// out\n        /* \"#utility.yul\":23988:24361   */\n    tag_190:\n        /* \"#utility.yul\":24074:24077   */\n      0x00\n        /* \"#utility.yul\":24102:24140   */\n      tag_457\n        /* \"#utility.yul\":24134:24139   */\n      dup3\n        /* \"#utility.yul\":24102:24140   */\n      tag_187\n      jump\t// in\n    tag_457:\n        /* \"#utility.yul\":24156:24226   */\n      tag_458\n        /* \"#utility.yul\":24219:24225   */\n      dup2\n        /* \"#utility.yul\":24214:24217   */\n      dup6\n        /* \"#utility.yul\":24156:24226   */\n      tag_188\n      jump\t// in\n    tag_458:\n        /* \"#utility.yul\":24149:24226   */\n      swap4\n      pop\n        /* \"#utility.yul\":24235:24300   */\n      tag_459\n        /* \"#utility.yul\":24293:24299   */\n      dup2\n        /* \"#utility.yul\":24288:24291   */\n      dup6\n        /* \"#utility.yul\":24281:24285   */\n      0x20\n        /* \"#utility.yul\":24274:24279   */\n      dup7\n        /* \"#utility.yul\":24270:24286   */\n      add\n        /* \"#utility.yul\":24235:24300   */\n      tag_189\n      jump\t// in\n    tag_459:\n        /* \"#utility.yul\":24325:24354   */\n      tag_460\n        /* \"#utility.yul\":24347:24353   */\n      dup2\n        /* \"#utility.yul\":24325:24354   */\n      tag_125\n      jump\t// in\n    tag_460:\n        /* \"#utility.yul\":24320:24323   */\n      dup5\n        /* \"#utility.yul\":24316:24355   */\n      add\n        /* \"#utility.yul\":24309:24355   */\n      swap2\n      pop\n        /* \"#utility.yul\":24078:24361   */\n      pop\n        /* \"#utility.yul\":23988:24361   */\n      swap3\n      swap2\n      pop\n      pop\n      jump\t// out\n        /* \"#utility.yul\":24367:25348   */\n    tag_99:\n        /* \"#utility.yul\":24650:24654   */\n      0x00\n        /* \"#utility.yul\":24688:24691   */\n      0xe0\n        /* \"#utility.yul\":24677:24686   */\n      dup3\n        /* \"#utility.yul\":24673:24692   */\n      add\n        /* \"#utility.yul\":24665:24692   */\n      swap1\n      pop\n        /* \"#utility.yul\":24702:24771   */\n      tag_462\n        /* \"#utility.yul\":24768:24769   */\n      0x00\n        /* \"#utility.yul\":24757:24766   */\n      dup4\n        /* \"#utility.yul\":24753:24770   */\n      add\n        /* \"#utility.yul\":24744:24750   */\n      dup11\n        /* \"#utility.yul\":24702:24771   */\n      tag_162\n      jump\t// in\n    tag_462:\n        /* \"#utility.yul\":24781:24853   */\n      tag_463\n        /* \"#utility.yul\":24849:24851   */\n      0x20\n        /* \"#utility.yul\":24838:24847   */\n      dup4\n        /* \"#utility.yul\":24834:24852   */\n      add\n        /* \"#utility.yul\":24825:24831   */\n      dup10\n        /* \"#utility.yul\":24781:24853   */\n      tag_186\n      jump\t// in\n    tag_463:\n        /* \"#utility.yul\":24900:24909   */\n      dup2\n        /* \"#utility.yul\":24894:24898   */\n      dup2\n        /* \"#utility.yul\":24890:24910   */\n      sub\n        /* \"#utility.yul\":24885:24887   */\n      0x40\n        /* \"#utility.yul\":24874:24883   */\n      dup4\n        /* \"#utility.yul\":24870:24888   */\n      add\n        /* \"#utility.yul\":24863:24911   */\n      mstore\n        /* \"#utility.yul\":24928:25004   */\n      tag_464\n        /* \"#utility.yul\":24999:25003   */\n      dup2\n        /* \"#utility.yul\":24990:24996   */\n      dup9\n        /* \"#utility.yul\":24928:25004   */\n      tag_190\n      jump\t// in\n    tag_464:\n        /* \"#utility.yul\":24920:25004   */\n      swap1\n      pop\n        /* \"#utility.yul\":25014:25094   */\n      tag_465\n        /* \"#utility.yul\":25090:25092   */\n      0x60\n        /* \"#utility.yul\":25079:25088   */\n      dup4\n        /* \"#utility.yul\":25075:25093   */\n      add\n        /* \"#utility.yul\":25066:25072   */\n      dup8\n        /* \"#utility.yul\":25014:25094   */\n      tag_165\n      jump\t// in\n    tag_465:\n        /* \"#utility.yul\":25104:25177   */\n      tag_466\n        /* \"#utility.yul\":25172:25175   */\n      0x80\n        /* \"#utility.yul\":25161:25170   */\n      dup4\n        /* \"#utility.yul\":25157:25176   */\n      add\n        /* \"#utility.yul\":25148:25154   */\n      dup7\n        /* \"#utility.yul\":25104:25177   */\n      tag_123\n      jump\t// in\n    tag_466:\n        /* \"#utility.yul\":25187:25258   */\n      tag_467\n        /* \"#utility.yul\":25253:25256   */\n      0xa0\n        /* \"#utility.yul\":25242:25251   */\n      dup4\n        /* \"#utility.yul\":25238:25257   */\n      add\n        /* \"#utility.yul\":25229:25235   */\n      dup6\n        /* \"#utility.yul\":25187:25258   */\n      tag_162\n      jump\t// in\n    tag_467:\n        /* \"#utility.yul\":25268:25341   */\n      tag_468\n        /* \"#utility.yul\":25336:25339   */\n      0xc0\n        /* \"#utility.yul\":25325:25334   */\n      dup4\n        /* \"#utility.yul\":25321:25340   */\n      add\n        /* \"#utility.yul\":25312:25318   */\n      dup5\n        /* \"#utility.yul\":25268:25341   */\n      tag_186\n      jump\t// in\n    tag_468:\n        /* \"#utility.yul\":24367:25348   */\n      swap9\n      swap8\n      pop\n      pop\n      pop\n      pop\n      pop\n      pop\n      pop\n      pop\n      jump\t// out\n        /* \"#utility.yul\":25354:25455   */\n    tag_191:\n        /* \"#utility.yul\":25390:25397   */\n      0x00\n        /* \"#utility.yul\":25430:25448   */\n      0xffffffffffffffff\n        /* \"#utility.yul\":25423:25428   */\n      dup3\n        /* \"#utility.yul\":25419:25449   */\n      and\n        /* \"#utility.yul\":25408:25449   */\n      swap1\n      pop\n        /* \"#utility.yul\":25354:25455   */\n      swap2\n      swap1\n      pop\n      jump\t// out\n        /* \"#utility.yul\":25461:25581   */\n    tag_192:\n        /* \"#utility.yul\":25533:25556   */\n      tag_471\n        /* \"#utility.yul\":25550:25555   */\n      dup2\n        /* \"#utility.yul\":25533:25556   */\n      tag_191\n      jump\t// in\n    tag_471:\n        /* \"#utility.yul\":25526:25531   */\n      dup2\n        /* \"#utility.yul\":25523:25557   */\n      eq\n        /* \"#utility.yul\":25513:25575   */\n      tag_472\n      jumpi\n        /* \"#utility.yul\":25571:25572   */\n      0x00\n        /* \"#utility.yul\":25568:25569   */\n      dup1\n        /* \"#utility.yul\":25561:25573   */\n      revert\n        /* \"#utility.yul\":25513:25575   */\n    tag_472:\n        /* \"#utility.yul\":25461:25581   */\n      pop\n      jump\t// out\n        /* \"#utility.yul\":25587:25728   */\n    tag_193:\n        /* \"#utility.yul\":25643:25648   */\n      0x00\n        /* \"#utility.yul\":25674:25680   */\n      dup2\n        /* \"#utility.yul\":25668:25681   */\n      mload\n        /* \"#utility.yul\":25659:25681   */\n      swap1\n      pop\n        /* \"#utility.yul\":25690:25722   */\n      tag_474\n        /* \"#utility.yul\":25716:25721   */\n      dup2\n        /* \"#utility.yul\":25690:25722   */\n      tag_192\n      jump\t// in\n    tag_474:\n        /* \"#utility.yul\":25587:25728   */\n      swap3\n      swap2\n      pop\n      pop\n      jump\t// out\n        /* \"#utility.yul\":25734:26083   */\n    tag_103:\n        /* \"#utility.yul\":25803:25809   */\n      0x00\n        /* \"#utility.yul\":25852:25854   */\n      0x20\n        /* \"#utility.yul\":25840:25849   */\n      dup3\n        /* \"#utility.yul\":25831:25838   */\n      dup5\n        /* \"#utility.yul\":25827:25850   */\n      sub\n        /* \"#utility.yul\":25823:25855   */\n      slt\n        /* \"#utility.yul\":25820:25939   */\n      iszero\n      tag_476\n      jumpi\n        /* \"#utility.yul\":25858:25937   */\n      tag_477\n      tag_117\n      jump\t// in\n    tag_477:\n        /* \"#utility.yul\":25820:25939   */\n    tag_476:\n        /* \"#utility.yul\":25978:25979   */\n      0x00\n        /* \"#utility.yul\":26003:26066   */\n      tag_478\n        /* \"#utility.yul\":26058:26065   */\n      dup5\n        /* \"#utility.yul\":26049:26055   */\n      dup3\n        /* \"#utility.yul\":26038:26047   */\n      dup6\n        /* \"#utility.yul\":26034:26056   */\n      add\n        /* \"#utility.yul\":26003:26066   */\n      tag_193\n      jump\t// in\n    tag_478:\n        /* \"#utility.yul\":25993:26066   */\n      swap2\n      pop\n        /* \"#utility.yul\":25949:26076   */\n      pop\n        /* \"#utility.yul\":25734:26083   */\n      swap3\n      swap2\n      pop\n      pop\n      jump\t// out\n\n    auxdata: 0xa2646970667358221220f2bb35cabca4e9725849b55d03b2c6eb2ad90ff75595280947ac8f3e1e4bcb6e64736f6c63430008170033\n}\n",
				"bytecode": {
					"linkReferences": {},
					"object": "60a06040523480156200001157600080fd5b5060405162001650380380620016508339818101604052810190620000379190620000dc565b8073ffffffffffffffffffffffffffffffffffffffff1660808173ffffffffffffffffffffffffffffffffffffffff1681525050506200010e565b600080fd5b600073ffffffffffffffffffffffffffffffffffffffff82169050919050565b6000620000a48262000077565b9050919050565b620000b68162000097565b8114620000c257600080fd5b50565b600081519050620000d681620000ab565b92915050565b600060208284031215620000f557620000f462000072565b5b60006200010584828501620000c5565b91505092915050565b60805161150a620001466000396000818161023c0152818161037701528181610491015281816105570152610634015261150a6000f3fe6080604052600436106100865760003560e01c806375cccbb11161005957806375cccbb11461015e5780638a4bcced1461017a578063da25b725146101a5578063e5ad2984146101d0578063f6ff24601461020d57610086565b806328bd75ce1461008b5780634d5575b4146100c8578063529dca321461010557806370602a1f14610121575b600080fd5b34801561009757600080fd5b506100b260048036038101906100ad919061078a565b610238565b6040516100bf91906107d0565b60405180910390f35b3480156100d457600080fd5b506100ef60048036038101906100ea9190610970565b6102e5565b6040516100fc91906107d0565b60405180910390f35b61011f600480360381019061011a9190610b85565b610375565b005b34801561012d57600080fd5b506101486004803603810190610143919061078a565b61048d565b60405161015591906107d0565b60405180910390f35b61017860048036038101906101739190610c96565b61053b565b005b34801561018657600080fd5b5061018f61062c565b60405161019c91906107d0565b60405180910390f35b3480156101b157600080fd5b506101ba610632565b6040516101c79190610d48565b60405180910390f35b3480156101dc57600080fd5b506101f760048036038101906101f29190610d63565b610656565b60405161020491906107d0565b60405180910390f35b34801561021957600080fd5b5061022261067a565b60405161022f9190610e4e565b60405180910390f35b60007f000000000000000000000000000000000000000000000000000000000000000073ffffffffffffffffffffffffffffffffffffffff1663c23ee3c3836000622dc6c06040518463ffffffff1660e01b815260040161029b93929190610eba565b6040805180830381865afa1580156102b7573d6000803e3d6000fd5b505050506040513d601f19601f820116820180604052508101906102db9190610f06565b5080915050919050565b6000806000805490501161032e576040517f08c379a000000000000000000000000000000000000000000000000000000000815260040161032590610fc9565b60405180910390fd5b60005b825181101561036f5782818151811061034d5761034c610fe9565b5b6020026020010151826103609190611047565b91508080600101915050610331565b50919050565b7f000000000000000000000000000000000000000000000000000000000000000073ffffffffffffffffffffffffffffffffffffffff163373ffffffffffffffffffffffffffffffffffffffff1614610403576040517f08c379a00000000000000000000000000000000000000000000000000000000081526004016103fa906110c7565b60405180910390fd5b6000808680602001905181019061041a91906111bc565b9150915081600090805190602001906104349291906106d2565b5061043e826102e5565b6001819055507fe75db9e57d7c6c88542e0b44318ac61ff3b6266d300924e997786ef5e9db64dd6000858360015460405161047c94939291906112fd565b60405180910390a150505050505050565b60007f000000000000000000000000000000000000000000000000000000000000000073ffffffffffffffffffffffffffffffffffffffff1663c23ee3c3836000622dc6c06040518463ffffffff1660e01b81526004016104f093929190610eba565b6040805180830381865afa15801561050c573d6000803e3d6000fd5b505050506040513d601f19601f820116820180604052508101906105309190610f06565b905080915050919050565b600061054684610238565b90508034101561055557600080fd5b7f000000000000000000000000000000000000000000000000000000000000000073ffffffffffffffffffffffffffffffffffffffff16634b5ca6f4828686600154336040516020016105a9929190611349565b6040516020818303038152906040526000622dc6c089336040518963ffffffff1660e01b81526004016105e297969594939291906113f1565b60206040518083038185885af1158015610600573d6000803e3d6000fd5b50505050506040513d601f19601f8201168201806040525081019061062591906114a7565b5050505050565b60015481565b7f000000000000000000000000000000000000000000000000000000000000000081565b6000818154811061066657600080fd5b906000526020600020016000915090505481565b606060008054806020026020016040519081016040528092919081815260200182805480156106c857602002820191906000526020600020905b8154815260200190600101908083116106b4575b5050505050905090565b82805482825590600052602060002090810192821561070e579160200282015b8281111561070d5782518255916020019190600101906106f2565b5b50905061071b919061071f565b5090565b5b80821115610738576000816000905550600101610720565b5090565b6000604051905090565b600080fd5b600080fd5b600061ffff82169050919050565b61076781610750565b811461077257600080fd5b50565b6000813590506107848161075e565b92915050565b6000602082840312156107a05761079f610746565b5b60006107ae84828501610775565b91505092915050565b6000819050919050565b6107ca816107b7565b82525050565b60006020820190506107e560008301846107c1565b92915050565b600080fd5b6000601f19601f8301169050919050565b7f4e487b7100000000000000000000000000000000000000000000000000000000600052604160045260246000fd5b610839826107f0565b810181811067ffffffffffffffff8211171561085857610857610801565b5b80604052505050565b600061086b61073c565b90506108778282610830565b919050565b600067ffffffffffffffff82111561089757610896610801565b5b602082029050602081019050919050565b600080fd5b6108b6816107b7565b81146108c157600080fd5b50565b6000813590506108d3816108ad565b92915050565b60006108ec6108e78461087c565b610861565b9050808382526020820190506020840283018581111561090f5761090e6108a8565b5b835b81811015610938578061092488826108c4565b845260208401935050602081019050610911565b5050509392505050565b600082601f830112610957576109566107eb565b5b81356109678482602086016108d9565b91505092915050565b60006020828403121561098657610985610746565b5b600082013567ffffffffffffffff8111156109a4576109a361074b565b5b6109b084828501610942565b91505092915050565b600080fd5b600067ffffffffffffffff8211156109d9576109d8610801565b5b6109e2826107f0565b9050602081019050919050565b82818337600083830152505050565b6000610a11610a0c846109be565b610861565b905082815260208101848484011115610a2d57610a2c6109b9565b5b610a388482856109ef565b509392505050565b600082601f830112610a5557610a546107eb565b5b8135610a658482602086016109fe565b91505092915050565b600067ffffffffffffffff821115610a8957610a88610801565b5b602082029050602081019050919050565b6000610aad610aa884610a6e565b610861565b90508083825260208201905060208402830185811115610ad057610acf6108a8565b5b835b81811015610b1757803567ffffffffffffffff811115610af557610af46107eb565b5b808601610b028982610a40565b85526020850194505050602081019050610ad2565b5050509392505050565b600082601f830112610b3657610b356107eb565b5b8135610b46848260208601610a9a565b91505092915050565b6000819050919050565b610b6281610b4f565b8114610b6d57600080fd5b50565b600081359050610b7f81610b59565b92915050565b600080600080600060a08688031215610ba157610ba0610746565b5b600086013567ffffffffffffffff811115610bbf57610bbe61074b565b5b610bcb88828901610a40565b955050602086013567ffffffffffffffff811115610bec57610beb61074b565b5b610bf888828901610b21565b9450506040610c0988828901610b70565b9350506060610c1a88828901610775565b9250506080610c2b88828901610b70565b9150509295509295909350565b600073ffffffffffffffffffffffffffffffffffffffff82169050919050565b6000610c6382610c38565b9050919050565b610c7381610c58565b8114610c7e57600080fd5b50565b600081359050610c9081610c6a565b92915050565b600080600060608486031215610caf57610cae610746565b5b6000610cbd86828701610775565b9350506020610cce86828701610c81565b9250506040610cdf86828701610775565b9150509250925092565b6000819050919050565b6000610d0e610d09610d0484610c38565b610ce9565b610c38565b9050919050565b6000610d2082610cf3565b9050919050565b6000610d3282610d15565b9050919050565b610d4281610d27565b82525050565b6000602082019050610d5d6000830184610d39565b92915050565b600060208284031215610d7957610d78610746565b5b6000610d87848285016108c4565b91505092915050565b600081519050919050565b600082825260208201905092915050565b6000819050602082019050919050565b610dc5816107b7565b82525050565b6000610dd78383610dbc565b60208301905092915050565b6000602082019050919050565b6000610dfb82610d90565b610e058185610d9b565b9350610e1083610dac565b8060005b83811015610e41578151610e288882610dcb565b9750610e3383610de3565b925050600181019050610e14565b5085935050505092915050565b60006020820190508181036000830152610e688184610df0565b905092915050565b610e7981610750565b82525050565b6000819050919050565b6000610ea4610e9f610e9a84610e7f565b610ce9565b6107b7565b9050919050565b610eb481610e89565b82525050565b6000606082019050610ecf6000830186610e70565b610edc6020830185610eab565b610ee960408301846107c1565b949350505050565b600081519050610f00816108ad565b92915050565b60008060408385031215610f1d57610f1c610746565b5b6000610f2b85828601610ef1565b9250506020610f3c85828601610ef1565b9150509250929050565b600082825260208201905092915050565b7f4172726179206d75737420636f6e7461696e206174206c65617374206f6e652060008201527f656c656d656e7400000000000000000000000000000000000000000000000000602082015250565b6000610fb3602783610f46565b9150610fbe82610f57565b604082019050919050565b60006020820190508181036000830152610fe281610fa6565b9050919050565b7f4e487b7100000000000000000000000000000000000000000000000000000000600052603260045260246000fd5b7f4e487b7100000000000000000000000000000000000000000000000000000000600052601160045260246000fd5b6000611052826107b7565b915061105d836107b7565b925082820190508082111561107557611074611018565b5b92915050565b7f4f6e6c792072656c6179657220616c6c6f776564000000000000000000000000600082015250565b60006110b1601483610f46565b91506110bc8261107b565b602082019050919050565b600060208201905081810360008301526110e0816110a4565b9050919050565b60006110fa6110f58461087c565b610861565b9050808382526020820190506020840283018581111561111d5761111c6108a8565b5b835b8181101561114657806111328882610ef1565b84526020840193505060208101905061111f565b5050509392505050565b600082601f830112611165576111646107eb565b5b81516111758482602086016110e7565b91505092915050565b600061118982610c38565b9050919050565b6111998161117e565b81146111a457600080fd5b50565b6000815190506111b681611190565b92915050565b600080604083850312156111d3576111d2610746565b5b600083015167ffffffffffffffff8111156111f1576111f061074b565b5b6111fd85828601611150565b925050602061120e858286016111a7565b9150509250929050565b600081549050919050565b60008190508160005260206000209050919050565b60008160001c9050919050565b6000819050919050565b600061126261125d83611238565b611245565b9050919050565b6000611275825461124f565b9050919050565b6000600182019050919050565b600061129482611218565b61129e8185610d9b565b93506112a983611223565b8060005b838110156112e1576112be82611269565b6112c88882610dcb565b97506112d38361127c565b9250506001810190506112ad565b5085935050505092915050565b6112f781610c58565b82525050565b600060808201905081810360008301526113178187611289565b90506113266020830186610e70565b61133360408301856112ee565b61134060608301846107c1565b95945050505050565b600060408201905061135e60008301856107c1565b61136b60208301846112ee565b9392505050565b600081519050919050565b600082825260208201905092915050565b60005b838110156113ac578082015181840152602081019050611391565b60008484015250505050565b60006113c382611372565b6113cd818561137d565b93506113dd81856020860161138e565b6113e6816107f0565b840191505092915050565b600060e082019050611406600083018a610e70565b61141360208301896112ee565b818103604083015261142581886113b8565b90506114346060830187610eab565b61144160808301866107c1565b61144e60a0830185610e70565b61145b60c08301846112ee565b98975050505050505050565b600067ffffffffffffffff82169050919050565b61148481611467565b811461148f57600080fd5b50565b6000815190506114a18161147b565b92915050565b6000602082840312156114bd576114bc610746565b5b60006114cb84828501611492565b9150509291505056fea2646970667358221220f2bb35cabca4e9725849b55d03b2c6eb2ad90ff75595280947ac8f3e1e4bcb6e64736f6c63430008170033",
					"opcodes": "PUSH1 0xA0 PUSH1 0x40 MSTORE CALLVALUE DUP1 ISZERO PUSH3 0x11 JUMPI PUSH1 0x0 DUP1 REVERT JUMPDEST POP PUSH1 0x40 MLOAD PUSH3 0x1650 CODESIZE SUB DUP1 PUSH3 0x1650 DUP4 CODECOPY DUP2 DUP2 ADD PUSH1 0x40 MSTORE DUP2 ADD SWAP1 PUSH3 0x37 SWAP2 SWAP1 PUSH3 0xDC JUMP JUMPDEST DUP1 PUSH20 0xFFFFFFFFFFFFFFFFFFFFFFFFFFFFFFFFFFFFFFFF AND PUSH1 0x80 DUP2 PUSH20 0xFFFFFFFFFFFFFFFFFFFFFFFFFFFFFFFFFFFFFFFF AND DUP2 MSTORE POP POP POP PUSH3 0x10E JUMP JUMPDEST PUSH1 0x0 DUP1 REVERT JUMPDEST PUSH1 0x0 PUSH20 0xFFFFFFFFFFFFFFFFFFFFFFFFFFFFFFFFFFFFFFFF DUP3 AND SWAP1 POP SWAP2 SWAP1 POP JUMP JUMPDEST PUSH1 0x0 PUSH3 0xA4 DUP3 PUSH3 0x77 JUMP JUMPDEST SWAP1 POP SWAP2 SWAP1 POP JUMP JUMPDEST PUSH3 0xB6 DUP2 PUSH3 0x97 JUMP JUMPDEST DUP2 EQ PUSH3 0xC2 JUMPI PUSH1 0x0 DUP1 REVERT JUMPDEST POP JUMP JUMPDEST PUSH1 0x0 DUP2 MLOAD SWAP1 POP PUSH3 0xD6 DUP2 PUSH3 0xAB JUMP JUMPDEST SWAP3 SWAP2 POP POP JUMP JUMPDEST PUSH1 0x0 PUSH1 0x20 DUP3 DUP5 SUB SLT ISZERO PUSH3 0xF5 JUMPI PUSH3 0xF4 PUSH3 0x72 JUMP JUMPDEST JUMPDEST PUSH1 0x0 PUSH3 0x105 DUP5 DUP3 DUP6 ADD PUSH3 0xC5 JUMP JUMPDEST SWAP2 POP POP SWAP3 SWAP2 POP POP JUMP JUMPDEST PUSH1 0x80 MLOAD PUSH2 0x150A PUSH3 0x146 PUSH1 0x0 CODECOPY PUSH1 0x0 DUP2 DUP2 PUSH2 0x23C ADD MSTORE DUP2 DUP2 PUSH2 0x377 ADD MSTORE DUP2 DUP2 PUSH2 0x491 ADD MSTORE DUP2 DUP2 PUSH2 0x557 ADD MSTORE PUSH2 0x634 ADD MSTORE PUSH2 0x150A PUSH1 0x0 RETURN INVALID PUSH1 0x80 PUSH1 0x40 MSTORE PUSH1 0x4 CALLDATASIZE LT PUSH2 0x86 JUMPI PUSH1 0x0 CALLDATALOAD PUSH1 0xE0 SHR DUP1 PUSH4 0x75CCCBB1 GT PUSH2 0x59 JUMPI DUP1 PUSH4 0x75CCCBB1 EQ PUSH2 0x15E JUMPI DUP1 PUSH4 0x8A4BCCED EQ PUSH2 0x17A JUMPI DUP1 PUSH4 0xDA25B725 EQ PUSH2 0x1A5 JUMPI DUP1 PUSH4 0xE5AD2984 EQ PUSH2 0x1D0 JUMPI DUP1 PUSH4 0xF6FF2460 EQ PUSH2 0x20D JUMPI PUSH2 0x86 JUMP JUMPDEST DUP1 PUSH4 0x28BD75CE EQ PUSH2 0x8B JUMPI DUP1 PUSH4 0x4D5575B4 EQ PUSH2 0xC8 JUMPI DUP1 PUSH4 0x529DCA32 EQ PUSH2 0x105 JUMPI DUP1 PUSH4 0x70602A1F EQ PUSH2 0x121 JUMPI JUMPDEST PUSH1 0x0 DUP1 REVERT JUMPDEST CALLVALUE DUP1 ISZERO PUSH2 0x97 JUMPI PUSH1 0x0 DUP1 REVERT JUMPDEST POP PUSH2 0xB2 PUSH1 0x4 DUP1 CALLDATASIZE SUB DUP2 ADD SWAP1 PUSH2 0xAD SWAP2 SWAP1 PUSH2 0x78A JUMP JUMPDEST PUSH2 0x238 JUMP JUMPDEST PUSH1 0x40 MLOAD PUSH2 0xBF SWAP2 SWAP1 PUSH2 0x7D0 JUMP JUMPDEST PUSH1 0x40 MLOAD DUP1 SWAP2 SUB SWAP1 RETURN JUMPDEST CALLVALUE DUP1 ISZERO PUSH2 0xD4 JUMPI PUSH1 0x0 DUP1 REVERT JUMPDEST POP PUSH2 0xEF PUSH1 0x4 DUP1 CALLDATASIZE SUB DUP2 ADD SWAP1 PUSH2 0xEA SWAP2 SWAP1 PUSH2 0x970 JUMP JUMPDEST PUSH2 0x2E5 JUMP JUMPDEST PUSH1 0x40 MLOAD PUSH2 0xFC SWAP2 SWAP1 PUSH2 0x7D0 JUMP JUMPDEST PUSH1 0x40 MLOAD DUP1 SWAP2 SUB SWAP1 RETURN JUMPDEST PUSH2 0x11F PUSH1 0x4 DUP1 CALLDATASIZE SUB DUP2 ADD SWAP1 PUSH2 0x11A SWAP2 SWAP1 PUSH2 0xB85 JUMP JUMPDEST PUSH2 0x375 JUMP JUMPDEST STOP JUMPDEST CALLVALUE DUP1 ISZERO PUSH2 0x12D JUMPI PUSH1 0x0 DUP1 REVERT JUMPDEST POP PUSH2 0x148 PUSH1 0x4 DUP1 CALLDATASIZE SUB DUP2 ADD SWAP1 PUSH2 0x143 SWAP2 SWAP1 PUSH2 0x78A JUMP JUMPDEST PUSH2 0x48D JUMP JUMPDEST PUSH1 0x40 MLOAD PUSH2 0x155 SWAP2 SWAP1 PUSH2 0x7D0 JUMP JUMPDEST PUSH1 0x40 MLOAD DUP1 SWAP2 SUB SWAP1 RETURN JUMPDEST PUSH2 0x178 PUSH1 0x4 DUP1 CALLDATASIZE SUB DUP2 ADD SWAP1 PUSH2 0x173 SWAP2 SWAP1 PUSH2 0xC96 JUMP JUMPDEST PUSH2 0x53B JUMP JUMPDEST STOP JUMPDEST CALLVALUE DUP1 ISZERO PUSH2 0x186 JUMPI PUSH1 0x0 DUP1 REVERT JUMPDEST POP PUSH2 0x18F PUSH2 0x62C JUMP JUMPDEST PUSH1 0x40 MLOAD PUSH2 0x19C SWAP2 SWAP1 PUSH2 0x7D0 JUMP JUMPDEST PUSH1 0x40 MLOAD DUP1 SWAP2 SUB SWAP1 RETURN JUMPDEST CALLVALUE DUP1 ISZERO PUSH2 0x1B1 JUMPI PUSH1 0x0 DUP1 REVERT JUMPDEST POP PUSH2 0x1BA PUSH2 0x632 JUMP JUMPDEST PUSH1 0x40 MLOAD PUSH2 0x1C7 SWAP2 SWAP1 PUSH2 0xD48 JUMP JUMPDEST PUSH1 0x40 MLOAD DUP1 SWAP2 SUB SWAP1 RETURN JUMPDEST CALLVALUE DUP1 ISZERO PUSH2 0x1DC JUMPI PUSH1 0x0 DUP1 REVERT JUMPDEST POP PUSH2 0x1F7 PUSH1 0x4 DUP1 CALLDATASIZE SUB DUP2 ADD SWAP1 PUSH2 0x1F2 SWAP2 SWAP1 PUSH2 0xD63 JUMP JUMPDEST PUSH2 0x656 JUMP JUMPDEST PUSH1 0x40 MLOAD PUSH2 0x204 SWAP2 SWAP1 PUSH2 0x7D0 JUMP JUMPDEST PUSH1 0x40 MLOAD DUP1 SWAP2 SUB SWAP1 RETURN JUMPDEST CALLVALUE DUP1 ISZERO PUSH2 0x219 JUMPI PUSH1 0x0 DUP1 REVERT JUMPDEST POP PUSH2 0x222 PUSH2 0x67A JUMP JUMPDEST PUSH1 0x40 MLOAD PUSH2 0x22F SWAP2 SWAP1 PUSH2 0xE4E JUMP JUMPDEST PUSH1 0x40 MLOAD DUP1 SWAP2 SUB SWAP1 RETURN JUMPDEST PUSH1 0x0 PUSH32 0x0 PUSH20 0xFFFFFFFFFFFFFFFFFFFFFFFFFFFFFFFFFFFFFFFF AND PUSH4 0xC23EE3C3 DUP4 PUSH1 0x0 PUSH3 0x2DC6C0 PUSH1 0x40 MLOAD DUP5 PUSH4 0xFFFFFFFF AND PUSH1 0xE0 SHL DUP2 MSTORE PUSH1 0x4 ADD PUSH2 0x29B SWAP4 SWAP3 SWAP2 SWAP1 PUSH2 0xEBA JUMP JUMPDEST PUSH1 0x40 DUP1 MLOAD DUP1 DUP4 SUB DUP2 DUP7 GAS STATICCALL ISZERO DUP1 ISZERO PUSH2 0x2B7 JUMPI RETURNDATASIZE PUSH1 0x0 DUP1 RETURNDATACOPY RETURNDATASIZE PUSH1 0x0 REVERT JUMPDEST POP POP POP POP PUSH1 0x40 MLOAD RETURNDATASIZE PUSH1 0x1F NOT PUSH1 0x1F DUP3 ADD AND DUP3 ADD DUP1 PUSH1 0x40 MSTORE POP DUP2 ADD SWAP1 PUSH2 0x2DB SWAP2 SWAP1 PUSH2 0xF06 JUMP JUMPDEST POP DUP1 SWAP2 POP POP SWAP2 SWAP1 POP JUMP JUMPDEST PUSH1 0x0 DUP1 PUSH1 0x0 DUP1 SLOAD SWAP1 POP GT PUSH2 0x32E JUMPI PUSH1 0x40 MLOAD PUSH32 0x8C379A000000000000000000000000000000000000000000000000000000000 DUP2 MSTORE PUSH1 0x4 ADD PUSH2 0x325 SWAP1 PUSH2 0xFC9 JUMP JUMPDEST PUSH1 0x40 MLOAD DUP1 SWAP2 SUB SWAP1 REVERT JUMPDEST PUSH1 0x0 JUMPDEST DUP3 MLOAD DUP2 LT ISZERO PUSH2 0x36F JUMPI DUP3 DUP2 DUP2 MLOAD DUP2 LT PUSH2 0x34D JUMPI PUSH2 0x34C PUSH2 0xFE9 JUMP JUMPDEST JUMPDEST PUSH1 0x20 MUL PUSH1 0x20 ADD ADD MLOAD DUP3 PUSH2 0x360 SWAP2 SWAP1 PUSH2 0x1047 JUMP JUMPDEST SWAP2 POP DUP1 DUP1 PUSH1 0x1 ADD SWAP2 POP POP PUSH2 0x331 JUMP JUMPDEST POP SWAP2 SWAP1 POP JUMP JUMPDEST PUSH32 0x0 PUSH20 0xFFFFFFFFFFFFFFFFFFFFFFFFFFFFFFFFFFFFFFFF AND CALLER PUSH20 0xFFFFFFFFFFFFFFFFFFFFFFFFFFFFFFFFFFFFFFFF AND EQ PUSH2 0x403 JUMPI PUSH1 0x40 MLOAD PUSH32 0x8C379A000000000000000000000000000000000000000000000000000000000 DUP2 MSTORE PUSH1 0x4 ADD PUSH2 0x3FA SWAP1 PUSH2 0x10C7 JUMP JUMPDEST PUSH1 0x40 MLOAD DUP1 SWAP2 SUB SWAP1 REVERT JUMPDEST PUSH1 0x0 DUP1 DUP7 DUP1 PUSH1 0x20 ADD SWAP1 MLOAD DUP2 ADD SWAP1 PUSH2 0x41A SWAP2 SWAP1 PUSH2 0x11BC JUMP JUMPDEST SWAP2 POP SWAP2 POP DUP2 PUSH1 0x0 SWAP1 DUP1 MLOAD SWAP1 PUSH1 0x20 ADD SWAP1 PUSH2 0x434 SWAP3 SWAP2 SWAP1 PUSH2 0x6D2 JUMP JUMPDEST POP PUSH2 0x43E DUP3 PUSH2 0x2E5 JUMP JUMPDEST PUSH1 0x1 DUP2 SWAP1 SSTORE POP PUSH32 0xE75DB9E57D7C6C88542E0B44318AC61FF3B6266D300924E997786EF5E9DB64DD PUSH1 0x0 DUP6 DUP4 PUSH1 0x1 SLOAD PUSH1 0x40 MLOAD PUSH2 0x47C SWAP5 SWAP4 SWAP3 SWAP2 SWAP1 PUSH2 0x12FD JUMP JUMPDEST PUSH1 0x40 MLOAD DUP1 SWAP2 SUB SWAP1 LOG1 POP POP POP POP POP POP POP JUMP JUMPDEST PUSH1 0x0 PUSH32 0x0 PUSH20 0xFFFFFFFFFFFFFFFFFFFFFFFFFFFFFFFFFFFFFFFF AND PUSH4 0xC23EE3C3 DUP4 PUSH1 0x0 PUSH3 0x2DC6C0 PUSH1 0x40 MLOAD DUP5 PUSH4 0xFFFFFFFF AND PUSH1 0xE0 SHL DUP2 MSTORE PUSH1 0x4 ADD PUSH2 0x4F0 SWAP4 SWAP3 SWAP2 SWAP1 PUSH2 0xEBA JUMP JUMPDEST PUSH1 0x40 DUP1 MLOAD DUP1 DUP4 SUB DUP2 DUP7 GAS STATICCALL ISZERO DUP1 ISZERO PUSH2 0x50C JUMPI RETURNDATASIZE PUSH1 0x0 DUP1 RETURNDATACOPY RETURNDATASIZE PUSH1 0x0 REVERT JUMPDEST POP POP POP POP PUSH1 0x40 MLOAD RETURNDATASIZE PUSH1 0x1F NOT PUSH1 0x1F DUP3 ADD AND DUP3 ADD DUP1 PUSH1 0x40 MSTORE POP DUP2 ADD SWAP1 PUSH2 0x530 SWAP2 SWAP1 PUSH2 0xF06 JUMP JUMPDEST SWAP1 POP DUP1 SWAP2 POP POP SWAP2 SWAP1 POP JUMP JUMPDEST PUSH1 0x0 PUSH2 0x546 DUP5 PUSH2 0x238 JUMP JUMPDEST SWAP1 POP DUP1 CALLVALUE LT ISZERO PUSH2 0x555 JUMPI PUSH1 0x0 DUP1 REVERT JUMPDEST PUSH32 0x0 PUSH20 0xFFFFFFFFFFFFFFFFFFFFFFFFFFFFFFFFFFFFFFFF AND PUSH4 0x4B5CA6F4 DUP3 DUP7 DUP7 PUSH1 0x1 SLOAD CALLER PUSH1 0x40 MLOAD PUSH1 0x20 ADD PUSH2 0x5A9 SWAP3 SWAP2 SWAP1 PUSH2 0x1349 JUMP JUMPDEST PUSH1 0x40 MLOAD PUSH1 0x20 DUP2 DUP4 SUB SUB DUP2 MSTORE SWAP1 PUSH1 0x40 MSTORE PUSH1 0x0 PUSH3 0x2DC6C0 DUP10 CALLER PUSH1 0x40 MLOAD DUP10 PUSH4 0xFFFFFFFF AND PUSH1 0xE0 SHL DUP2 MSTORE PUSH1 0x4 ADD PUSH2 0x5E2 SWAP8 SWAP7 SWAP6 SWAP5 SWAP4 SWAP3 SWAP2 SWAP1 PUSH2 0x13F1 JUMP JUMPDEST PUSH1 0x20 PUSH1 0x40 MLOAD DUP1 DUP4 SUB DUP2 DUP6 DUP9 GAS CALL ISZERO DUP1 ISZERO PUSH2 0x600 JUMPI RETURNDATASIZE PUSH1 0x0 DUP1 RETURNDATACOPY RETURNDATASIZE PUSH1 0x0 REVERT JUMPDEST POP POP POP POP POP PUSH1 0x40 MLOAD RETURNDATASIZE PUSH1 0x1F NOT PUSH1 0x1F DUP3 ADD AND DUP3 ADD DUP1 PUSH1 0x40 MSTORE POP DUP2 ADD SWAP1 PUSH2 0x625 SWAP2 SWAP1 PUSH2 0x14A7 JUMP JUMPDEST POP POP POP POP POP JUMP JUMPDEST PUSH1 0x1 SLOAD DUP2 JUMP JUMPDEST PUSH32 0x0 DUP2 JUMP JUMPDEST PUSH1 0x0 DUP2 DUP2 SLOAD DUP2 LT PUSH2 0x666 JUMPI PUSH1 0x0 DUP1 REVERT JUMPDEST SWAP1 PUSH1 0x0 MSTORE PUSH1 0x20 PUSH1 0x0 KECCAK256 ADD PUSH1 0x0 SWAP2 POP SWAP1 POP SLOAD DUP2 JUMP JUMPDEST PUSH1 0x60 PUSH1 0x0 DUP1 SLOAD DUP1 PUSH1 0x20 MUL PUSH1 0x20 ADD PUSH1 0x40 MLOAD SWAP1 DUP2 ADD PUSH1 0x40 MSTORE DUP1 SWAP3 SWAP2 SWAP1 DUP2 DUP2 MSTORE PUSH1 0x20 ADD DUP3 DUP1 SLOAD DUP1 ISZERO PUSH2 0x6C8 JUMPI PUSH1 0x20 MUL DUP3 ADD SWAP2 SWAP1 PUSH1 0x0 MSTORE PUSH1 0x20 PUSH1 0x0 KECCAK256 SWAP1 JUMPDEST DUP2 SLOAD DUP2 MSTORE PUSH1 0x20 ADD SWAP1 PUSH1 0x1 ADD SWAP1 DUP1 DUP4 GT PUSH2 0x6B4 JUMPI JUMPDEST POP POP POP POP POP SWAP1 POP SWAP1 JUMP JUMPDEST DUP3 DUP1 SLOAD DUP3 DUP3 SSTORE SWAP1 PUSH1 0x0 MSTORE PUSH1 0x20 PUSH1 0x0 KECCAK256 SWAP1 DUP2 ADD SWAP3 DUP3 ISZERO PUSH2 0x70E JUMPI SWAP2 PUSH1 0x20 MUL DUP3 ADD JUMPDEST DUP3 DUP2 GT ISZERO PUSH2 0x70D JUMPI DUP3 MLOAD DUP3 SSTORE SWAP2 PUSH1 0x20 ADD SWAP2 SWAP1 PUSH1 0x1 ADD SWAP1 PUSH2 0x6F2 JUMP JUMPDEST JUMPDEST POP SWAP1 POP PUSH2 0x71B SWAP2 SWAP1 PUSH2 0x71F JUMP JUMPDEST POP SWAP1 JUMP JUMPDEST JUMPDEST DUP1 DUP3 GT ISZERO PUSH2 0x738 JUMPI PUSH1 0x0 DUP2 PUSH1 0x0 SWAP1 SSTORE POP PUSH1 0x1 ADD PUSH2 0x720 JUMP JUMPDEST POP SWAP1 JUMP JUMPDEST PUSH1 0x0 PUSH1 0x40 MLOAD SWAP1 POP SWAP1 JUMP JUMPDEST PUSH1 0x0 DUP1 REVERT JUMPDEST PUSH1 0x0 DUP1 REVERT JUMPDEST PUSH1 0x0 PUSH2 0xFFFF DUP3 AND SWAP1 POP SWAP2 SWAP1 POP JUMP JUMPDEST PUSH2 0x767 DUP2 PUSH2 0x750 JUMP JUMPDEST DUP2 EQ PUSH2 0x772 JUMPI PUSH1 0x0 DUP1 REVERT JUMPDEST POP JUMP JUMPDEST PUSH1 0x0 DUP2 CALLDATALOAD SWAP1 POP PUSH2 0x784 DUP2 PUSH2 0x75E JUMP JUMPDEST SWAP3 SWAP2 POP POP JUMP JUMPDEST PUSH1 0x0 PUSH1 0x20 DUP3 DUP5 SUB SLT ISZERO PUSH2 0x7A0 JUMPI PUSH2 0x79F PUSH2 0x746 JUMP JUMPDEST JUMPDEST PUSH1 0x0 PUSH2 0x7AE DUP5 DUP3 DUP6 ADD PUSH2 0x775 JUMP JUMPDEST SWAP2 POP POP SWAP3 SWAP2 POP POP JUMP JUMPDEST PUSH1 0x0 DUP2 SWAP1 POP SWAP2 SWAP1 POP JUMP JUMPDEST PUSH2 0x7CA DUP2 PUSH2 0x7B7 JUMP JUMPDEST DUP3 MSTORE POP POP JUMP JUMPDEST PUSH1 0x0 PUSH1 0x20 DUP3 ADD SWAP1 POP PUSH2 0x7E5 PUSH1 0x0 DUP4 ADD DUP5 PUSH2 0x7C1 JUMP JUMPDEST SWAP3 SWAP2 POP POP JUMP JUMPDEST PUSH1 0x0 DUP1 REVERT JUMPDEST PUSH1 0x0 PUSH1 0x1F NOT PUSH1 0x1F DUP4 ADD AND SWAP1 POP SWAP2 SWAP1 POP JUMP JUMPDEST PUSH32 0x4E487B7100000000000000000000000000000000000000000000000000000000 PUSH1 0x0 MSTORE PUSH1 0x41 PUSH1 0x4 MSTORE PUSH1 0x24 PUSH1 0x0 REVERT JUMPDEST PUSH2 0x839 DUP3 PUSH2 0x7F0 JUMP JUMPDEST DUP2 ADD DUP2 DUP2 LT PUSH8 0xFFFFFFFFFFFFFFFF DUP3 GT OR ISZERO PUSH2 0x858 JUMPI PUSH2 0x857 PUSH2 0x801 JUMP JUMPDEST JUMPDEST DUP1 PUSH1 0x40 MSTORE POP POP POP JUMP JUMPDEST PUSH1 0x0 PUSH2 0x86B PUSH2 0x73C JUMP JUMPDEST SWAP1 POP PUSH2 0x877 DUP3 DUP3 PUSH2 0x830 JUMP JUMPDEST SWAP2 SWAP1 POP JUMP JUMPDEST PUSH1 0x0 PUSH8 0xFFFFFFFFFFFFFFFF DUP3 GT ISZERO PUSH2 0x897 JUMPI PUSH2 0x896 PUSH2 0x801 JUMP JUMPDEST JUMPDEST PUSH1 0x20 DUP3 MUL SWAP1 POP PUSH1 0x20 DUP2 ADD SWAP1 POP SWAP2 SWAP1 POP JUMP JUMPDEST PUSH1 0x0 DUP1 REVERT JUMPDEST PUSH2 0x8B6 DUP2 PUSH2 0x7B7 JUMP JUMPDEST DUP2 EQ PUSH2 0x8C1 JUMPI PUSH1 0x0 DUP1 REVERT JUMPDEST POP JUMP JUMPDEST PUSH1 0x0 DUP2 CALLDATALOAD SWAP1 POP PUSH2 0x8D3 DUP2 PUSH2 0x8AD JUMP JUMPDEST SWAP3 SWAP2 POP POP JUMP JUMPDEST PUSH1 0x0 PUSH2 0x8EC PUSH2 0x8E7 DUP5 PUSH2 0x87C JUMP JUMPDEST PUSH2 0x861 JUMP JUMPDEST SWAP1 POP DUP1 DUP4 DUP3 MSTORE PUSH1 0x20 DUP3 ADD SWAP1 POP PUSH1 0x20 DUP5 MUL DUP4 ADD DUP6 DUP2 GT ISZERO PUSH2 0x90F JUMPI PUSH2 0x90E PUSH2 0x8A8 JUMP JUMPDEST JUMPDEST DUP4 JUMPDEST DUP2 DUP2 LT ISZERO PUSH2 0x938 JUMPI DUP1 PUSH2 0x924 DUP9 DUP3 PUSH2 0x8C4 JUMP JUMPDEST DUP5 MSTORE PUSH1 0x20 DUP5 ADD SWAP4 POP POP PUSH1 0x20 DUP2 ADD SWAP1 POP PUSH2 0x911 JUMP JUMPDEST POP POP POP SWAP4 SWAP3 POP POP POP JUMP JUMPDEST PUSH1 0x0 DUP3 PUSH1 0x1F DUP4 ADD SLT PUSH2 0x957 JUMPI PUSH2 0x956 PUSH2 0x7EB JUMP JUMPDEST JUMPDEST DUP2 CALLDATALOAD PUSH2 0x967 DUP5 DUP3 PUSH1 0x20 DUP7 ADD PUSH2 0x8D9 JUMP JUMPDEST SWAP2 POP POP SWAP3 SWAP2 POP POP JUMP JUMPDEST PUSH1 0x0 PUSH1 0x20 DUP3 DUP5 SUB SLT ISZERO PUSH2 0x986 JUMPI PUSH2 0x985 PUSH2 0x746 JUMP JUMPDEST JUMPDEST PUSH1 0x0 DUP3 ADD CALLDATALOAD PUSH8 0xFFFFFFFFFFFFFFFF DUP2 GT ISZERO PUSH2 0x9A4 JUMPI PUSH2 0x9A3 PUSH2 0x74B JUMP JUMPDEST JUMPDEST PUSH2 0x9B0 DUP5 DUP3 DUP6 ADD PUSH2 0x942 JUMP JUMPDEST SWAP2 POP POP SWAP3 SWAP2 POP POP JUMP JUMPDEST PUSH1 0x0 DUP1 REVERT JUMPDEST PUSH1 0x0 PUSH8 0xFFFFFFFFFFFFFFFF DUP3 GT ISZERO PUSH2 0x9D9 JUMPI PUSH2 0x9D8 PUSH2 0x801 JUMP JUMPDEST JUMPDEST PUSH2 0x9E2 DUP3 PUSH2 0x7F0 JUMP JUMPDEST SWAP1 POP PUSH1 0x20 DUP2 ADD SWAP1 POP SWAP2 SWAP1 POP JUMP JUMPDEST DUP3 DUP2 DUP4 CALLDATACOPY PUSH1 0x0 DUP4 DUP4 ADD MSTORE POP POP POP JUMP JUMPDEST PUSH1 0x0 PUSH2 0xA11 PUSH2 0xA0C DUP5 PUSH2 0x9BE JUMP JUMPDEST PUSH2 0x861 JUMP JUMPDEST SWAP1 POP DUP3 DUP2 MSTORE PUSH1 0x20 DUP2 ADD DUP5 DUP5 DUP5 ADD GT ISZERO PUSH2 0xA2D JUMPI PUSH2 0xA2C PUSH2 0x9B9 JUMP JUMPDEST JUMPDEST PUSH2 0xA38 DUP5 DUP3 DUP6 PUSH2 0x9EF JUMP JUMPDEST POP SWAP4 SWAP3 POP POP POP JUMP JUMPDEST PUSH1 0x0 DUP3 PUSH1 0x1F DUP4 ADD SLT PUSH2 0xA55 JUMPI PUSH2 0xA54 PUSH2 0x7EB JUMP JUMPDEST JUMPDEST DUP2 CALLDATALOAD PUSH2 0xA65 DUP5 DUP3 PUSH1 0x20 DUP7 ADD PUSH2 0x9FE JUMP JUMPDEST SWAP2 POP POP SWAP3 SWAP2 POP POP JUMP JUMPDEST PUSH1 0x0 PUSH8 0xFFFFFFFFFFFFFFFF DUP3 GT ISZERO PUSH2 0xA89 JUMPI PUSH2 0xA88 PUSH2 0x801 JUMP JUMPDEST JUMPDEST PUSH1 0x20 DUP3 MUL SWAP1 POP PUSH1 0x20 DUP2 ADD SWAP1 POP SWAP2 SWAP1 POP JUMP JUMPDEST PUSH1 0x0 PUSH2 0xAAD PUSH2 0xAA8 DUP5 PUSH2 0xA6E JUMP JUMPDEST PUSH2 0x861 JUMP JUMPDEST SWAP1 POP DUP1 DUP4 DUP3 MSTORE PUSH1 0x20 DUP3 ADD SWAP1 POP PUSH1 0x20 DUP5 MUL DUP4 ADD DUP6 DUP2 GT ISZERO PUSH2 0xAD0 JUMPI PUSH2 0xACF PUSH2 0x8A8 JUMP JUMPDEST JUMPDEST DUP4 JUMPDEST DUP2 DUP2 LT ISZERO PUSH2 0xB17 JUMPI DUP1 CALLDATALOAD PUSH8 0xFFFFFFFFFFFFFFFF DUP2 GT ISZERO PUSH2 0xAF5 JUMPI PUSH2 0xAF4 PUSH2 0x7EB JUMP JUMPDEST JUMPDEST DUP1 DUP7 ADD PUSH2 0xB02 DUP10 DUP3 PUSH2 0xA40 JUMP JUMPDEST DUP6 MSTORE PUSH1 0x20 DUP6 ADD SWAP5 POP POP POP PUSH1 0x20 DUP2 ADD SWAP1 POP PUSH2 0xAD2 JUMP JUMPDEST POP POP POP SWAP4 SWAP3 POP POP POP JUMP JUMPDEST PUSH1 0x0 DUP3 PUSH1 0x1F DUP4 ADD SLT PUSH2 0xB36 JUMPI PUSH2 0xB35 PUSH2 0x7EB JUMP JUMPDEST JUMPDEST DUP2 CALLDATALOAD PUSH2 0xB46 DUP5 DUP3 PUSH1 0x20 DUP7 ADD PUSH2 0xA9A JUMP JUMPDEST SWAP2 POP POP SWAP3 SWAP2 POP POP JUMP JUMPDEST PUSH1 0x0 DUP2 SWAP1 POP SWAP2 SWAP1 POP JUMP JUMPDEST PUSH2 0xB62 DUP2 PUSH2 0xB4F JUMP JUMPDEST DUP2 EQ PUSH2 0xB6D JUMPI PUSH1 0x0 DUP1 REVERT JUMPDEST POP JUMP JUMPDEST PUSH1 0x0 DUP2 CALLDATALOAD SWAP1 POP PUSH2 0xB7F DUP2 PUSH2 0xB59 JUMP JUMPDEST SWAP3 SWAP2 POP POP JUMP JUMPDEST PUSH1 0x0 DUP1 PUSH1 0x0 DUP1 PUSH1 0x0 PUSH1 0xA0 DUP7 DUP9 SUB SLT ISZERO PUSH2 0xBA1 JUMPI PUSH2 0xBA0 PUSH2 0x746 JUMP JUMPDEST JUMPDEST PUSH1 0x0 DUP7 ADD CALLDATALOAD PUSH8 0xFFFFFFFFFFFFFFFF DUP2 GT ISZERO PUSH2 0xBBF JUMPI PUSH2 0xBBE PUSH2 0x74B JUMP JUMPDEST JUMPDEST PUSH2 0xBCB DUP9 DUP3 DUP10 ADD PUSH2 0xA40 JUMP JUMPDEST SWAP6 POP POP PUSH1 0x20 DUP7 ADD CALLDATALOAD PUSH8 0xFFFFFFFFFFFFFFFF DUP2 GT ISZERO PUSH2 0xBEC JUMPI PUSH2 0xBEB PUSH2 0x74B JUMP JUMPDEST JUMPDEST PUSH2 0xBF8 DUP9 DUP3 DUP10 ADD PUSH2 0xB21 JUMP JUMPDEST SWAP5 POP POP PUSH1 0x40 PUSH2 0xC09 DUP9 DUP3 DUP10 ADD PUSH2 0xB70 JUMP JUMPDEST SWAP4 POP POP PUSH1 0x60 PUSH2 0xC1A DUP9 DUP3 DUP10 ADD PUSH2 0x775 JUMP JUMPDEST SWAP3 POP POP PUSH1 0x80 PUSH2 0xC2B DUP9 DUP3 DUP10 ADD PUSH2 0xB70 JUMP JUMPDEST SWAP2 POP POP SWAP3 SWAP6 POP SWAP3 SWAP6 SWAP1 SWAP4 POP JUMP JUMPDEST PUSH1 0x0 PUSH20 0xFFFFFFFFFFFFFFFFFFFFFFFFFFFFFFFFFFFFFFFF DUP3 AND SWAP1 POP SWAP2 SWAP1 POP JUMP JUMPDEST PUSH1 0x0 PUSH2 0xC63 DUP3 PUSH2 0xC38 JUMP JUMPDEST SWAP1 POP SWAP2 SWAP1 POP JUMP JUMPDEST PUSH2 0xC73 DUP2 PUSH2 0xC58 JUMP JUMPDEST DUP2 EQ PUSH2 0xC7E JUMPI PUSH1 0x0 DUP1 REVERT JUMPDEST POP JUMP JUMPDEST PUSH1 0x0 DUP2 CALLDATALOAD SWAP1 POP PUSH2 0xC90 DUP2 PUSH2 0xC6A JUMP JUMPDEST SWAP3 SWAP2 POP POP JUMP JUMPDEST PUSH1 0x0 DUP1 PUSH1 0x0 PUSH1 0x60 DUP5 DUP7 SUB SLT ISZERO PUSH2 0xCAF JUMPI PUSH2 0xCAE PUSH2 0x746 JUMP JUMPDEST JUMPDEST PUSH1 0x0 PUSH2 0xCBD DUP7 DUP3 DUP8 ADD PUSH2 0x775 JUMP JUMPDEST SWAP4 POP POP PUSH1 0x20 PUSH2 0xCCE DUP7 DUP3 DUP8 ADD PUSH2 0xC81 JUMP JUMPDEST SWAP3 POP POP PUSH1 0x40 PUSH2 0xCDF DUP7 DUP3 DUP8 ADD PUSH2 0x775 JUMP JUMPDEST SWAP2 POP POP SWAP3 POP SWAP3 POP SWAP3 JUMP JUMPDEST PUSH1 0x0 DUP2 SWAP1 POP SWAP2 SWAP1 POP JUMP JUMPDEST PUSH1 0x0 PUSH2 0xD0E PUSH2 0xD09 PUSH2 0xD04 DUP5 PUSH2 0xC38 JUMP JUMPDEST PUSH2 0xCE9 JUMP JUMPDEST PUSH2 0xC38 JUMP JUMPDEST SWAP1 POP SWAP2 SWAP1 POP JUMP JUMPDEST PUSH1 0x0 PUSH2 0xD20 DUP3 PUSH2 0xCF3 JUMP JUMPDEST SWAP1 POP SWAP2 SWAP1 POP JUMP JUMPDEST PUSH1 0x0 PUSH2 0xD32 DUP3 PUSH2 0xD15 JUMP JUMPDEST SWAP1 POP SWAP2 SWAP1 POP JUMP JUMPDEST PUSH2 0xD42 DUP2 PUSH2 0xD27 JUMP JUMPDEST DUP3 MSTORE POP POP JUMP JUMPDEST PUSH1 0x0 PUSH1 0x20 DUP3 ADD SWAP1 POP PUSH2 0xD5D PUSH1 0x0 DUP4 ADD DUP5 PUSH2 0xD39 JUMP JUMPDEST SWAP3 SWAP2 POP POP JUMP JUMPDEST PUSH1 0x0 PUSH1 0x20 DUP3 DUP5 SUB SLT ISZERO PUSH2 0xD79 JUMPI PUSH2 0xD78 PUSH2 0x746 JUMP JUMPDEST JUMPDEST PUSH1 0x0 PUSH2 0xD87 DUP5 DUP3 DUP6 ADD PUSH2 0x8C4 JUMP JUMPDEST SWAP2 POP POP SWAP3 SWAP2 POP POP JUMP JUMPDEST PUSH1 0x0 DUP2 MLOAD SWAP1 POP SWAP2 SWAP1 POP JUMP JUMPDEST PUSH1 0x0 DUP3 DUP3 MSTORE PUSH1 0x20 DUP3 ADD SWAP1 POP SWAP3 SWAP2 POP POP JUMP JUMPDEST PUSH1 0x0 DUP2 SWAP1 POP PUSH1 0x20 DUP3 ADD SWAP1 POP SWAP2 SWAP1 POP JUMP JUMPDEST PUSH2 0xDC5 DUP2 PUSH2 0x7B7 JUMP JUMPDEST DUP3 MSTORE POP POP JUMP JUMPDEST PUSH1 0x0 PUSH2 0xDD7 DUP4 DUP4 PUSH2 0xDBC JUMP JUMPDEST PUSH1 0x20 DUP4 ADD SWAP1 POP SWAP3 SWAP2 POP POP JUMP JUMPDEST PUSH1 0x0 PUSH1 0x20 DUP3 ADD SWAP1 POP SWAP2 SWAP1 POP JUMP JUMPDEST PUSH1 0x0 PUSH2 0xDFB DUP3 PUSH2 0xD90 JUMP JUMPDEST PUSH2 0xE05 DUP2 DUP6 PUSH2 0xD9B JUMP JUMPDEST SWAP4 POP PUSH2 0xE10 DUP4 PUSH2 0xDAC JUMP JUMPDEST DUP1 PUSH1 0x0 JUMPDEST DUP4 DUP2 LT ISZERO PUSH2 0xE41 JUMPI DUP2 MLOAD PUSH2 0xE28 DUP9 DUP3 PUSH2 0xDCB JUMP JUMPDEST SWAP8 POP PUSH2 0xE33 DUP4 PUSH2 0xDE3 JUMP JUMPDEST SWAP3 POP POP PUSH1 0x1 DUP2 ADD SWAP1 POP PUSH2 0xE14 JUMP JUMPDEST POP DUP6 SWAP4 POP POP POP POP SWAP3 SWAP2 POP POP JUMP JUMPDEST PUSH1 0x0 PUSH1 0x20 DUP3 ADD SWAP1 POP DUP2 DUP2 SUB PUSH1 0x0 DUP4 ADD MSTORE PUSH2 0xE68 DUP2 DUP5 PUSH2 0xDF0 JUMP JUMPDEST SWAP1 POP SWAP3 SWAP2 POP POP JUMP JUMPDEST PUSH2 0xE79 DUP2 PUSH2 0x750 JUMP JUMPDEST DUP3 MSTORE POP POP JUMP JUMPDEST PUSH1 0x0 DUP2 SWAP1 POP SWAP2 SWAP1 POP JUMP JUMPDEST PUSH1 0x0 PUSH2 0xEA4 PUSH2 0xE9F PUSH2 0xE9A DUP5 PUSH2 0xE7F JUMP JUMPDEST PUSH2 0xCE9 JUMP JUMPDEST PUSH2 0x7B7 JUMP JUMPDEST SWAP1 POP SWAP2 SWAP1 POP JUMP JUMPDEST PUSH2 0xEB4 DUP2 PUSH2 0xE89 JUMP JUMPDEST DUP3 MSTORE POP POP JUMP JUMPDEST PUSH1 0x0 PUSH1 0x60 DUP3 ADD SWAP1 POP PUSH2 0xECF PUSH1 0x0 DUP4 ADD DUP7 PUSH2 0xE70 JUMP JUMPDEST PUSH2 0xEDC PUSH1 0x20 DUP4 ADD DUP6 PUSH2 0xEAB JUMP JUMPDEST PUSH2 0xEE9 PUSH1 0x40 DUP4 ADD DUP5 PUSH2 0x7C1 JUMP JUMPDEST SWAP5 SWAP4 POP POP POP POP JUMP JUMPDEST PUSH1 0x0 DUP2 MLOAD SWAP1 POP PUSH2 0xF00 DUP2 PUSH2 0x8AD JUMP JUMPDEST SWAP3 SWAP2 POP POP JUMP JUMPDEST PUSH1 0x0 DUP1 PUSH1 0x40 DUP4 DUP6 SUB SLT ISZERO PUSH2 0xF1D JUMPI PUSH2 0xF1C PUSH2 0x746 JUMP JUMPDEST JUMPDEST PUSH1 0x0 PUSH2 0xF2B DUP6 DUP3 DUP7 ADD PUSH2 0xEF1 JUMP JUMPDEST SWAP3 POP POP PUSH1 0x20 PUSH2 0xF3C DUP6 DUP3 DUP7 ADD PUSH2 0xEF1 JUMP JUMPDEST SWAP2 POP POP SWAP3 POP SWAP3 SWAP1 POP JUMP JUMPDEST PUSH1 0x0 DUP3 DUP3 MSTORE PUSH1 0x20 DUP3 ADD SWAP1 POP SWAP3 SWAP2 POP POP JUMP JUMPDEST PUSH32 0x4172726179206D75737420636F6E7461696E206174206C65617374206F6E6520 PUSH1 0x0 DUP3 ADD MSTORE PUSH32 0x656C656D656E7400000000000000000000000000000000000000000000000000 PUSH1 0x20 DUP3 ADD MSTORE POP JUMP JUMPDEST PUSH1 0x0 PUSH2 0xFB3 PUSH1 0x27 DUP4 PUSH2 0xF46 JUMP JUMPDEST SWAP2 POP PUSH2 0xFBE DUP3 PUSH2 0xF57 JUMP JUMPDEST PUSH1 0x40 DUP3 ADD SWAP1 POP SWAP2 SWAP1 POP JUMP JUMPDEST PUSH1 0x0 PUSH1 0x20 DUP3 ADD SWAP1 POP DUP2 DUP2 SUB PUSH1 0x0 DUP4 ADD MSTORE PUSH2 0xFE2 DUP2 PUSH2 0xFA6 JUMP JUMPDEST SWAP1 POP SWAP2 SWAP1 POP JUMP JUMPDEST PUSH32 0x4E487B7100000000000000000000000000000000000000000000000000000000 PUSH1 0x0 MSTORE PUSH1 0x32 PUSH1 0x4 MSTORE PUSH1 0x24 PUSH1 0x0 REVERT JUMPDEST PUSH32 0x4E487B7100000000000000000000000000000000000000000000000000000000 PUSH1 0x0 MSTORE PUSH1 0x11 PUSH1 0x4 MSTORE PUSH1 0x24 PUSH1 0x0 REVERT JUMPDEST PUSH1 0x0 PUSH2 0x1052 DUP3 PUSH2 0x7B7 JUMP JUMPDEST SWAP2 POP PUSH2 0x105D DUP4 PUSH2 0x7B7 JUMP JUMPDEST SWAP3 POP DUP3 DUP3 ADD SWAP1 POP DUP1 DUP3 GT ISZERO PUSH2 0x1075 JUMPI PUSH2 0x1074 PUSH2 0x1018 JUMP JUMPDEST JUMPDEST SWAP3 SWAP2 POP POP JUMP JUMPDEST PUSH32 0x4F6E6C792072656C6179657220616C6C6F776564000000000000000000000000 PUSH1 0x0 DUP3 ADD MSTORE POP JUMP JUMPDEST PUSH1 0x0 PUSH2 0x10B1 PUSH1 0x14 DUP4 PUSH2 0xF46 JUMP JUMPDEST SWAP2 POP PUSH2 0x10BC DUP3 PUSH2 0x107B JUMP JUMPDEST PUSH1 0x20 DUP3 ADD SWAP1 POP SWAP2 SWAP1 POP JUMP JUMPDEST PUSH1 0x0 PUSH1 0x20 DUP3 ADD SWAP1 POP DUP2 DUP2 SUB PUSH1 0x0 DUP4 ADD MSTORE PUSH2 0x10E0 DUP2 PUSH2 0x10A4 JUMP JUMPDEST SWAP1 POP SWAP2 SWAP1 POP JUMP JUMPDEST PUSH1 0x0 PUSH2 0x10FA PUSH2 0x10F5 DUP5 PUSH2 0x87C JUMP JUMPDEST PUSH2 0x861 JUMP JUMPDEST SWAP1 POP DUP1 DUP4 DUP3 MSTORE PUSH1 0x20 DUP3 ADD SWAP1 POP PUSH1 0x20 DUP5 MUL DUP4 ADD DUP6 DUP2 GT ISZERO PUSH2 0x111D JUMPI PUSH2 0x111C PUSH2 0x8A8 JUMP JUMPDEST JUMPDEST DUP4 JUMPDEST DUP2 DUP2 LT ISZERO PUSH2 0x1146 JUMPI DUP1 PUSH2 0x1132 DUP9 DUP3 PUSH2 0xEF1 JUMP JUMPDEST DUP5 MSTORE PUSH1 0x20 DUP5 ADD SWAP4 POP POP PUSH1 0x20 DUP2 ADD SWAP1 POP PUSH2 0x111F JUMP JUMPDEST POP POP POP SWAP4 SWAP3 POP POP POP JUMP JUMPDEST PUSH1 0x0 DUP3 PUSH1 0x1F DUP4 ADD SLT PUSH2 0x1165 JUMPI PUSH2 0x1164 PUSH2 0x7EB JUMP JUMPDEST JUMPDEST DUP2 MLOAD PUSH2 0x1175 DUP5 DUP3 PUSH1 0x20 DUP7 ADD PUSH2 0x10E7 JUMP JUMPDEST SWAP2 POP POP SWAP3 SWAP2 POP POP JUMP JUMPDEST PUSH1 0x0 PUSH2 0x1189 DUP3 PUSH2 0xC38 JUMP JUMPDEST SWAP1 POP SWAP2 SWAP1 POP JUMP JUMPDEST PUSH2 0x1199 DUP2 PUSH2 0x117E JUMP JUMPDEST DUP2 EQ PUSH2 0x11A4 JUMPI PUSH1 0x0 DUP1 REVERT JUMPDEST POP JUMP JUMPDEST PUSH1 0x0 DUP2 MLOAD SWAP1 POP PUSH2 0x11B6 DUP2 PUSH2 0x1190 JUMP JUMPDEST SWAP3 SWAP2 POP POP JUMP JUMPDEST PUSH1 0x0 DUP1 PUSH1 0x40 DUP4 DUP6 SUB SLT ISZERO PUSH2 0x11D3 JUMPI PUSH2 0x11D2 PUSH2 0x746 JUMP JUMPDEST JUMPDEST PUSH1 0x0 DUP4 ADD MLOAD PUSH8 0xFFFFFFFFFFFFFFFF DUP2 GT ISZERO PUSH2 0x11F1 JUMPI PUSH2 0x11F0 PUSH2 0x74B JUMP JUMPDEST JUMPDEST PUSH2 0x11FD DUP6 DUP3 DUP7 ADD PUSH2 0x1150 JUMP JUMPDEST SWAP3 POP POP PUSH1 0x20 PUSH2 0x120E DUP6 DUP3 DUP7 ADD PUSH2 0x11A7 JUMP JUMPDEST SWAP2 POP POP SWAP3 POP SWAP3 SWAP1 POP JUMP JUMPDEST PUSH1 0x0 DUP2 SLOAD SWAP1 POP SWAP2 SWAP1 POP JUMP JUMPDEST PUSH1 0x0 DUP2 SWAP1 POP DUP2 PUSH1 0x0 MSTORE PUSH1 0x20 PUSH1 0x0 KECCAK256 SWAP1 POP SWAP2 SWAP1 POP JUMP JUMPDEST PUSH1 0x0 DUP2 PUSH1 0x0 SHR SWAP1 POP SWAP2 SWAP1 POP JUMP JUMPDEST PUSH1 0x0 DUP2 SWAP1 POP SWAP2 SWAP1 POP JUMP JUMPDEST PUSH1 0x0 PUSH2 0x1262 PUSH2 0x125D DUP4 PUSH2 0x1238 JUMP JUMPDEST PUSH2 0x1245 JUMP JUMPDEST SWAP1 POP SWAP2 SWAP1 POP JUMP JUMPDEST PUSH1 0x0 PUSH2 0x1275 DUP3 SLOAD PUSH2 0x124F JUMP JUMPDEST SWAP1 POP SWAP2 SWAP1 POP JUMP JUMPDEST PUSH1 0x0 PUSH1 0x1 DUP3 ADD SWAP1 POP SWAP2 SWAP1 POP JUMP JUMPDEST PUSH1 0x0 PUSH2 0x1294 DUP3 PUSH2 0x1218 JUMP JUMPDEST PUSH2 0x129E DUP2 DUP6 PUSH2 0xD9B JUMP JUMPDEST SWAP4 POP PUSH2 0x12A9 DUP4 PUSH2 0x1223 JUMP JUMPDEST DUP1 PUSH1 0x0 JUMPDEST DUP4 DUP2 LT ISZERO PUSH2 0x12E1 JUMPI PUSH2 0x12BE DUP3 PUSH2 0x1269 JUMP JUMPDEST PUSH2 0x12C8 DUP9 DUP3 PUSH2 0xDCB JUMP JUMPDEST SWAP8 POP PUSH2 0x12D3 DUP4 PUSH2 0x127C JUMP JUMPDEST SWAP3 POP POP PUSH1 0x1 DUP2 ADD SWAP1 POP PUSH2 0x12AD JUMP JUMPDEST POP DUP6 SWAP4 POP POP POP POP SWAP3 SWAP2 POP POP JUMP JUMPDEST PUSH2 0x12F7 DUP2 PUSH2 0xC58 JUMP JUMPDEST DUP3 MSTORE POP POP JUMP JUMPDEST PUSH1 0x0 PUSH1 0x80 DUP3 ADD SWAP1 POP DUP2 DUP2 SUB PUSH1 0x0 DUP4 ADD MSTORE PUSH2 0x1317 DUP2 DUP8 PUSH2 0x1289 JUMP JUMPDEST SWAP1 POP PUSH2 0x1326 PUSH1 0x20 DUP4 ADD DUP7 PUSH2 0xE70 JUMP JUMPDEST PUSH2 0x1333 PUSH1 0x40 DUP4 ADD DUP6 PUSH2 0x12EE JUMP JUMPDEST PUSH2 0x1340 PUSH1 0x60 DUP4 ADD DUP5 PUSH2 0x7C1 JUMP JUMPDEST SWAP6 SWAP5 POP POP POP POP POP JUMP JUMPDEST PUSH1 0x0 PUSH1 0x40 DUP3 ADD SWAP1 POP PUSH2 0x135E PUSH1 0x0 DUP4 ADD DUP6 PUSH2 0x7C1 JUMP JUMPDEST PUSH2 0x136B PUSH1 0x20 DUP4 ADD DUP5 PUSH2 0x12EE JUMP JUMPDEST SWAP4 SWAP3 POP POP POP JUMP JUMPDEST PUSH1 0x0 DUP2 MLOAD SWAP1 POP SWAP2 SWAP1 POP JUMP JUMPDEST PUSH1 0x0 DUP3 DUP3 MSTORE PUSH1 0x20 DUP3 ADD SWAP1 POP SWAP3 SWAP2 POP POP JUMP JUMPDEST PUSH1 0x0 JUMPDEST DUP4 DUP2 LT ISZERO PUSH2 0x13AC JUMPI DUP1 DUP3 ADD MLOAD DUP2 DUP5 ADD MSTORE PUSH1 0x20 DUP2 ADD SWAP1 POP PUSH2 0x1391 JUMP JUMPDEST PUSH1 0x0 DUP5 DUP5 ADD MSTORE POP POP POP POP JUMP JUMPDEST PUSH1 0x0 PUSH2 0x13C3 DUP3 PUSH2 0x1372 JUMP JUMPDEST PUSH2 0x13CD DUP2 DUP6 PUSH2 0x137D JUMP JUMPDEST SWAP4 POP PUSH2 0x13DD DUP2 DUP6 PUSH1 0x20 DUP7 ADD PUSH2 0x138E JUMP JUMPDEST PUSH2 0x13E6 DUP2 PUSH2 0x7F0 JUMP JUMPDEST DUP5 ADD SWAP2 POP POP SWAP3 SWAP2 POP POP JUMP JUMPDEST PUSH1 0x0 PUSH1 0xE0 DUP3 ADD SWAP1 POP PUSH2 0x1406 PUSH1 0x0 DUP4 ADD DUP11 PUSH2 0xE70 JUMP JUMPDEST PUSH2 0x1413 PUSH1 0x20 DUP4 ADD DUP10 PUSH2 0x12EE JUMP JUMPDEST DUP2 DUP2 SUB PUSH1 0x40 DUP4 ADD MSTORE PUSH2 0x1425 DUP2 DUP9 PUSH2 0x13B8 JUMP JUMPDEST SWAP1 POP PUSH2 0x1434 PUSH1 0x60 DUP4 ADD DUP8 PUSH2 0xEAB JUMP JUMPDEST PUSH2 0x1441 PUSH1 0x80 DUP4 ADD DUP7 PUSH2 0x7C1 JUMP JUMPDEST PUSH2 0x144E PUSH1 0xA0 DUP4 ADD DUP6 PUSH2 0xE70 JUMP JUMPDEST PUSH2 0x145B PUSH1 0xC0 DUP4 ADD DUP5 PUSH2 0x12EE JUMP JUMPDEST SWAP9 SWAP8 POP POP POP POP POP POP POP POP JUMP JUMPDEST PUSH1 0x0 PUSH8 0xFFFFFFFFFFFFFFFF DUP3 AND SWAP1 POP SWAP2 SWAP1 POP JUMP JUMPDEST PUSH2 0x1484 DUP2 PUSH2 0x1467 JUMP JUMPDEST DUP2 EQ PUSH2 0x148F JUMPI PUSH1 0x0 DUP1 REVERT JUMPDEST POP JUMP JUMPDEST PUSH1 0x0 DUP2 MLOAD SWAP1 POP PUSH2 0x14A1 DUP2 PUSH2 0x147B JUMP JUMPDEST SWAP3 SWAP2 POP POP JUMP JUMPDEST PUSH1 0x0 PUSH1 0x20 DUP3 DUP5 SUB SLT ISZERO PUSH2 0x14BD JUMPI PUSH2 0x14BC PUSH2 0x746 JUMP JUMPDEST JUMPDEST PUSH1 0x0 PUSH2 0x14CB DUP5 DUP3 DUP6 ADD PUSH2 0x1492 JUMP JUMPDEST SWAP2 POP POP SWAP3 SWAP2 POP POP JUMP INVALID LOG2 PUSH5 0x6970667358 0x22 SLT KECCAK256 CALLCODE 0xBB CALLDATALOAD 0xCA 0xBC LOG4 0xE9 PUSH19 0x5849B55D03B2C6EB2AD90FF75595280947AC8F RETURNDATACOPY 0x1E 0x4B 0xCB PUSH15 0x64736F6C6343000817003300000000 "
				},
				"gasEstimates": {
					"creation": {
						"codeDepositCost": "1077200",
						"executionCost": "infinite",
						"totalCost": "infinite"
					},
					"external": {
						"calculatedResult()": "2451",
						"getNumbersArray()": "infinite",
						"numbersArray(uint256)": "infinite",
						"performOperations(uint256[])": "infinite",
						"quoteCrossChainGreeting(uint16)": "infinite",
						"quoteCrossChainGreetingRefundPerUnitGasUnused(uint16)": "infinite",
						"receiveWormholeMessages(bytes,bytes[],bytes32,uint16,bytes32)": "infinite",
						"sendCrossChainGreeting(uint16,address,uint16)": "infinite",
						"wormholeRelayer()": "infinite"
					}
				},
				"methodIdentifiers": {
					"calculatedResult()": "8a4bcced",
					"getNumbersArray()": "f6ff2460",
					"numbersArray(uint256)": "e5ad2984",
					"performOperations(uint256[])": "4d5575b4",
					"quoteCrossChainGreeting(uint16)": "28bd75ce",
					"quoteCrossChainGreetingRefundPerUnitGasUnused(uint16)": "70602a1f",
					"receiveWormholeMessages(bytes,bytes[],bytes32,uint16,bytes32)": "529dca32",
					"sendCrossChainGreeting(uint16,address,uint16)": "75cccbb1",
					"wormholeRelayer()": "da25b725"
				}
			},
			"storageLayout": {
				"storage": [
					{
						"astId": 552,
						"contract": "Wormhole/destination.sol:Destination",
						"label": "numbersArray",
						"offset": 0,
						"slot": "0",
						"type": "t_array(t_uint256)dyn_storage"
					},
					{
						"astId": 554,
						"contract": "Wormhole/destination.sol:Destination",
						"label": "calculatedResult",
						"offset": 0,
						"slot": "1",
						"type": "t_uint256"
					}
				],
				"types": {
					"t_array(t_uint256)dyn_storage": {
						"base": "t_uint256",
						"encoding": "dynamic_array",
						"label": "uint256[]",
						"numberOfBytes": "32"
					},
					"t_uint256": {
						"encoding": "inplace",
						"label": "uint256",
						"numberOfBytes": "32"
					}
				}
			},
			"userdoc": {
				"kind": "user",
				"methods": {},
				"version": 1
			}
		}
	}
}